{
  "contractName": "ClaimContract",
  "abi": [
    {
      "inputs": [
        {
          "internalType": "address",
          "name": "_policyContract",
          "type": "address"
        },
        {
          "internalType": "address",
          "name": "_hospitalRegistry",
          "type": "address"
        },
        {
          "internalType": "address",
          "name": "_userRegistry",
          "type": "address"
        }
      ],
      "stateMutability": "nonpayable",
      "type": "constructor"
    },
    {
      "anonymous": false,
      "inputs": [
        {
          "indexed": false,
          "internalType": "uint256",
          "name": "claimId",
          "type": "uint256"
        },
        {
          "indexed": false,
          "internalType": "address",
          "name": "hospital",
          "type": "address"
        },
        {
          "indexed": false,
          "internalType": "uint256",
          "name": "payout",
          "type": "uint256"
        }
      ],
      "name": "ClaimApproved",
      "type": "event"
    },
    {
      "anonymous": false,
      "inputs": [
        {
          "indexed": false,
          "internalType": "uint256",
          "name": "claimId",
          "type": "uint256"
        },
        {
          "indexed": false,
          "internalType": "address",
          "name": "patient",
          "type": "address"
        }
      ],
      "name": "ClaimCancelled",
      "type": "event"
    },
    {
      "anonymous": false,
      "inputs": [
        {
          "indexed": false,
          "internalType": "uint256",
          "name": "claimId",
          "type": "uint256"
        },
        {
          "indexed": false,
          "internalType": "address",
          "name": "patient",
          "type": "address"
        }
      ],
      "name": "ClaimConfirmed",
      "type": "event"
    },
    {
      "anonymous": false,
      "inputs": [
        {
          "indexed": false,
          "internalType": "uint256",
          "name": "claimId",
          "type": "uint256"
        },
        {
          "indexed": false,
          "internalType": "string",
          "name": "reason",
          "type": "string"
        }
      ],
      "name": "ClaimRejected",
      "type": "event"
    },
    {
      "anonymous": false,
      "inputs": [
        {
          "indexed": false,
          "internalType": "uint256",
          "name": "claimId",
          "type": "uint256"
        },
        {
          "indexed": false,
          "internalType": "address",
          "name": "patient",
          "type": "address"
        },
        {
          "indexed": false,
          "internalType": "address",
          "name": "hospital",
          "type": "address"
        },
        {
          "indexed": false,
          "internalType": "uint256",
          "name": "amount",
          "type": "uint256"
        }
      ],
      "name": "ClaimSubmitted",
      "type": "event"
    },
    {
      "anonymous": false,
      "inputs": [
        {
          "indexed": false,
          "internalType": "address",
          "name": "insurer",
          "type": "address"
        },
        {
          "indexed": false,
          "internalType": "uint256",
          "name": "amount",
          "type": "uint256"
        }
      ],
      "name": "FundsDeposited",
      "type": "event"
    },
    {
      "anonymous": false,
      "inputs": [
        {
          "indexed": false,
          "internalType": "address",
          "name": "insurer",
          "type": "address"
        },
        {
          "indexed": false,
          "internalType": "uint256",
          "name": "amount",
          "type": "uint256"
        }
      ],
      "name": "FundsWithdrawn",
      "type": "event"
    },
    {
      "inputs": [
        {
          "internalType": "uint256",
          "name": "",
          "type": "uint256"
        }
      ],
      "name": "allClaimIds",
      "outputs": [
        {
          "internalType": "uint256",
          "name": "",
          "type": "uint256"
        }
      ],
      "stateMutability": "view",
      "type": "function",
      "constant": true
    },
    {
      "inputs": [],
      "name": "claimCount",
      "outputs": [
        {
          "internalType": "uint256",
          "name": "",
          "type": "uint256"
        }
      ],
      "stateMutability": "view",
      "type": "function",
      "constant": true
    },
    {
      "inputs": [
        {
          "internalType": "uint256",
          "name": "",
          "type": "uint256"
        }
      ],
      "name": "claims",
      "outputs": [
        {
          "internalType": "uint256",
          "name": "claimId",
          "type": "uint256"
        },
        {
          "internalType": "address",
          "name": "patientAddress",
          "type": "address"
        },
        {
          "internalType": "address",
          "name": "hospitalAddress",
          "type": "address"
        },
        {
          "internalType": "string",
          "name": "patientName",
          "type": "string"
        },
        {
          "internalType": "string",
          "name": "hospitalName",
          "type": "string"
        },
        {
          "internalType": "uint256",
          "name": "policyId",
          "type": "uint256"
        },
        {
          "internalType": "string",
          "name": "policyName",
          "type": "string"
        },
        {
          "internalType": "string",
          "name": "treatmentName",
          "type": "string"
        },
        {
          "internalType": "string",
          "name": "treatmentDate",
          "type": "string"
        },
        {
          "internalType": "string",
          "name": "description",
          "type": "string"
        },
        {
          "internalType": "uint256",
          "name": "claimAmount",
          "type": "uint256"
        },
        {
          "internalType": "uint256",
          "name": "patientPays",
          "type": "uint256"
        },
        {
          "internalType": "uint256",
          "name": "insurerPays",
          "type": "uint256"
        },
        {
          "internalType": "string",
          "name": "ipfsCID",
          "type": "string"
        },
        {
          "internalType": "string",
          "name": "status",
          "type": "string"
        },
        {
          "internalType": "string",
          "name": "rejectionReason",
          "type": "string"
        },
        {
          "internalType": "uint256",
          "name": "submittedOn",
          "type": "uint256"
        },
        {
          "internalType": "uint256",
          "name": "confirmedOn",
          "type": "uint256"
        },
        {
          "internalType": "uint256",
          "name": "settledOn",
          "type": "uint256"
        }
      ],
      "stateMutability": "view",
      "type": "function",
      "constant": true
    },
    {
      "inputs": [],
      "name": "contractBalance",
      "outputs": [
        {
          "internalType": "uint256",
          "name": "",
          "type": "uint256"
        }
      ],
      "stateMutability": "view",
      "type": "function",
      "constant": true
    },
    {
      "inputs": [
        {
          "internalType": "bytes32",
          "name": "",
          "type": "bytes32"
        }
      ],
      "name": "documentHashUsed",
      "outputs": [
        {
          "internalType": "bool",
          "name": "",
          "type": "bool"
        }
      ],
      "stateMutability": "view",
      "type": "function",
      "constant": true
    },
    {
      "inputs": [
        {
          "internalType": "address",
          "name": "",
          "type": "address"
        }
      ],
      "name": "hasPendingClaim",
      "outputs": [
        {
          "internalType": "bool",
          "name": "",
          "type": "bool"
        }
      ],
      "stateMutability": "view",
      "type": "function",
      "constant": true
    },
    {
      "inputs": [
        {
          "internalType": "address",
          "name": "",
          "type": "address"
        },
        {
          "internalType": "uint256",
          "name": "",
          "type": "uint256"
        }
      ],
      "name": "hospitalClaims",
      "outputs": [
        {
          "internalType": "uint256",
          "name": "",
          "type": "uint256"
        }
      ],
      "stateMutability": "view",
      "type": "function",
      "constant": true
    },
    {
      "inputs": [],
      "name": "hospitalRegistry",
      "outputs": [
        {
          "internalType": "contract IHospitalRegistry",
          "name": "",
          "type": "address"
        }
      ],
      "stateMutability": "view",
      "type": "function",
      "constant": true
    },
    {
      "inputs": [],
      "name": "insurer",
      "outputs": [
        {
          "internalType": "address",
          "name": "",
          "type": "address"
        }
      ],
      "stateMutability": "view",
      "type": "function",
      "constant": true
    },
    {
      "inputs": [
        {
          "internalType": "address",
          "name": "",
          "type": "address"
        },
        {
          "internalType": "uint256",
          "name": "",
          "type": "uint256"
        }
      ],
      "name": "patientClaims",
      "outputs": [
        {
          "internalType": "uint256",
          "name": "",
          "type": "uint256"
        }
      ],
      "stateMutability": "view",
      "type": "function",
      "constant": true
    },
    {
      "inputs": [],
      "name": "policyContract",
      "outputs": [
        {
          "internalType": "contract IPolicyContract",
          "name": "",
          "type": "address"
        }
      ],
      "stateMutability": "view",
      "type": "function",
      "constant": true
    },
    {
      "inputs": [],
      "name": "userRegistry",
      "outputs": [
        {
          "internalType": "contract IUserRegistry",
          "name": "",
          "type": "address"
        }
      ],
      "stateMutability": "view",
      "type": "function",
      "constant": true
    },
    {
      "stateMutability": "payable",
      "type": "receive",
      "payable": true
    },
    {
      "inputs": [
        {
          "internalType": "address",
          "name": "patientAddress",
          "type": "address"
        },
        {
          "internalType": "string",
          "name": "treatmentName",
          "type": "string"
        },
        {
          "internalType": "string",
          "name": "treatmentDate",
          "type": "string"
        },
        {
          "internalType": "string",
          "name": "description",
          "type": "string"
        },
        {
          "internalType": "uint256",
          "name": "claimAmount",
          "type": "uint256"
        },
        {
          "internalType": "string",
          "name": "ipfsCID",
          "type": "string"
        }
      ],
      "name": "submitClaim",
      "outputs": [],
      "stateMutability": "nonpayable",
      "type": "function"
    },
    {
      "inputs": [
        {
          "internalType": "uint256",
          "name": "claimId",
          "type": "uint256"
        }
      ],
      "name": "confirmClaim",
      "outputs": [],
      "stateMutability": "nonpayable",
      "type": "function"
    },
    {
      "inputs": [
        {
          "internalType": "uint256",
          "name": "claimId",
          "type": "uint256"
        }
      ],
      "name": "cancelClaim",
      "outputs": [],
      "stateMutability": "nonpayable",
      "type": "function"
    },
    {
      "inputs": [
        {
          "internalType": "uint256",
          "name": "claimId",
          "type": "uint256"
        }
      ],
      "name": "approveClaim",
      "outputs": [],
      "stateMutability": "nonpayable",
      "type": "function"
    },
    {
      "inputs": [
        {
          "internalType": "uint256",
          "name": "claimId",
          "type": "uint256"
        },
        {
          "internalType": "string",
          "name": "reason",
          "type": "string"
        }
      ],
      "name": "rejectClaim",
      "outputs": [],
      "stateMutability": "nonpayable",
      "type": "function"
    },
    {
      "inputs": [],
      "name": "depositFunds",
      "outputs": [],
      "stateMutability": "payable",
      "type": "function",
      "payable": true
    },
    {
      "inputs": [
        {
          "internalType": "uint256",
          "name": "amount",
          "type": "uint256"
        }
      ],
      "name": "withdrawFunds",
      "outputs": [],
      "stateMutability": "nonpayable",
      "type": "function"
    },
    {
      "inputs": [],
      "name": "getContractBalance",
      "outputs": [
        {
          "internalType": "uint256",
          "name": "",
          "type": "uint256"
        }
      ],
      "stateMutability": "view",
      "type": "function",
      "constant": true
    },
    {
      "inputs": [
        {
          "internalType": "uint256",
          "name": "claimId",
          "type": "uint256"
        }
      ],
      "name": "getClaim",
      "outputs": [
        {
          "components": [
            {
              "internalType": "uint256",
              "name": "claimId",
              "type": "uint256"
            },
            {
              "internalType": "address",
              "name": "patientAddress",
              "type": "address"
            },
            {
              "internalType": "address",
              "name": "hospitalAddress",
              "type": "address"
            },
            {
              "internalType": "string",
              "name": "patientName",
              "type": "string"
            },
            {
              "internalType": "string",
              "name": "hospitalName",
              "type": "string"
            },
            {
              "internalType": "uint256",
              "name": "policyId",
              "type": "uint256"
            },
            {
              "internalType": "string",
              "name": "policyName",
              "type": "string"
            },
            {
              "internalType": "string",
              "name": "treatmentName",
              "type": "string"
            },
            {
              "internalType": "string",
              "name": "treatmentDate",
              "type": "string"
            },
            {
              "internalType": "string",
              "name": "description",
              "type": "string"
            },
            {
              "internalType": "uint256",
              "name": "claimAmount",
              "type": "uint256"
            },
            {
              "internalType": "uint256",
              "name": "patientPays",
              "type": "uint256"
            },
            {
              "internalType": "uint256",
              "name": "insurerPays",
              "type": "uint256"
            },
            {
              "internalType": "string",
              "name": "ipfsCID",
              "type": "string"
            },
            {
              "internalType": "string",
              "name": "status",
              "type": "string"
            },
            {
              "internalType": "string",
              "name": "rejectionReason",
              "type": "string"
            },
            {
              "internalType": "uint256",
              "name": "submittedOn",
              "type": "uint256"
            },
            {
              "internalType": "uint256",
              "name": "confirmedOn",
              "type": "uint256"
            },
            {
              "internalType": "uint256",
              "name": "settledOn",
              "type": "uint256"
            }
          ],
          "internalType": "struct ClaimContract.Claim",
          "name": "",
          "type": "tuple"
        }
      ],
      "stateMutability": "view",
      "type": "function",
      "constant": true
    },
    {
      "inputs": [],
      "name": "getAllClaims",
      "outputs": [
        {
          "internalType": "uint256[]",
          "name": "",
          "type": "uint256[]"
        }
      ],
      "stateMutability": "view",
      "type": "function",
      "constant": true
    },
    {
      "inputs": [
        {
          "internalType": "address",
          "name": "patient",
          "type": "address"
        }
      ],
      "name": "getPatientClaims",
      "outputs": [
        {
          "internalType": "uint256[]",
          "name": "",
          "type": "uint256[]"
        }
      ],
      "stateMutability": "view",
      "type": "function",
      "constant": true
    },
    {
      "inputs": [
        {
          "internalType": "address",
          "name": "hospital",
          "type": "address"
        }
      ],
      "name": "getHospitalClaims",
      "outputs": [
        {
          "internalType": "uint256[]",
          "name": "",
          "type": "uint256[]"
        }
      ],
      "stateMutability": "view",
      "type": "function",
      "constant": true
    },
    {
      "inputs": [],
      "name": "getClaimCount",
      "outputs": [
        {
          "internalType": "uint256",
          "name": "",
          "type": "uint256"
        }
      ],
      "stateMutability": "view",
      "type": "function",
      "constant": true
    },
    {
      "inputs": [
        {
          "internalType": "address",
          "name": "patient",
          "type": "address"
        }
      ],
      "name": "checkHasPendingClaim",
      "outputs": [
        {
          "internalType": "bool",
          "name": "",
          "type": "bool"
        }
      ],
      "stateMutability": "view",
      "type": "function",
      "constant": true
    },
    {
      "inputs": [
        {
          "internalType": "string",
          "name": "status",
          "type": "string"
        }
      ],
      "name": "getClaimsByStatus",
      "outputs": [
        {
          "internalType": "uint256[]",
          "name": "",
          "type": "uint256[]"
        }
      ],
      "stateMutability": "view",
      "type": "function",
      "constant": true
    }
  ],
  "bytecode": "0x608034620000b657601f62002b5138819003918201601f19168301916001600160401b03831184841017620000bb57808492606094604052833981010312620000b6576200004d81620000d1565b906200006a60406200006260208401620000d1565b9201620000d1565b60018060a01b0319923384600054161760005560018060a01b0392838092168560015416176001551683600254161760025516906003541617600355604051612a6a9081620000e78239f35b600080fd5b634e487b7160e01b600052604160045260246000fd5b51906001600160a01b0382168203620000b65756fe61014080604052600436101561002d575b50361561001c57600080fd5b61002834600554612a10565b600555005b60003560e01c90816312ebce3e1461252657508063155dd5ee146123f957806325fc3e4c146123d05780633577a5ad14612187578063388a29741461213d57806346e3013514611fca5780635a9aa4e7146101f05780635aef244714611c415780635b23c27d14611bc65780635c7460d614611b9d57806369b80fc914611b745780636f9fb98a14611b585780637ff0635714611b2f5780638b7afe2e14611b115780638da4d3c91461030c5780639dc5e02f146119a65780639f176fdb14610993578063a377610d14610831578063a888c2cd14610590578063ac16863014610518578063b2dacc02146104c0578063b97533f91461032a578063ba4611d91461030c578063dbc837c5146102e3578063e2c41dbc1461022f578063e644924b146101f05763f10b61aa146101635738610010565b346101eb576020806003193601126101eb576001600160a01b0361018561265c565b1660005260088152604060002090604051908181845491828152019360005281600020916000905b8282106101d4576101d0856101c4818903826125d9565b604051918291826126ba565b0390f35b8354865294850194600193840193909101906101ad565b600080fd5b346101eb5760203660031901126101eb576001600160a01b0361021161265c565b166000526009602052602060ff604060002054166040519015158152f35b60003660031901126101eb5761025060018060a01b03600054163314612965565b341561029e5761026234600554612a10565b600555604080513381523460208201527f543ba50a5eec5e6178218e364b1d0f396157b3c8fa278522c2cb7fd99407d47491819081015b0390a1005b60405162461bcd60e51b815260206004820152601960248201527f4d757374206465706f736974206d6f7265207468616e203021000000000000006044820152606490fd5b346101eb5760003660031901126101eb576000546040516001600160a01b039091168152602090f35b346101eb5760003660031901126101eb576020600454604051908152f35b346101eb576020806003193601126101eb576004356001600160401b0381116101eb5761035b903690600401612615565b600b54909160009190808401835b83811061045c575061037a84612a1d565b9361038860405195866125d9565b808552610397601f1991612a1d565b01368386013760009460005b8481106103b857604051806101d088826126ba565b6103c181612553565b9054600391821b1c600052600685526103ea6103f1600e6040600020016040519283809261272f565b03826125d9565b8581519101208351852014610410575b5061040b9061283e565b6103a3565b61041b829892612553565b9054911b1c9661042a8261283e565b978751831015610446578561040b9360051b8901015290610401565b634e487b7160e01b600052603260045260246000fd5b61046581612553565b90549060031b1c600052600683526103ea61048d600e6040600020016040519283809261272f565b83815191012086518320146104ab575b6104a69061283e565b610369565b936104b86104a69161283e565b94905061049d565b346101eb5760403660031901126101eb576104d961265c565b6001600160a01b03166000908152600860205260409020805460243591908210156101eb5760209161050a9161258a565b90546040519160031b1c8152f35b346101eb576020806003193601126101eb576001600160a01b0361053a61265c565b1660005260078152604060002090604051908181845491828152019360005281600020916000905b828210610579576101d0856101c4818903826125d9565b835486529485019460019384019390910190610562565b346101eb5760203660031901126101eb5760043560005260066020526040600020805460c0528080600160a01b60019003806001830154169060028301541660e05260405190818060038501906105e69161272f565b036105f190836125d9565b6040519182610603816004870161272f565b0361060e90846125d9565b600584015460405180610624816006890161272f565b0361062f90826125d9565b604051806106408160078a0161272f565b0361064b90826125d9565b604051918261065d8160088b0161272f565b0361066890846125d9565b604051938461067a8160098c0161272f565b0361068590866125d9565b600a89015497600b8a015496600c8b01549860405180600d819e01906106aa9161272f565b036106b5908d6125d9565b60405180809e600e829101906106ca9161272f565b036106d4916125d9565b6040519d8e806106e781600f850161272f565b036106f1916125d9565b601081015461012052601181015460805260120154610100526040518060a05260c051905260a0516020015260e05160a051604001526102608060a0516060015260a0510161073f91612695565b60a051808203906080015261075391612695565b9060a05160a0015260a0518082039060c0015261076f91612695565b60a0518082039060e0015261078391612695565b60a05180820390610100015261079891612695565b60a0518082039061012001526107ad91612695565b9260a051610140015260a051610160015260a051610180015260a051808203906101a001526107db91612695565b60a051808203906101c001526107f091612695565b60a051808203906101e0015261080591612695565b6101205160a051610200015260805160a05161022001526101005160a051610240015260a05180910390f35b346101eb576020806003193601126101eb5760043590816000526006815260406000209061086182541515612926565b60018201546001600160a01b0316330361094f57600e82019060405161088b816103ea818661272f565b81815191012061089961284d565b8281519101200361090c577f1da7cf4c762ca601d655733d36f8f1f9da5907eeea190bc8a9463a407c05aab26102998585856108de6108d882546126f5565b82612894565b600e6650656e64696e6760c81b01905542601191909101556040805191825233602083015290918291820190565b6064906040519062461bcd60e51b825280600483015260248201527f436c61696d206e6f74206177616974696e6720636f6e6669726d6174696f6e216044820152fd5b6064906040519062461bcd60e51b82526004820152601960248201527f4f6e6c792070617469656e742063616e20636f6e6669726d21000000000000006044820152fd5b346101eb5760c03660031901126101eb576109ac61265c565b6024356001600160401b0381116101eb576109cb903690600401612615565b6044356001600160401b0381116101eb576109ea903690600401612615565b906064356001600160401b0381116101eb57610a0a903690600401612615565b60a4356001600160401b0381116101eb57610a29903690600401612615565b9060018060a01b036002541693604051630afa082360e01b8152336004820152602081602481895afa90811561167857600091611987575b501561194957600354604051631e2b366f60e31b81526001600160a01b0388811660048301529091169290602081602481875afa9081156116785760009161192a575b50156118e5576040516379ccb6c560e11b81526001600160a01b0388166004820152602081602481875afa908115611678576000916118c6575b501561188157600154604051633a8a740760e11b81526001600160a01b0389811660048301529091169290602081602481875afa90811561167857600091611852575b501561180d576001600160a01b03881660009081526009602052604090205460ff166117bc576084351561176b57855115611726578451156116e15760408051631c8a05ad60e31b81526001600160a01b038a166004820152608435602482015293849060449082905afa938415611678576000936000956116a4575b50604051630bd7be4960e41b81526001600160a01b038a1660048201529690600090889060249082905afa96871561167857600097611684575b5060006024979860405198898092633285b82d60e01b82523360048301525afa96871561167857600097611653575b50610c1360045461283e565b968760045560405198610c258a6125a2565b888a5260018060a01b038b1660208b01523360408b015260608a01526080890152600160a0890152604051610c59816125be565b6006815265506f6c69637960d01b602082015260c089015260e08801526101008701526101208601526084356101408601526101608501526101808401526101a0830152610ca561284d565b6101c08301526040518060208101106001600160401b036020830111176111ec5760208101604052600081526101e083015242610200830152600061022083015260006102408301526000526006602052604060002091815183556001830160018060a01b03602084015116906bffffffffffffffffffffffff60a01b9182825416179055600284019060018060a01b036040850151169082541617905560608201519283516001600160401b0381116111ec57610d7381610d6a60038501546126f5565b600385016128be565b6020601f82116001146115e45781929394956000926115d9575b50508160011b916000199060031b1c19161760038201555b60808301519283516001600160401b0381116111ec57610dd581610dcc60048601546126f5565b600486016128be565b6020601f821160011461156a57819293949560009261155f575b50508160011b916000199060031b1c19161760048301555b60a0810151600583015560c08101519283516001600160401b0381116111ec57610e4181610e3860068701546126f5565b600687016128be565b6020601f82116001146114f05781929394956000926114e5575b50508160011b916000199060031b1c19161760068401555b60e08201519283516001600160401b0381116111ec57610ea381610e9a60078501546126f5565b600785016128be565b6020601f821160011461147657819293949560009261146b575b50508160011b916000199060031b1c19161760078201555b6101008301519283516001600160401b0381116111ec57610f0681610efd60088601546126f5565b600886016128be565b6020601f82116001146113fc5781929394956000926113f1575b50508160011b916000199060031b1c19161760088301555b6101208101519283516001600160401b0381116111ec57610f6981610f6060098701546126f5565b600987016128be565b6020601f8211600114611382578192939495600092611377575b50508160011b916000199060031b1c19161760098401555b610140820151600a840155610160820151600b840155610180820151600c8401556101a08201519283516001600160401b0381116111ec57610fed81610fe4600d8501546126f5565b600d85016128be565b6020601f82116001146113085781929394956000926112fd575b50508160011b916000199060031b1c191617600d8201555b6101c08301519283516001600160401b0381116111ec5761105081611047600e8601546126f5565b600e86016128be565b6020601f821160011461128e578192939495600092611283575b50508160011b916000199060031b1c191617600e8301555b6101e08101518051906001600160401b0382116111ec576110b3826110aa600f8701546126f5565b600f87016128be565b602090601f831160011461120d5791806012949261024094600092611202575b50508160011b916000199060031b1c191617600f8501555b610200810151601085015561022081015160118501550151910155600454600b5491600160401b8310156111ec576111696080926111508560017f496125846b0e8273879f707f2ee3c888aa2fb21ac034e43d07eaa904357e43779701600b55612553565b90919082549060031b91821b91600019901b1916179055565b6001600160a01b038116600090815260076020526040902060045461118d91612903565b3360005260086020526111a7604060002060045490612903565b6001600160a01b0316600081815260096020908152604091829020805460ff1916600117905560045482519081529081019290925233908201526084356060820152a1005b634e487b7160e01b600052604160045260246000fd5b0151905087806110d3565b90600f850160005260206000209160005b601f198516811061126b575092601294926001926102409583601f19811610611252575b505050811b01600f8501556110eb565b015160001960f88460031b161c19169055878080611242565b9192602060018192868501518155019401920161121e565b01519050858061106a565b600e840160005260206000209060005b601f19841681106112e5575060019394959683601f198116106112cc575b505050811b01600e830155611082565b015160001960f88460031b161c191690558580806112bc565b9091602060018192858b01518155019301910161129e565b015190508580611007565b600d830160005260206000209060005b601f198416811061135f575060019394959683601f19811610611346575b505050811b01600d82015561101f565b015160001960f88460031b161c19169055858080611336565b9091602060018192858b015181550193019101611318565b015190508580610f83565b6009850160005260206000209060005b601f19841681106113d9575060019394959683601f198116106113c0575b505050811b016009840155610f9b565b015160001960f88460031b161c191690558580806113b0565b9091602060018192858b015181550193019101611392565b015190508580610f20565b6008840160005260206000209060005b601f1984168110611453575060019394959683601f1981161061143a575b505050811b016008830155610f38565b015160001960f88460031b161c1916905585808061142a565b9091602060018192858b01518155019301910161140c565b015190508580610ebd565b6007830160005260206000209060005b601f19841681106114cd575060019394959683601f198116106114b4575b505050811b016007820155610ed5565b015160001960f88460031b161c191690558580806114a4565b9091602060018192858b015181550193019101611486565b015190508580610e5b565b6006850160005260206000209060005b601f1984168110611547575060019394959683601f1981161061152e575b505050811b016006840155610e73565b015160001960f88460031b161c1916905585808061151e565b9091602060018192858b015181550193019101611500565b015190508580610def565b6004840160005260206000209060005b601f19841681106115c1575060019394959683601f198116106115a8575b505050811b016004830155610e07565b015160001960f88460031b161c19169055858080611598565b9091602060018192858b01518155019301910161157a565b015190508580610d8d565b6003830160005260206000209060005b601f198416811061163b575060019394959683601f19811610611622575b505050811b016003820155610da5565b015160001960f88460031b161c19169055858080611612565b9091602060018192858b0151815501930191016115f4565b6116719197503d806000833e61166981836125d9565b8101906127dd565b9589610c07565b6040513d6000823e3d90fd5b6024975061169d6000913d8084833e61166981836125d9565b9750610bd8565b935093506040833d6040116116d9575b816116c1604093836125d9565b810103126101eb578251602090930151936000610b9e565b3d91506116b4565b60405162461bcd60e51b815260206004820152601760248201527f4950465320646f63756d656e74207265717569726564210000000000000000006044820152606490fd5b60405162461bcd60e51b815260206004820152601860248201527f54726561746d656e74206e616d652072657175697265642100000000000000006044820152606490fd5b60405162461bcd60e51b8152602060048201526024808201527f436c61696d20616d6f756e74206d7573742062652067726561746572207468616044820152636e20302160e01b6064820152608490fd5b60405162461bcd60e51b8152602060048201526024808201527f50617469656e7420616c72656164792068617320612070656e64696e6720636c60448201526361696d2160e01b6064820152608490fd5b60405162461bcd60e51b815260206004820152601d60248201527f50617469656e7420686173206e6f2061637469766520706f6c696379210000006044820152606490fd5b611874915060203d60201161187a575b61186c81836125d9565b8101906127c5565b89610b21565b503d611862565b60405162461bcd60e51b815260206004820152601960248201527f50617469656e74204b5943206e6f7420617070726f76656421000000000000006044820152606490fd5b6118df915060203d60201161187a5761186c81836125d9565b88610ade565b60405162461bcd60e51b815260206004820152601760248201527f50617469656e74206e6f742072656769737465726564210000000000000000006044820152606490fd5b611943915060203d60201161187a5761186c81836125d9565b88610aa4565b60405162461bcd60e51b8152602060048201526016602482015275486f73706974616c206e6f7420617070726f7665642160501b6044820152606490fd5b6119a0915060203d60201161187a5761186c81836125d9565b87610a61565b346101eb576020806003193601126101eb5760043590816000526006815260406000206119d581541515612926565b60018101546001600160a01b03163303611acc57600e016040516119fd816103ea818561272f565b828151910120611a0b61284d565b83815191012003611a89579160096102999284611a4c6108d87fb07c35948b3aa55af6baed77379d187e78a6e78bbe61fc2fe299f400607c441f97546126f5565b60126810d85b98d95b1b195960ba1b01905533600081815292909152604091829020805460ff191690558151928352602083015290918291820190565b6064826040519062461bcd60e51b825280600483015260248201527f43616e206f6e6c792063616e63656c206177616974696e6720636c61696d73216044820152fd5b60405162461bcd60e51b815260048101839052601860248201527f4f6e6c792070617469656e742063616e2063616e63656c2100000000000000006044820152606490fd5b346101eb5760003660031901126101eb576020600554604051908152f35b346101eb5760003660031901126101eb576001546040516001600160a01b039091168152602090f35b346101eb5760003660031901126101eb57602047604051908152f35b346101eb5760003660031901126101eb576002546040516001600160a01b039091168152602090f35b346101eb5760003660031901126101eb576003546040516001600160a01b039091168152602090f35b346101eb5760003660031901126101eb5760405180600b5491828152602080910192600b6000527f0175b7a638427703f0dbe7bb9bbf987a2551717b34e79f33b5b1008d1fa01db9916000905b828210611c2a576101d0856101c4818903826125d9565b835486529485019460019384019390910190611c13565b346101eb5760203660031901126101eb576000610240604051611c63816125a2565b828152826020820152826040820152606080820152606060808201528260a0820152606060c0820152606060e08201526060610100820152606061012082015282610140820152826101608201528261018082015260606101a082015260606101c082015260606101e0820152826102008201528261022082015201526004356000526006602052608060606040600020601260405191611d03836125a2565b8054835260018101546001600160a01b03908116602085015260028201541660408085019190915251611d3d816103ea816003860161272f565b84840152604051611d55816103ea816004860161272f565b85840152600581015460a0840152604051611d77816103ea816006860161272f565b60c0840152604051611d90816103ea816007860161272f565b60e0840152604051611da9816103ea816008860161272f565b610100840152604051611dc3816103ea816009860161272f565b610120840152600a810154610140840152600b810154610160840152600c810154610180840152604051611dfe816103ea81600d860161272f565b6101a0840152604051611e18816103ea81600e860161272f565b6101c0840152604051611e32816103ea81600f860161272f565b6101e0840152601081015461020084015260118101546102208401520154610240820152610240611fa7611f8f611f77611f3b611f23611f0b611ef4611ed4611ebe8a6102606040519e8f9e8f93602085528051602086015260018060a01b03602082015116604086015260018060a01b036040820151168286015201519201526102808d0190612695565b60808b01518c8203601f190160a08e0152612695565b60a08a015160c08c015260c08a0151601f198c83030160e08d0152612695565b60e08901518a8203601f19016101008c0152612695565b610100880151898203601f19016101208b0152612695565b610120870151888203601f19016101408a0152612695565b6101408601516101608801526101608601516101808801526101808601516101a08801526101a0860151601f19888303016101c0890152612695565b6101c0850151868203601f19016101e0880152612695565b6101e0840151858203601f1901610200870152612695565b916102008101516102208501526102208101518285015201516102608301520390f35b346101eb576020806003193601126101eb576000546001600160a01b03919060043590611ffa9084163314612965565b806000526006825260406000209161201483541515612926565b600e83019261204760405161202d816103ea818961272f565b83815191012061203b6129a9565b848151910120146129cc565b4793600c8201948554116120f85790816120666108d8600294546126f5565b601067105c1c1c9bdd995960c21b0190554260128201558560018201541660005260098352604060002060ff19815416905501926000808080888854168554908282156120ef575bf115611678577f0b582d60859bb6c5e17bb049bc83044c0c8dab7d0a026b4e3a4a2966d8926de59460609454169054916040519384528301526040820152a1005b506108fc6120ae565b60405162461bcd60e51b815260048101849052601c60248201527f496e73756666696369656e7420636f6e74726163742066756e647321000000006044820152606490fd5b346101eb5760403660031901126101eb5761215661265c565b6001600160a01b03166000908152600760205260409020805460243591908210156101eb5760209161050a9161258a565b346101eb5760403660031901126101eb576001600160401b036004356024358281116101eb576121bb903690600401612615565b6000546001600160a01b03906121d49082163314612965565b82600052602093600685526040600020906121f182541515612926565b600e8201612223604051612209816103ea818661272f565b8881519101206122176129a9565b898151910120146129cc565b84511561238b576122376108d882546126f5565b60106714995a9958dd195960c21b0190558351600f83019181116111ec576122698161226384546126f5565b846128be565b86601f82116001146122fd57926102999492826001937f43cc3d080e025c67c26d62b18bd442511dc9c76c8aa3f48cc0e8f456173e61f19a9998966000916122f2575b50600019600383901b1c191690841b1790555b42601282015501541660005260098452604060002060ff1981541690556040805194859485528401526040830190612695565b90508601518b6122ac565b601f1982169083600052886000209160005b8181106123745750837f43cc3d080e025c67c26d62b18bd442511dc9c76c8aa3f48cc0e8f456173e61f19a9998969361029998969360019687941061235b575b5050811b0190556122bf565b88015160001960f88460031b161c191690558b8061234f565b91928a60018192868c01518155019401920161230f565b60405162461bcd60e51b815260048101889052601a60248201527f52656a656374696f6e20726561736f6e207265717569726564210000000000006044820152606490fd5b346101eb5760203660031901126101eb57600435600b548110156101eb5761050a602091612553565b346101eb5760203660031901126101eb57600054600435906001600160a01b0316612425338214612965565b81156124e1578147106124a4576005549082820391821161248e5760008084819493829460055582f115611678576040805133815260208101929092527feaff4b37086828766ad3268786972c0cd24259d4c87a80f9d3963a3c3d999b0d919081908101610299565b634e487b7160e01b600052601160045260246000fd5b60405162461bcd60e51b8152602060048201526015602482015274496e73756666696369656e742062616c616e63652160581b6044820152606490fd5b60405162461bcd60e51b815260206004820152601e60248201527f416d6f756e74206d7573742062652067726561746572207468616e20302100006044820152606490fd5b346101eb5760203660031901126101eb57602090600435600052600a825260ff6040600020541615158152f35b600b5481101561044657600b6000527f0175b7a638427703f0dbe7bb9bbf987a2551717b34e79f33b5b1008d1fa01db90190600090565b80548210156104465760005260206000200190600090565b61026081019081106001600160401b038211176111ec57604052565b604081019081106001600160401b038211176111ec57604052565b90601f801991011681019081106001600160401b038211176111ec57604052565b6001600160401b0381116111ec57601f01601f191660200190565b81601f820112156101eb5780359061262c826125fa565b9261263a60405194856125d9565b828452602083830101116101eb57816000926020809301838601378301015290565b600435906001600160a01b03821682036101eb57565b60005b8381106126855750506000910152565b8181015183820152602001612675565b906020916126ae81518092818552858086019101612672565b601f01601f1916010190565b6020908160408183019282815285518094520193019160005b8281106126e1575050505090565b8351855293810193928101926001016126d3565b90600182811c92168015612725575b602083101461270f57565b634e487b7160e01b600052602260045260246000fd5b91607f1691612704565b9060009291805491612740836126f5565b9182825260019384811690816000146127a25750600114612762575b50505050565b90919394506000526020928360002092846000945b83861061278e57505050500101903880808061275c565b805485870183015294019385908201612777565b9294505050602093945060ff191683830152151560051b0101903880808061275c565b908160209103126101eb575180151581036101eb5790565b6020818303126101eb578051906001600160401b0382116101eb570181601f820112156101eb57805161280f816125fa565b9261281d60405194856125d9565b818452602082840101116101eb5761283b9160208085019101612672565b90565b600019811461248e5760010190565b6040519061285a826125be565b601482527320bbb0b4ba34b733a1b7b73334b936b0ba34b7b760611b6020830152565b818110612888575050565b6000815560010161287d565b90601f81116128a1575050565b6128bc91600052601f6020600020910160051c81019061287d565b565b9190601f81116128cd57505050565b6128bc926000526020600020906020601f840160051c830193106128f9575b601f0160051c019061287d565b90915081906128ec565b90815491600160401b8310156111ec57826111509160016128bc9501815561258a565b1561292d57565b60405162461bcd60e51b815260206004820152601060248201526f436c61696d206e6f7420666f756e642160801b6044820152606490fd5b1561296c57565b60405162461bcd60e51b81526020600482015260156024820152744f6e6c7920696e737572657220616c6c6f7765642160581b6044820152606490fd5b604051906129b6826125be565b600782526650656e64696e6760c81b6020830152565b156129d357565b60405162461bcd60e51b8152602060048201526015602482015274436c61696d206973206e6f742070656e64696e672160581b6044820152606490fd5b9190820180921161248e57565b6001600160401b0381116111ec5760051b6020019056fea264697066735822122004e21f1b6a5378794a7791a2377b407ce222a08b301e102f2b67b3befdcee21964736f6c63430008130033",
  "immutableReferences": {},
  "source": "// SPDX-License-Identifier: MIT\r\npragma solidity ^0.8.0;\r\n\r\ninterface IPolicyContract {\r\n    function hasSubscription(address patient) external view returns (bool);\r\n    function calculateClaimPayout(address patient, uint256 claimAmount)\r\n        external view returns (uint256 patientPays, uint256 insurerPays);\r\n    function getSubscription(address patient) external view returns (\r\n        address patientAddress,\r\n        uint256 policyId,\r\n        string memory policyName,\r\n        uint256 premiumAmount,\r\n        uint256 totalPaid,\r\n        uint256 startDate,\r\n        uint256 endDate,\r\n        uint256 nextDueDate,\r\n        uint256 monthsPaid,\r\n        string memory subscriptionStatus,\r\n        string memory paymentStatus,\r\n        uint256 timestamp\r\n    );\r\n}\r\n\r\ninterface IHospitalRegistry {\r\n    function isHospitalApproved(address hospital) external view returns (bool);\r\n    function getHospitalName(address hospital) external view returns (string memory);\r\n}\r\n\r\ninterface IUserRegistry {\r\n    function checkPatientRegistered(address patient) external view returns (bool);\r\n    function checkPatientApproved(address patient) external view returns (bool);\r\n    function getPatientName(address patient) external view returns (string memory);\r\n}\r\n\r\ncontract ClaimContract {\r\n\r\n    address public insurer;\r\n    IPolicyContract   public policyContract;\r\n    IHospitalRegistry public hospitalRegistry;\r\n    IUserRegistry     public userRegistry;\r\n\r\n    struct Claim {\r\n        uint256 claimId;\r\n        address patientAddress;\r\n        address hospitalAddress;\r\n        string  patientName;\r\n        string  hospitalName;\r\n        uint256 policyId;\r\n        string  policyName;\r\n        string  treatmentName;\r\n        string  treatmentDate;\r\n        string  description;\r\n        uint256 claimAmount;\r\n        uint256 patientPays;\r\n        uint256 insurerPays;\r\n        string  ipfsCID;\r\n        string  status;\r\n        string  rejectionReason;\r\n        uint256 submittedOn;\r\n        uint256 confirmedOn;\r\n        uint256 settledOn;\r\n    }\r\n\r\n    uint256 public claimCount;\r\n    uint256 public contractBalance;\r\n\r\n    mapping(uint256 => Claim)         public claims;\r\n    mapping(address => uint256[])     public patientClaims;\r\n    mapping(address => uint256[])     public hospitalClaims;\r\n    mapping(address => bool)          public hasPendingClaim;\r\n    mapping(bytes32 => bool)          public documentHashUsed;\r\n\r\n    uint256[] public allClaimIds;\r\n\r\n    event ClaimSubmitted(uint256 claimId, address patient, address hospital, uint256 amount);\r\n    event ClaimConfirmed(uint256 claimId, address patient);\r\n    event ClaimCancelled(uint256 claimId, address patient);\r\n    event ClaimApproved(uint256 claimId, address hospital, uint256 payout);\r\n    event ClaimRejected(uint256 claimId, string reason);\r\n    event FundsDeposited(address insurer, uint256 amount);\r\n    event FundsWithdrawn(address insurer, uint256 amount);\r\n\r\n    modifier onlyInsurer() {\r\n        require(msg.sender == insurer, \"Only insurer allowed!\");\r\n        _;\r\n    }\r\n\r\n    modifier onlyApprovedHospital() {\r\n        require(hospitalRegistry.isHospitalApproved(msg.sender), \"Hospital not approved!\");\r\n        _;\r\n    }\r\n\r\n    constructor(\r\n        address _policyContract,\r\n        address _hospitalRegistry,\r\n        address _userRegistry\r\n    ) {\r\n        insurer          = msg.sender;\r\n        policyContract   = IPolicyContract(_policyContract);\r\n        hospitalRegistry = IHospitalRegistry(_hospitalRegistry);\r\n        userRegistry     = IUserRegistry(_userRegistry);\r\n    }\r\n\r\n    function submitClaim(\r\n        address patientAddress,\r\n        string memory treatmentName,\r\n        string memory treatmentDate,\r\n        string memory description,\r\n        uint256 claimAmount,\r\n        string memory ipfsCID\r\n    ) public onlyApprovedHospital {\r\n        require(userRegistry.checkPatientRegistered(patientAddress),  \"Patient not registered!\");\r\n        require(userRegistry.checkPatientApproved(patientAddress),    \"Patient KYC not approved!\");\r\n        require(policyContract.hasSubscription(patientAddress),       \"Patient has no active policy!\");\r\n        require(!hasPendingClaim[patientAddress],                     \"Patient already has a pending claim!\");\r\n        require(claimAmount > 0,                                      \"Claim amount must be greater than 0!\");\r\n        require(bytes(treatmentName).length > 0,                      \"Treatment name required!\");\r\n        require(bytes(ipfsCID).length > 0,                            \"IPFS document required!\");\r\n\r\n        (uint256 patientPays, uint256 insurerPays) =\r\n            policyContract.calculateClaimPayout(patientAddress, claimAmount);\r\n\r\n        string memory patientName  = userRegistry.getPatientName(patientAddress);\r\n        string memory hospitalName = hospitalRegistry.getHospitalName(msg.sender);\r\n\r\n        claimCount++;\r\n        claims[claimCount] = Claim({\r\n            claimId:         claimCount,\r\n            patientAddress:  patientAddress,\r\n            hospitalAddress: msg.sender,\r\n            patientName:     patientName,\r\n            hospitalName:    hospitalName,\r\n            policyId:        1,\r\n            policyName:      \"Policy\",\r\n            treatmentName:   treatmentName,\r\n            treatmentDate:   treatmentDate,\r\n            description:     description,\r\n            claimAmount:     claimAmount,\r\n            patientPays:     patientPays,\r\n            insurerPays:     insurerPays,\r\n            ipfsCID:         ipfsCID,\r\n            status:          \"AwaitingConfirmation\",\r\n            rejectionReason: \"\",\r\n            submittedOn:     block.timestamp,\r\n            confirmedOn:     0,\r\n            settledOn:       0\r\n        });\r\n\r\n        allClaimIds.push(claimCount);\r\n        patientClaims[patientAddress].push(claimCount);\r\n        hospitalClaims[msg.sender].push(claimCount);\r\n        hasPendingClaim[patientAddress] = true;\r\n\r\n        emit ClaimSubmitted(claimCount, patientAddress, msg.sender, claimAmount);\r\n    }\r\n\r\n    function confirmClaim(uint256 claimId) public {\r\n        Claim storage c = claims[claimId];\r\n        require(c.claimId != 0,                 \"Claim not found!\");\r\n        require(c.patientAddress == msg.sender, \"Only patient can confirm!\");\r\n        require(keccak256(bytes(c.status)) == keccak256(bytes(\"AwaitingConfirmation\")), \"Claim not awaiting confirmation!\");\r\n        c.status      = \"Pending\";\r\n        c.confirmedOn = block.timestamp;\r\n        emit ClaimConfirmed(claimId, msg.sender);\r\n    }\r\n\r\n    function cancelClaim(uint256 claimId) public {\r\n        Claim storage c = claims[claimId];\r\n        require(c.claimId != 0,                 \"Claim not found!\");\r\n        require(c.patientAddress == msg.sender, \"Only patient can cancel!\");\r\n        require(keccak256(bytes(c.status)) == keccak256(bytes(\"AwaitingConfirmation\")), \"Can only cancel awaiting claims!\");\r\n        c.status = \"Cancelled\";\r\n        hasPendingClaim[msg.sender] = false;\r\n        emit ClaimCancelled(claimId, msg.sender);\r\n    }\r\n\r\n    function approveClaim(uint256 claimId) public onlyInsurer {\r\n        Claim storage c = claims[claimId];\r\n        require(c.claimId != 0, \"Claim not found!\");\r\n        require(keccak256(bytes(c.status)) == keccak256(bytes(\"Pending\")), \"Claim is not pending!\");\r\n        require(address(this).balance >= c.insurerPays, \"Insufficient contract funds!\");\r\n        c.status    = \"Approved\";\r\n        c.settledOn = block.timestamp;\r\n        hasPendingClaim[c.patientAddress] = false;\r\n        payable(c.hospitalAddress).transfer(c.insurerPays);\r\n        emit ClaimApproved(claimId, c.hospitalAddress, c.insurerPays);\r\n    }\r\n\r\n    function rejectClaim(uint256 claimId, string memory reason) public onlyInsurer {\r\n        Claim storage c = claims[claimId];\r\n        require(c.claimId != 0, \"Claim not found!\");\r\n        require(keccak256(bytes(c.status)) == keccak256(bytes(\"Pending\")), \"Claim is not pending!\");\r\n        require(bytes(reason).length > 0, \"Rejection reason required!\");\r\n        c.status          = \"Rejected\";\r\n        c.rejectionReason = reason;\r\n        c.settledOn       = block.timestamp;\r\n        hasPendingClaim[c.patientAddress] = false;\r\n        emit ClaimRejected(claimId, reason);\r\n    }\r\n\r\n    function depositFunds() public payable onlyInsurer {\r\n        require(msg.value > 0, \"Must deposit more than 0!\");\r\n        contractBalance += msg.value;\r\n        emit FundsDeposited(msg.sender, msg.value);\r\n    }\r\n\r\n    function withdrawFunds(uint256 amount) public onlyInsurer {\r\n        require(amount > 0,                      \"Amount must be greater than 0!\");\r\n        require(address(this).balance >= amount, \"Insufficient balance!\");\r\n        contractBalance -= amount;\r\n        payable(insurer).transfer(amount);\r\n        emit FundsWithdrawn(msg.sender, amount);\r\n    }\r\n\r\n    function getContractBalance() public view returns (uint256) {\r\n        return address(this).balance;\r\n    }\r\n\r\n    function getClaim(uint256 claimId) public view returns (Claim memory) { return claims[claimId]; }\r\n    function getAllClaims() public view returns (uint256[] memory) { return allClaimIds; }\r\n    function getPatientClaims(address patient) public view returns (uint256[] memory) { return patientClaims[patient]; }\r\n    function getHospitalClaims(address hospital) public view returns (uint256[] memory) { return hospitalClaims[hospital]; }\r\n    function getClaimCount() public view returns (uint256) { return claimCount; }\r\n    function checkHasPendingClaim(address patient) public view returns (bool) { return hasPendingClaim[patient]; }\r\n\r\n    function getClaimsByStatus(string memory status) public view returns (uint256[] memory) {\r\n        uint256 count = 0;\r\n        for (uint256 i = 0; i < allClaimIds.length; i++) {\r\n            if (keccak256(bytes(claims[allClaimIds[i]].status)) == keccak256(bytes(status))) count++;\r\n        }\r\n        uint256[] memory result = new uint256[](count);\r\n        uint256 index = 0;\r\n        for (uint256 i = 0; i < allClaimIds.length; i++) {\r\n            if (keccak256(bytes(claims[allClaimIds[i]].status)) == keccak256(bytes(status))) {\r\n                result[index++] = allClaimIds[i];\r\n            }\r\n        }\r\n        return result;\r\n    }\r\n\r\n    receive() external payable {\r\n        contractBalance += msg.value;\r\n    }\r\n}\r\n",
  "sourcePath": "D:\\MedInsure_mid\\contracts\\ClaimContract.sol",
  "compiler": {
    "name": "solc",
    "version": "0.8.19+commit.7dd6d404.Emscripten.clang"
  },
  "schemaVersion": "3.4.16",
  "updatedAt": "2026-04-03T11:29:57.026Z",
  "networkType": "ethereum",
  "devdoc": {
    "kind": "dev",
    "methods": {},
    "version": 1
  },
  "userdoc": {
    "kind": "user",
    "methods": {},
    "version": 1
  }
}