{
  "contractName": "PolicyContract",
  "abi": [
    {
      "inputs": [],
      "stateMutability": "nonpayable",
      "type": "constructor"
    },
    {
      "anonymous": false,
      "inputs": [
        {
          "indexed": false,
          "internalType": "address",
          "name": "patient",
          "type": "address"
        },
        {
          "indexed": false,
          "internalType": "uint256",
          "name": "amount",
          "type": "uint256"
        },
        {
          "indexed": false,
          "internalType": "uint256",
          "name": "monthNumber",
          "type": "uint256"
        }
      ],
      "name": "MonthlyPremiumPaid",
      "type": "event"
    },
    {
      "anonymous": false,
      "inputs": [
        {
          "indexed": false,
          "internalType": "uint256",
          "name": "policyId",
          "type": "uint256"
        },
        {
          "indexed": false,
          "internalType": "string",
          "name": "policyName",
          "type": "string"
        }
      ],
      "name": "PolicyCreated",
      "type": "event"
    },
    {
      "anonymous": false,
      "inputs": [
        {
          "indexed": false,
          "internalType": "address",
          "name": "patient",
          "type": "address"
        }
      ],
      "name": "PolicyReactivated",
      "type": "event"
    },
    {
      "anonymous": false,
      "inputs": [
        {
          "indexed": false,
          "internalType": "address",
          "name": "patient",
          "type": "address"
        },
        {
          "indexed": false,
          "internalType": "uint256",
          "name": "policyId",
          "type": "uint256"
        },
        {
          "indexed": false,
          "internalType": "string",
          "name": "policyName",
          "type": "string"
        }
      ],
      "name": "PolicySubscribed",
      "type": "event"
    },
    {
      "anonymous": false,
      "inputs": [
        {
          "indexed": false,
          "internalType": "address",
          "name": "patient",
          "type": "address"
        },
        {
          "indexed": false,
          "internalType": "string",
          "name": "reason",
          "type": "string"
        }
      ],
      "name": "PolicySuspended",
      "type": "event"
    },
    {
      "inputs": [
        {
          "internalType": "uint256",
          "name": "",
          "type": "uint256"
        }
      ],
      "name": "allPolicyIds",
      "outputs": [
        {
          "internalType": "uint256",
          "name": "",
          "type": "uint256"
        }
      ],
      "stateMutability": "view",
      "type": "function",
      "constant": true
    },
    {
      "inputs": [
        {
          "internalType": "address",
          "name": "",
          "type": "address"
        }
      ],
      "name": "hasSubscription",
      "outputs": [
        {
          "internalType": "bool",
          "name": "",
          "type": "bool"
        }
      ],
      "stateMutability": "view",
      "type": "function",
      "constant": true
    },
    {
      "inputs": [],
      "name": "insurer",
      "outputs": [
        {
          "internalType": "address",
          "name": "",
          "type": "address"
        }
      ],
      "stateMutability": "view",
      "type": "function",
      "constant": true
    },
    {
      "inputs": [
        {
          "internalType": "address",
          "name": "",
          "type": "address"
        },
        {
          "internalType": "uint256",
          "name": "",
          "type": "uint256"
        }
      ],
      "name": "paymentHistory",
      "outputs": [
        {
          "internalType": "uint256",
          "name": "amount",
          "type": "uint256"
        },
        {
          "internalType": "uint256",
          "name": "paidOn",
          "type": "uint256"
        },
        {
          "internalType": "uint256",
          "name": "monthNumber",
          "type": "uint256"
        },
        {
          "internalType": "string",
          "name": "status",
          "type": "string"
        }
      ],
      "stateMutability": "view",
      "type": "function",
      "constant": true
    },
    {
      "inputs": [
        {
          "internalType": "uint256",
          "name": "",
          "type": "uint256"
        }
      ],
      "name": "policies",
      "outputs": [
        {
          "internalType": "uint256",
          "name": "policyId",
          "type": "uint256"
        },
        {
          "internalType": "string",
          "name": "policyName",
          "type": "string"
        },
        {
          "internalType": "uint256",
          "name": "coverageLimit",
          "type": "uint256"
        },
        {
          "internalType": "uint256",
          "name": "premiumAmount",
          "type": "uint256"
        },
        {
          "internalType": "uint256",
          "name": "validityPeriod",
          "type": "uint256"
        },
        {
          "internalType": "string",
          "name": "ipfsCID",
          "type": "string"
        },
        {
          "internalType": "string",
          "name": "covered",
          "type": "string"
        },
        {
          "internalType": "string",
          "name": "excluded",
          "type": "string"
        },
        {
          "internalType": "string",
          "name": "status",
          "type": "string"
        },
        {
          "internalType": "uint256",
          "name": "timestamp",
          "type": "uint256"
        },
        {
          "internalType": "uint256",
          "name": "deductible",
          "type": "uint256"
        },
        {
          "internalType": "uint256",
          "name": "copayPercentage",
          "type": "uint256"
        }
      ],
      "stateMutability": "view",
      "type": "function",
      "constant": true
    },
    {
      "inputs": [],
      "name": "policyCount",
      "outputs": [
        {
          "internalType": "uint256",
          "name": "",
          "type": "uint256"
        }
      ],
      "stateMutability": "view",
      "type": "function",
      "constant": true
    },
    {
      "inputs": [],
      "name": "subscriptionCount",
      "outputs": [
        {
          "internalType": "uint256",
          "name": "",
          "type": "uint256"
        }
      ],
      "stateMutability": "view",
      "type": "function",
      "constant": true
    },
    {
      "inputs": [
        {
          "internalType": "address",
          "name": "",
          "type": "address"
        }
      ],
      "name": "subscriptions",
      "outputs": [
        {
          "internalType": "address",
          "name": "patientAddress",
          "type": "address"
        },
        {
          "internalType": "uint256",
          "name": "policyId",
          "type": "uint256"
        },
        {
          "internalType": "string",
          "name": "policyName",
          "type": "string"
        },
        {
          "internalType": "uint256",
          "name": "premiumAmount",
          "type": "uint256"
        },
        {
          "internalType": "uint256",
          "name": "totalPaid",
          "type": "uint256"
        },
        {
          "internalType": "uint256",
          "name": "startDate",
          "type": "uint256"
        },
        {
          "internalType": "uint256",
          "name": "endDate",
          "type": "uint256"
        },
        {
          "internalType": "uint256",
          "name": "nextDueDate",
          "type": "uint256"
        },
        {
          "internalType": "uint256",
          "name": "monthsPaid",
          "type": "uint256"
        },
        {
          "internalType": "string",
          "name": "subscriptionStatus",
          "type": "string"
        },
        {
          "internalType": "string",
          "name": "paymentStatus",
          "type": "string"
        },
        {
          "internalType": "uint256",
          "name": "timestamp",
          "type": "uint256"
        }
      ],
      "stateMutability": "view",
      "type": "function",
      "constant": true
    },
    {
      "inputs": [
        {
          "components": [
            {
              "internalType": "string",
              "name": "policyName",
              "type": "string"
            },
            {
              "internalType": "uint256",
              "name": "coverageLimit",
              "type": "uint256"
            },
            {
              "internalType": "uint256",
              "name": "premiumAmount",
              "type": "uint256"
            },
            {
              "internalType": "uint256",
              "name": "validityPeriod",
              "type": "uint256"
            },
            {
              "internalType": "string",
              "name": "ipfsCID",
              "type": "string"
            },
            {
              "internalType": "string",
              "name": "covered",
              "type": "string"
            },
            {
              "internalType": "string",
              "name": "excluded",
              "type": "string"
            },
            {
              "internalType": "uint256",
              "name": "deductible",
              "type": "uint256"
            },
            {
              "internalType": "uint256",
              "name": "copayPercentage",
              "type": "uint256"
            }
          ],
          "internalType": "struct PolicyContract.PolicyInput",
          "name": "input",
          "type": "tuple"
        }
      ],
      "name": "createPolicy",
      "outputs": [],
      "stateMutability": "nonpayable",
      "type": "function"
    },
    {
      "inputs": [
        {
          "internalType": "uint256",
          "name": "policyId",
          "type": "uint256"
        }
      ],
      "name": "subscribePolicy",
      "outputs": [],
      "stateMutability": "payable",
      "type": "function",
      "payable": true
    },
    {
      "inputs": [],
      "name": "payMonthlyPremium",
      "outputs": [],
      "stateMutability": "payable",
      "type": "function",
      "payable": true
    },
    {
      "inputs": [
        {
          "internalType": "address",
          "name": "patient",
          "type": "address"
        }
      ],
      "name": "checkPaymentStatus",
      "outputs": [],
      "stateMutability": "nonpayable",
      "type": "function"
    },
    {
      "inputs": [],
      "name": "getAllPolicies",
      "outputs": [
        {
          "internalType": "uint256[]",
          "name": "",
          "type": "uint256[]"
        }
      ],
      "stateMutability": "view",
      "type": "function",
      "constant": true
    },
    {
      "inputs": [
        {
          "internalType": "uint256",
          "name": "policyId",
          "type": "uint256"
        }
      ],
      "name": "getPolicy",
      "outputs": [
        {
          "components": [
            {
              "internalType": "uint256",
              "name": "policyId",
              "type": "uint256"
            },
            {
              "internalType": "string",
              "name": "policyName",
              "type": "string"
            },
            {
              "internalType": "uint256",
              "name": "coverageLimit",
              "type": "uint256"
            },
            {
              "internalType": "uint256",
              "name": "premiumAmount",
              "type": "uint256"
            },
            {
              "internalType": "uint256",
              "name": "validityPeriod",
              "type": "uint256"
            },
            {
              "internalType": "string",
              "name": "ipfsCID",
              "type": "string"
            },
            {
              "internalType": "string",
              "name": "covered",
              "type": "string"
            },
            {
              "internalType": "string",
              "name": "excluded",
              "type": "string"
            },
            {
              "internalType": "string",
              "name": "status",
              "type": "string"
            },
            {
              "internalType": "uint256",
              "name": "timestamp",
              "type": "uint256"
            },
            {
              "internalType": "uint256",
              "name": "deductible",
              "type": "uint256"
            },
            {
              "internalType": "uint256",
              "name": "copayPercentage",
              "type": "uint256"
            }
          ],
          "internalType": "struct PolicyContract.Policy",
          "name": "",
          "type": "tuple"
        }
      ],
      "stateMutability": "view",
      "type": "function",
      "constant": true
    },
    {
      "inputs": [
        {
          "internalType": "address",
          "name": "patient",
          "type": "address"
        }
      ],
      "name": "getSubscription",
      "outputs": [
        {
          "components": [
            {
              "internalType": "address",
              "name": "patientAddress",
              "type": "address"
            },
            {
              "internalType": "uint256",
              "name": "policyId",
              "type": "uint256"
            },
            {
              "internalType": "string",
              "name": "policyName",
              "type": "string"
            },
            {
              "internalType": "uint256",
              "name": "premiumAmount",
              "type": "uint256"
            },
            {
              "internalType": "uint256",
              "name": "totalPaid",
              "type": "uint256"
            },
            {
              "internalType": "uint256",
              "name": "startDate",
              "type": "uint256"
            },
            {
              "internalType": "uint256",
              "name": "endDate",
              "type": "uint256"
            },
            {
              "internalType": "uint256",
              "name": "nextDueDate",
              "type": "uint256"
            },
            {
              "internalType": "uint256",
              "name": "monthsPaid",
              "type": "uint256"
            },
            {
              "internalType": "string",
              "name": "subscriptionStatus",
              "type": "string"
            },
            {
              "internalType": "string",
              "name": "paymentStatus",
              "type": "string"
            },
            {
              "internalType": "uint256",
              "name": "timestamp",
              "type": "uint256"
            }
          ],
          "internalType": "struct PolicyContract.Subscription",
          "name": "",
          "type": "tuple"
        }
      ],
      "stateMutability": "view",
      "type": "function",
      "constant": true
    },
    {
      "inputs": [
        {
          "internalType": "address",
          "name": "patient",
          "type": "address"
        }
      ],
      "name": "getPolicyIdForPatient",
      "outputs": [
        {
          "internalType": "uint256",
          "name": "",
          "type": "uint256"
        }
      ],
      "stateMutability": "view",
      "type": "function",
      "constant": true
    },
    {
      "inputs": [
        {
          "internalType": "address",
          "name": "patient",
          "type": "address"
        }
      ],
      "name": "getPolicyNameForPatient",
      "outputs": [
        {
          "internalType": "string",
          "name": "",
          "type": "string"
        }
      ],
      "stateMutability": "view",
      "type": "function",
      "constant": true
    },
    {
      "inputs": [
        {
          "internalType": "address",
          "name": "patient",
          "type": "address"
        }
      ],
      "name": "getPaymentHistory",
      "outputs": [
        {
          "components": [
            {
              "internalType": "uint256",
              "name": "amount",
              "type": "uint256"
            },
            {
              "internalType": "uint256",
              "name": "paidOn",
              "type": "uint256"
            },
            {
              "internalType": "uint256",
              "name": "monthNumber",
              "type": "uint256"
            },
            {
              "internalType": "string",
              "name": "status",
              "type": "string"
            }
          ],
          "internalType": "struct PolicyContract.PaymentRecord[]",
          "name": "",
          "type": "tuple[]"
        }
      ],
      "stateMutability": "view",
      "type": "function",
      "constant": true
    },
    {
      "inputs": [
        {
          "internalType": "address",
          "name": "patient",
          "type": "address"
        }
      ],
      "name": "checkActivePolicy",
      "outputs": [
        {
          "internalType": "bool",
          "name": "",
          "type": "bool"
        }
      ],
      "stateMutability": "view",
      "type": "function",
      "constant": true
    },
    {
      "inputs": [
        {
          "internalType": "address",
          "name": "patient",
          "type": "address"
        }
      ],
      "name": "isPaymentDue",
      "outputs": [
        {
          "internalType": "bool",
          "name": "",
          "type": "bool"
        }
      ],
      "stateMutability": "view",
      "type": "function",
      "constant": true
    },
    {
      "inputs": [
        {
          "internalType": "address",
          "name": "patient",
          "type": "address"
        }
      ],
      "name": "getDaysUntilDue",
      "outputs": [
        {
          "internalType": "uint256",
          "name": "",
          "type": "uint256"
        }
      ],
      "stateMutability": "view",
      "type": "function",
      "constant": true
    },
    {
      "inputs": [
        {
          "internalType": "address",
          "name": "patient",
          "type": "address"
        }
      ],
      "name": "checkEligibility",
      "outputs": [
        {
          "internalType": "bool",
          "name": "eligible",
          "type": "bool"
        },
        {
          "internalType": "string",
          "name": "policyName",
          "type": "string"
        },
        {
          "internalType": "uint256",
          "name": "coverageLimit",
          "type": "uint256"
        },
        {
          "internalType": "uint256",
          "name": "remainingCoverage",
          "type": "uint256"
        },
        {
          "internalType": "uint256",
          "name": "deductible",
          "type": "uint256"
        },
        {
          "internalType": "bool",
          "name": "deductibleMet",
          "type": "bool"
        },
        {
          "internalType": "uint256",
          "name": "copayPercentage",
          "type": "uint256"
        },
        {
          "internalType": "string",
          "name": "subscriptionStatus",
          "type": "string"
        },
        {
          "internalType": "string",
          "name": "paymentStatus",
          "type": "string"
        },
        {
          "internalType": "string",
          "name": "message",
          "type": "string"
        }
      ],
      "stateMutability": "view",
      "type": "function",
      "constant": true
    },
    {
      "inputs": [
        {
          "internalType": "address",
          "name": "patient",
          "type": "address"
        }
      ],
      "name": "isEligible",
      "outputs": [
        {
          "internalType": "bool",
          "name": "",
          "type": "bool"
        }
      ],
      "stateMutability": "view",
      "type": "function",
      "constant": true
    },
    {
      "inputs": [
        {
          "internalType": "address",
          "name": "patient",
          "type": "address"
        },
        {
          "internalType": "uint256",
          "name": "claimAmount",
          "type": "uint256"
        }
      ],
      "name": "calculateClaimPayout",
      "outputs": [
        {
          "internalType": "uint256",
          "name": "patientPays",
          "type": "uint256"
        },
        {
          "internalType": "uint256",
          "name": "insurerPays",
          "type": "uint256"
        }
      ],
      "stateMutability": "view",
      "type": "function",
      "constant": true
    }
  ],
  "bytecode": "0x6080806040523461002857600080546001600160a01b03191633179055613006908161002e8239f35b600080fdfe608080604052600436101561001357600080fd5b60003560e01c9081630cbebc2414611e5b57508063173b6d9014611e3d5780632b07fce314611c215780633c0ebb7714611bf65780633d1e0c791461155f5780633fa25c9c146112bb578063457e55211461120557806366e305fd146111e25780637425473814610a705780637514e80e146107935780637723bafb146109d35780637da2ba7c1461087357806387afb99b1461083c57806397ad7e021461080f578063ae79e3a1146107d2578063ba97324614610793578063bee42c4e14610770578063cc38b477146106e0578063d3e894831461057e578063dbc837c514610555578063de54d42914610537578063e4502d68146102bd578063f046395a146101925763facc72301461012757600080fd5b3461018d57602036600319011261018d576001600160a01b03610148612059565b16600052600460205261018961016e61017560026040600020016040519283809261223e565b0382612124565b604051918291602083526020830190612092565b0390f35b600080fd5b3461018d57602036600319011261018d576001600160a01b03806101b4612059565b16600052600460205260406000209081541660018201549160405190818060028301906101e09161223e565b036101eb9083612124565b60038101546004820154906005830154600684015460078501549060088601549260405195868060098a01906102209161223e565b0361022b9088612124565b604051978861023d81600a840161223e565b03610248908a612124565b600b0154986040519b8c9b8c5260208c01526101808060408d01528b0161026e91612092565b9560608b015260808a015260a089015260c088015260e08701526101008601528481036101208601526102a091612092565b8381036101408501526102b291612092565b906101608301520390f35b3461018d57604036600319011261018d576102d6612059565b60243560018060a01b0380921680600052602090600682526102ff60ff60406000205416612520565b6000526004815260406000209060405193610319856120b7565b825416845260018201549281850193845260405161033e8161016e816002880161223e565b60408601526003830154606086015260048301546080860152600583015460a0860152600683015460c0860152600783015460e086015260088301549261010093848701526040519461039f86610398816009860161223e565b0387612124565b6101209586880152600b604051926103c5846103be81600a850161223e565b0385612124565b61014093848a01520154610160809801525160005260038352604060002095604051956103f1876120b7565b875487526040516104098161016e8160018d0161223e565b8588015260086002890154966040890197885260038a015460608a015260048a015460808a015260056104468b61016e604051809481930161223e565b60a08a015260405161045f8161016e8160068f0161223e565b60c08a01526040516104788161016e8160078f0161223e565b60e08a01526104988a610491604051809581930161223e565b0383612124565b880152600988015490870152600b600a880154928701978389520154950194855280821160001461052d576104cc91612588565b925b51808402908482041484151715610517576040946104f460646104fa93048092516123d7565b94612588565b915180831161050f575b508351928352820152f35b915084610504565b634e487b7160e01b600052601160045260246000fd5b50506000926104ce565b3461018d57600036600319011261018d576020600154604051908152f35b3461018d57600036600319011261018d576000546040516001600160a01b039091168152602090f35b3461018d57602036600319011261018d5760043560005260036020526040600020805460405191828060018301906105b59161223e565b036105c09084612124565b600281015490600381015490600481015492604051808060058501906105e59161223e565b036105f09082612124565b60405180610601816006870161223e565b0361060c9082612124565b604051918261061e816007880161223e565b036106299084612124565b604051938461063b816008890161223e565b036106469086612124565b600986015497600a87015496600b0154976040519b8c9b8c528b6101806020819201528c0161067491612092565b9260408c015260608b015260808a015288810360a08a015261069591612092565b87810360c08901526106a691612092565b86810360e08801526106b791612092565b8581036101008701526106c991612092565b926101208501526101408401526101608301520390f35b3461018d57604036600319011261018d576106f9612059565b6001600160a01b0316600090815260056020526040902080546024359081101561018d57610726916121e8565b508054610189600360018401549361074d600282015491610491604051809581930161223e565b604051948594855260208501526040840152608060608401526080830190612092565b3461018d57602036600319011261018d5761079161078c612059565b612595565b005b3461018d57602036600319011261018d576001600160a01b036107b4612059565b166000526006602052602060ff604060002054166040519015158152f35b3461018d57602036600319011261018d576001600160a01b036107f3612059565b1660005260046020526020600160406000200154604051908152f35b3461018d57602036600319011261018d57602061083261082d612059565b612774565b6040519015158152f35b3461018d57602036600319011261018d5760043560075481101561018d5761086560209161219b565b90546040519160031b1c8152f35b3461018d5760208060031936011261018d576001600160a01b03610895612059565b166000526005815260406000208054906001600160401b0382116109bd578290604051926108c8838260051b0185612124565b8084528284018092600052836000206000915b8383106109685750505050604051918083019381845251809452604083019360408160051b85010192916000955b8287106109165785850386f35b909192938280610958600193603f198a820301865288518051825283810151848301526040810151604083015260608091015191608080928201520190612092565b9601920196019592919092610909565b60048660019260409998995161097d816120d3565b855481528486015483820152600286015460408201526040516109a78161016e8160038b0161223e565b60608201528152019201920191909594956108db565b634e487b7160e01b600052604160045260246000fd5b3461018d57602036600319011261018d57610a52610a616101896109fd6109f8612059565b61299f565b989a979b95610a29604098969298959395519d8e809e151590528d610140908160208201520190612092565b9560408d015260608c015260808b0152151560a08a015260c089015287820360e0890152612092565b90858203610100870152612092565b90838203610120850152612092565b3461018d5760031960203682011261018d57600435906001600160401b03821161018d5761012090823603011261018d576040519061012082018281106001600160401b038211176109bd5760405280600401356001600160401b03811161018d57610ae29060043691840101612145565b825260248101356020830152604481013560408301526064810135606083015260848101356001600160401b03811161018d57610b259060043691840101612145565b608083015260a48101356001600160401b03811161018d57610b4d9060043691840101612145565b60a083015260c4810135906001600160401b03821161018d57610b796101049260043691840101612145565b60c084015260e481013560e084015201356101008201526000546001600160a01b031633036111a55760646101008201511161116957610bba6001546122d4565b9081600155805191602082015160408301516060840151608085015160a08601519060c08701519260e088015194610100890151966040519a610bfc8c6120b7565b898c5260208c015260408b015260608a0152608089015260a088015260c087015260e0860152610c2a6122e3565b61010086015242610120860152610140850152610160840152600052600360205260406000208251815560208301519283516001600160401b0381116109bd57610c8481610c7b6001860154612204565b60018601612346565b6020601f82116001146110fa5781929394956000926110ef575b50508160011b916000199060031b1c19161760018301555b60408101516002830155606081015160038301556080810151600483015560a08101519283516001600160401b0381116109bd57610d0481610cfb6005870154612204565b60058701612346565b6020601f8211600114611080578192939495600092611075575b50508160011b916000199060031b1c19161760058401555b60c08201519283516001600160401b0381116109bd57610d6681610d5d6006850154612204565b60068501612346565b6020601f8211600114611006578192939495600092610ffb575b50508160011b916000199060031b1c19161760068201555b60e08301519283516001600160401b0381116109bd57610dc881610dbf6007860154612204565b60078601612346565b6020601f8211600114610f8c578192939495600092610f81575b50508160011b916000199060031b1c19161760078301555b6101008101518051906001600160401b0382116109bd57610e2b82610e226008870154612204565b60088701612346565b602090601f8311600114610f0b579180600b949261016094600092610f00575b50508160011b916000199060031b1c19161760088501555b6101208101516009850155610140810151600a85015501519101556001549060075491600160401b8310156109bd57610ec38360017f80968e0cf0f9fbad1f441d6bcbc63de0fe2c2a21dcbd37b22b46e61c7695031f950160075561219b565b819291549060031b91821b91600019901b1916179055600154905190610efb6040519283928352604060208401526040830190612092565b0390a1005b015190508780610e4b565b906008850160005260206000209160005b601f1985168110610f69575092600b94926001926101609583601f19811610610f50575b505050811b016008850155610e63565b015160001960f88460031b161c19169055878080610f40565b91926020600181928685015181550194019201610f1c565b015190508580610de2565b6007840160005260206000209060005b601f1984168110610fe3575060019394959683601f19811610610fca575b505050811b016007830155610dfa565b015160001960f88460031b161c19169055858080610fba565b9091602060018192858b015181550193019101610f9c565b015190508580610d80565b6006830160005260206000209060005b601f198416811061105d575060019394959683601f19811610611044575b505050811b016006820155610d98565b015160001960f88460031b161c19169055858080611034565b9091602060018192858b015181550193019101611016565b015190508580610d1e565b6005850160005260206000209060005b601f19841681106110d7575060019394959683601f198116106110be575b505050811b016005840155610d36565b015160001960f88460031b161c191690558580806110ae565b9091602060018192858b015181550193019101611090565b015190508580610c9e565b6001840160005260206000209060005b601f1984168110611151575060019394959683601f19811610611138575b505050811b016001830155610cb6565b015160001960f88460031b161c19169055858080611128565b9091602060018192858b01518155019301910161110a565b60405162461bcd60e51b8152602060048201526014602482015273436f706179206d75737420626520302d3130302560601b6044820152606490fd5b60405162461bcd60e51b81526020600482015260156024820152744f6e6c7920696e737572657220616c6c6f7765642160581b6044820152606490fd5b3461018d57602036600319011261018d576020610832611200612059565b612e89565b3461018d57600036600319011261018d57604051806007548083526020809301809160076000527fa66cc928b5edb82af9bd49922954155ab7b0942694bea4ce44661d9a8736c6889060005b868282106112a757868661126782880383612124565b604051928392818401908285525180915260408401929160005b82811061129057505050500390f35b835185528695509381019392810192600101611281565b835485529093019260019283019201611251565b600036600319011261018d57336000526020600681526112e260ff60406000205416612520565b3360005260048152604060002090600982016040516113058161016e818561223e565b828151910120611313612565565b838151910120146115245761132d6003840154341461238b565b6007830180546203f47f1981019081116105175742106114e8576000805481908190819081906001600160a01b031634156114de575b3491f1156114d2576004840161137a3482546123d7565b90556008840180546001810180911161051757815581549262278d008401809411610517577fbdb688644eed2e2c7e113449ff1462490659a5767376cf6463769a1f385d5403957fca6a9c37d6ec21bf06f7e76da2608c0ba8c7ca86e2a3626cc570015e82e331239460609455600a8101906113ff6113f98354612204565b8361231c565b60086314185a5960e21b01825561141f6114198454612204565b8461231c565b6006600c6541637469766560d01b01918285550154421015611499575b505050336000526005845261147d60406000208254906040519161145f836120d3565b348352428884015260408301526114746123e4565b85830152612404565b546040519033825234858301526040820152a1604051338152a1005b6113f96114a591612204565b600e66115e1c1a5c995960ca1b018092556114c96114c38254612204565b8261231c565b5585808061143c565b6040513d6000823e3d90fd5b6108fc9150611363565b60405162461bcd60e51b81526004810184905260146024820152735061796d656e74206e6f7420647565207965742160601b6044820152606490fd5b60405162461bcd60e51b8152600481018390526013602482015272506f6c6963792068617320657870697265642160681b6044820152606490fd5b602036600319011261018d5733600052600660205260ff60406000205416611bbb57600435151580611bad575b15611b765760043560005260036020526040600020604051906115ae826120b7565b805482526040516115c68161016e816001860161223e565b60208301526002810154604083015260038101546060830152600b600482015491608084019283526040516116028161016e816005860161223e565b60a085015260405161161b8161016e816006860161223e565b60c08501526040516116348161016e816007860161223e565b60e085015260405161164d8161016e816008860161223e565b6101008501526009810154610120850152600a81015461014085015201546101608301526116806060830151341461238b565b6000805481908190819081906001600160a01b03163415611b6c575b3491f1156114d257516301e1338090818102918183041490151715610517576116c590426123d7565b62278d0042014211610517576020820151906060830151604051926116e9846120b7565b3384526004356020850152604084015260608301523460808301524260a083015260c082015262278d00420160e0820152600161010082015261172a6122e3565b6101208201526117386123e4565b6101408201524261016082015233600052600460205260406000209160018060a01b038251166bffffffffffffffffffffffff60a01b8454161783556020820151600184015560408201519283516001600160401b0381116109bd576117ae816117a56002850154612204565b60028501612346565b6020601f8211600114611afd578192939495600092611af2575b50508160011b916000199060031b1c19161760028201555b606083015160038201556080830151600482015560a0830151600582015560c0830151600682015560e0830151600782015561010083015160088201556101208301519283516001600160401b0381116109bd5761184e816118456009860154612204565b60098601612346565b6020601f8211600114611a83578192939495600092611a78575b50508160011b916000199060031b1c19161760098301555b600a82016101408201518051906001600160401b0382116109bd576118af826118a98554612204565b85612346565b602090601f83116001146119e1576020947f959321a95c528dc7de1165bd02924bd0aa5ba9b46f0100c7fc80ab0ccc823ac997948461199a9895600b95610160956000926119d6575b50508160011b916000199060031b1c19161790555b015191015533600052600682526040600020600160ff198254161790556119356002546122d4565b6002553360005260058252611976604060002060405190611955826120d3565b34825242858301526001604083015261196c6123e4565b6060830152612404565b01516040519182913383526004356020840152606060408401526060830190612092565b0390a17fca6a9c37d6ec21bf06f7e76da2608c0ba8c7ca86e2a3626cc570015e82e33123606060405133815234602082015260016040820152a1005b015190508b806118f8565b90601f198316918460005260206000209260005b818110611a60575094600185600b956101609560209a9561199a9c997f959321a95c528dc7de1165bd02924bd0aa5ba9b46f0100c7fc80ab0ccc823ac99e9b10611a47575b505050811b01905561190d565b015160001960f88460031b161c191690558b8080611a3a565b929360206001819287860151815501950193016119f5565b015190508580611868565b6009840160005260206000209060005b601f1984168110611ada575060019394959683601f19811610611ac1575b505050811b016009830155611880565b015160001960f88460031b161c19169055858080611ab1565b9091602060018192858b015181550193019101611a93565b0151905085806117c8565b6002830160005260206000209060005b601f1984168110611b54575060019394959683601f19811610611b3b575b505050811b0160028201556117e0565b015160001960f88460031b161c19169055858080611b2b565b9091602060018192858b015181550193019101611b0d565b6108fc915061169c565b60405162461bcd60e51b815260206004820152600f60248201526e496e76616c696420706f6c6963792160881b6044820152606490fd5b50600154600435111561158c565b60405162461bcd60e51b8152602060048201526013602482015272416c726561647920737562736372696265642160681b6044820152606490fd5b3461018d57602036600319011261018d576020611c19611c14612059565b61287b565b604051908152f35b3461018d57602036600319011261018d576000610160604051611c43816120b7565b82815260606020820152826040820152826060820152826080820152606060a0820152606060c0820152606060e082015260606101008201528261012082015282610140820152015260043560005260036020526040600020600b60405191611cab836120b7565b80548352604051611cc38161016e816001860161223e565b6020840152600281015460408401526003810154606084015260048101546080840152604051611cfa8161016e816005860161223e565b60a0840152604051611d138161016e816006860161223e565b60c0840152604051611d2c8161016e816007860161223e565b60e0840152604051611d458161016e816008860161223e565b6101008401526009810154610120840152600a810154610140840152015461016082015260405180916020825280516020830152610160611e1a611d9a602084015161018060408701526101a0860190612092565b6040840151606086015260608401516080860152608084015160a0860152611e03611dee611dda60a087015193601f1994858a83030160c08b0152612092565b60c0870151848983030160e08a0152612092565b60e08601518388830301610100890152612092565b906101008501519086830301610120870152612092565b916101208101516101408501526101408101518285015201516101808301520390f35b3461018d57600036600319011261018d576020600254604051908152f35b3461018d57602036600319011261018d576000610160611e79612059565b92611e83816120b7565b828152826020820152606060408201528260608201528260808201528260a08201528260c08201528260e08201528261010082015260606101208201526060610140820152015260018060a01b031660005260046020526040600020600b60405191611eee836120b7565b80546001600160a01b0316835260018101546020840152604051611f198161016e816002860161223e565b60408401526003810154606084015260048101546080840152600581015460a0840152600681015460c0840152600781015460e08401526008810154610100840152604051611f6f8161016e816009860161223e565b610120840152604051611f898161016e81600a860161223e565b610140840152015461016082015260405180916020825260018060a01b0381511660208301526020810151604083015261016061204c611fda604084015161018060608701526101a0860190612092565b60608401516080860152608084015160a086015260a084015160c086015260c084015160e086015260e084015161010086015261010084015161012086015261203761012085015191601f19928388830301610140890152612092565b90610140850151908683030184870152612092565b9101516101808301520390f35b600435906001600160a01b038216820361018d57565b60005b8381106120825750506000910152565b8181015183820152602001612072565b906020916120ab8151809281855285808601910161206f565b601f01601f1916010190565b61018081019081106001600160401b038211176109bd57604052565b608081019081106001600160401b038211176109bd57604052565b604081019081106001600160401b038211176109bd57604052565b606081019081106001600160401b038211176109bd57604052565b90601f801991011681019081106001600160401b038211176109bd57604052565b81601f8201121561018d578035906001600160401b0382116109bd5760405192612179601f8401601f191660200185612124565b8284526020838301011161018d57816000926020809301838601378301015290565b6007548110156121d25760076000527fa66cc928b5edb82af9bd49922954155ab7b0942694bea4ce44661d9a8736c6880190600090565b634e487b7160e01b600052603260045260246000fd5b80548210156121d25760005260206000209060021b0190600090565b90600182811c92168015612234575b602083101461221e57565b634e487b7160e01b600052602260045260246000fd5b91607f1691612213565b906000929180549161224f83612204565b9182825260019384811690816000146122b15750600114612271575b50505050565b90919394506000526020928360002092846000945b83861061229d57505050500101903880808061226b565b805485870183015294019385908201612286565b9294505050602093945060ff191683830152151560051b0101903880808061226b565b60001981146105175760010190565b604051906122f0826120ee565b600682526541637469766560d01b6020830152565b818110612310575050565b60008155600101612305565b90601f8111612329575050565b61234491600052601f6020600020910160051c810190612305565b565b9190601f811161235557505050565b612344926000526020600020906020601f840160051c83019310612381575b601f0160051c0190612305565b9091508190612374565b1561239257565b60405162461bcd60e51b815260206004820152601960248201527f496e636f7272656374207072656d69756d20616d6f756e7421000000000000006044820152606490fd5b9190820180921161051757565b604051906123f1826120ee565b600482526314185a5960e21b6020830152565b8054600160401b8110156109bd576124239060019283820181556121e8565b61250a57825181556060600360209283860151858201556040860151600282015501930151908151916001600160401b0383116109bd5761246e836124688754612204565b87612346565b81601f84116001146124a7575092829391839260009461249c575b50501b916000199060031b1c1916179055565b015192503880612489565b919083601f1981168760005284600020946000905b888383106124f057505050106124d7575b505050811b019055565b015160001960f88460031b161c191690553880806124cd565b8587015188559096019594850194879350908101906124bc565b634e487b7160e01b600052600060045260246000fd5b1561252757565b60405162461bcd60e51b81526020600482015260166024820152754e6f20737562736372697074696f6e20666f756e642160501b6044820152606490fd5b60405190612572826120ee565b6007825266115e1c1a5c995960ca1b6020830152565b9190820391821161051757565b6001600160a01b0316600081815260066020526040808220549193929160ff161561276e57600460205280842091600983019180516125d88161016e818761223e565b602081519101206125e7612565565b602081519101201461276657600684015442101561272f576007840192835462093a80810180911161271b57421161268457505050546203f47f19810190811161267057600a92935042101561265457016126456114c38254612204565b60086314185a5960e21b019055565b016126626114c38254612204565b60066244756560e81b019055565b634e487b7160e01b84526011600452602484fd5b7fda3c39d6d2b202f5c4cadf39cd22e795acd64e2b4bbe61122b92a8b3690a98599596506010929350608094816126c06114c3600a9454612204565b60126814dd5cdc195b99195960ba1b019055016126e06114c38254612204565b600e664f76657264756560c81b0190558051928352602083018190528201526f5061796d656e74206f7665726475652160801b6060820152a1565b634e487b7160e01b88526011600452602488fd5b5050919250600a906127446114198454612204565b600e66115e1c1a5c995960ca1b01809355016127636114c38254612204565b55565b505050509050565b50509050565b60018060a01b0380600092168252600660205260409060ff828420541615612876576004602052610160600b8385208451936127af856120b7565b81541684526001810154602085015284516127d18161016e816002860161223e565b858501526003810154606085015260048101546080850152600581015460a0850152600681015460c085015260078101549460e08501958652600882015461010086015280516128288161016e816009870161223e565b610120860152516128408161016e81600a860161223e565b6101408501520154910152516203f47f19810191908211612862575042101590565b634e487b7160e01b81526011600452602490fd5b505090565b60018060a01b03809116600052600660205260409060ff82600020541615612975576004602052610160600b836000208451936128b7856120b7565b81541684526001810154602085015284516128d98161016e816002860161223e565b858501526003810154606085015260048101546080850152600581015460a0850152600681015460c085015260078101549460e08501958652600882015461010086015280516129308161016e816009870161223e565b610120860152516129488161016e81600a860161223e565b6101408501520154910152518042101561296f5761296b62015180914290612588565b0490565b50600090565b5050600090565b60405190612989826120ee565b60078252664f76657264756560c81b6020830152565b60018060a01b038091166000918183526020926006845260409260ff848320541615612db957815260048452828120928051926129db846120b7565b84541683526001840154858401908152815196876129fc816002890161223e565b03612a079089612124565b8285019788526003860154606086015260048601546080860152600586015460a086015260068601549260c08601938452600787015460e0870152600887015498610100998a880152815194858060098b0190612a639161223e565b03612a6e9087612124565b610120978881019687528351958680600a8d0190612a8b9161223e565b03612a969088612124565b6101409a8b8301978852600b01546101608093015251885260038b52838820845199612ac18b6120b7565b81548b52855180612ad5816001860161223e565b03612ae09082612124565b8d8c015260028201549d868c019e8f52600383015460608d0152600483015460808d0152865180806005860190612b169161223e565b03612b219082612124565b60a08d0152865180612b36816006870161223e565b03612b419082612124565b60c08d0152865180612b56816007870161223e565b03612b619082612124565b60e08d015286519081612b77816008870161223e565b03612b829083612124565b8c01526009820154908b0152600a8101549a8a019a8b52600b0154980197885285518a8151910120612bb26122e3565b8b815191012003612d355784518a8151910120612bcd61297c565b8b815191012014612cc357514211612c5157519851965195519351925191600199987f2e2054726561746d656e742063616e2070726f636565642e0000000000000000899897969594937f50617469656e7420697320656c696769626c6520666f7220636f766572616765815193612c4485612109565b6038855284015282015290565b519851965195519251949897899695879550929075103a379031b7b73a34b73ab29031b7bb32b930b3b29760511b612c87612565565b94937f506f6c6963792068617320657870697265642e20506c656173652072656e6577815193612cb685612109565b6036855284015282015290565b505198519651955193519251918599987f72656d69756d20746f20726573746f726520636f7665726167652e0000000000899897969594937f5061796d656e74206973206f7665726475652e20506c65617365207061792070815193612d2885612109565b603b855284015282015290565b506043612dab919992939899519a5199519751955194519351836902837b634b1bc9034b9960b51b8295830152612d7587518092602a8501908a0161206f565b81017f2e20506c6561736520636f6e7461637420696e73757265722e00000000000000602a820152036023810184520182612124565b849897968596959493929190565b5080939150939180518281018181106001600160401b03821117612e755782528481529380938193829383928151612df0816120ee565b600f81526e27379029bab139b1b934b83a34b7b760891b84820152926f696e737572616e636520706f6c69637960801b8351612e2b816120ee565b60038152624e2f4160e81b83820152937f50617469656e7420646f6573206e6f74206861766520616e2061637469766520815193612e6885612109565b6030855284015282015290565b634e487b7160e01b86526041600452602486fd5b60018060a01b038091166000526020906006825260409160ff83600020541615612fc857600481528260002092805192612ec2846120b7565b84541683526001840154828401528051612ee38161016e816002890161223e565b818401526003840154606084015260048401546080840152600584015460a084015260068401549260c08101938452600785015460e08201526008850154610100820152610160600b835193612f4785612f408160098c0161223e565b0386612124565b61012084019485525196612f6988612f6281600a850161223e565b0389612124565b6101408401978852015491015251818151910120612f856122e3565b828151910120149283612fa7575b505081612f9e575090565b90505142111590565b51805190820120919250612fb961297c565b80519101201415903880612f93565b50505060009056fea264697066735822122031096c121200b1762ed8064f53778010ea667446c9cb23c57f451eda62ad185264736f6c63430008130033",
  "immutableReferences": {},
  "source": "// SPDX-License-Identifier: MIT\r\npragma solidity ^0.8.0;\r\n\r\ncontract PolicyContract {\r\n\r\n    address public insurer;\r\n\r\n    struct PolicyInput {\r\n        string  policyName;\r\n        uint256 coverageLimit;\r\n        uint256 premiumAmount;\r\n        uint256 validityPeriod;\r\n        string  ipfsCID;\r\n        string  covered;\r\n        string  excluded;\r\n        uint256 deductible;\r\n        uint256 copayPercentage;\r\n    }\r\n\r\n    struct Policy {\r\n        uint256 policyId;\r\n        string  policyName;\r\n        uint256 coverageLimit;\r\n        uint256 premiumAmount;\r\n        uint256 validityPeriod;\r\n        string  ipfsCID;\r\n        string  covered;\r\n        string  excluded;\r\n        string  status;\r\n        uint256 timestamp;\r\n        uint256 deductible;\r\n        uint256 copayPercentage;\r\n    }\r\n\r\n    struct Subscription {\r\n        address patientAddress;\r\n        uint256 policyId;\r\n        string  policyName;\r\n        uint256 premiumAmount;\r\n        uint256 totalPaid;\r\n        uint256 startDate;\r\n        uint256 endDate;\r\n        uint256 nextDueDate;\r\n        uint256 monthsPaid;\r\n        string  subscriptionStatus;\r\n        string  paymentStatus;\r\n        uint256 timestamp;\r\n    }\r\n\r\n    struct PaymentRecord {\r\n        uint256 amount;\r\n        uint256 paidOn;\r\n        uint256 monthNumber;\r\n        string  status;\r\n    }\r\n\r\n    uint256 public policyCount;\r\n    uint256 public subscriptionCount;\r\n\r\n    mapping(uint256 => Policy)          public policies;\r\n    mapping(address => Subscription)    public subscriptions;\r\n    mapping(address => PaymentRecord[]) public paymentHistory;\r\n    mapping(address => bool)            public hasSubscription;\r\n\r\n    uint256[] public allPolicyIds;\r\n\r\n    event PolicyCreated(uint256 policyId, string policyName);\r\n    event PolicySubscribed(address patient, uint256 policyId, string policyName);\r\n    event MonthlyPremiumPaid(address patient, uint256 amount, uint256 monthNumber);\r\n    event PolicySuspended(address patient, string reason);\r\n    event PolicyReactivated(address patient);\r\n\r\n    modifier onlyInsurer() {\r\n        require(msg.sender == insurer, \"Only insurer allowed!\");\r\n        _;\r\n    }\r\n\r\n    modifier hasActiveSub() {\r\n        require(hasSubscription[msg.sender], \"No subscription found!\");\r\n        _;\r\n    }\r\n\r\n    constructor() {\r\n        insurer = msg.sender;\r\n    }\r\n\r\n    function createPolicy(PolicyInput memory input) public onlyInsurer {\r\n        require(input.copayPercentage <= 100, \"Copay must be 0-100%\");\r\n        policyCount++;\r\n        policies[policyCount] = Policy({\r\n            policyId:        policyCount,\r\n            policyName:      input.policyName,\r\n            coverageLimit:   input.coverageLimit,\r\n            premiumAmount:   input.premiumAmount,\r\n            validityPeriod:  input.validityPeriod,\r\n            ipfsCID:         input.ipfsCID,\r\n            covered:         input.covered,\r\n            excluded:        input.excluded,\r\n            status:          \"Active\",\r\n            timestamp:       block.timestamp,\r\n            deductible:      input.deductible,\r\n            copayPercentage: input.copayPercentage\r\n        });\r\n        allPolicyIds.push(policyCount);\r\n        emit PolicyCreated(policyCount, input.policyName);\r\n    }\r\n\r\n    function subscribePolicy(uint256 policyId) public payable {\r\n        require(!hasSubscription[msg.sender], \"Already subscribed!\");\r\n        require(policyId > 0 && policyId <= policyCount, \"Invalid policy!\");\r\n        Policy memory p = policies[policyId];\r\n        require(msg.value == p.premiumAmount, \"Incorrect premium amount!\");\r\n        payable(insurer).transfer(msg.value);\r\n        uint256 start       = block.timestamp;\r\n        uint256 end         = block.timestamp + (p.validityPeriod * 365 days);\r\n        uint256 nextDueDate = block.timestamp + 30 days;\r\n        subscriptions[msg.sender] = Subscription({\r\n            patientAddress:     msg.sender,\r\n            policyId:           policyId,\r\n            policyName:         p.policyName,\r\n            premiumAmount:      p.premiumAmount,\r\n            totalPaid:          msg.value,\r\n            startDate:          start,\r\n            endDate:            end,\r\n            nextDueDate:        nextDueDate,\r\n            monthsPaid:         1,\r\n            subscriptionStatus: \"Active\",\r\n            paymentStatus:      \"Paid\",\r\n            timestamp:          block.timestamp\r\n        });\r\n        hasSubscription[msg.sender] = true;\r\n        subscriptionCount++;\r\n        paymentHistory[msg.sender].push(PaymentRecord({\r\n            amount:      msg.value,\r\n            paidOn:      block.timestamp,\r\n            monthNumber: 1,\r\n            status:      \"Paid\"\r\n        }));\r\n        emit PolicySubscribed(msg.sender, policyId, p.policyName);\r\n        emit MonthlyPremiumPaid(msg.sender, msg.value, 1);\r\n    }\r\n\r\n    function payMonthlyPremium() public payable hasActiveSub {\r\n        Subscription storage sub = subscriptions[msg.sender];\r\n        require(keccak256(bytes(sub.subscriptionStatus)) != keccak256(bytes(\"Expired\")), \"Policy has expired!\");\r\n        require(msg.value == sub.premiumAmount, \"Incorrect premium amount!\");\r\n        require(block.timestamp >= sub.nextDueDate - 3 days, \"Payment not due yet!\");\r\n        payable(insurer).transfer(msg.value);\r\n        sub.totalPaid          += msg.value;\r\n        sub.monthsPaid         += 1;\r\n        sub.nextDueDate        += 30 days;\r\n        sub.paymentStatus       = \"Paid\";\r\n        sub.subscriptionStatus  = \"Active\";\r\n        if (block.timestamp >= sub.endDate) {\r\n            sub.subscriptionStatus = \"Expired\";\r\n            sub.paymentStatus      = \"Expired\";\r\n        }\r\n        paymentHistory[msg.sender].push(PaymentRecord({\r\n            amount:      msg.value,\r\n            paidOn:      block.timestamp,\r\n            monthNumber: sub.monthsPaid,\r\n            status:      \"Paid\"\r\n        }));\r\n        emit MonthlyPremiumPaid(msg.sender, msg.value, sub.monthsPaid);\r\n        emit PolicyReactivated(msg.sender);\r\n    }\r\n\r\n    function checkPaymentStatus(address patient) public {\r\n        if (!hasSubscription[patient]) return;\r\n        Subscription storage sub = subscriptions[patient];\r\n        if (keccak256(bytes(sub.subscriptionStatus)) == keccak256(bytes(\"Expired\"))) return;\r\n        if (block.timestamp >= sub.endDate) {\r\n            sub.subscriptionStatus = \"Expired\";\r\n            sub.paymentStatus      = \"Expired\";\r\n            return;\r\n        }\r\n        if (block.timestamp > sub.nextDueDate + 7 days) {\r\n            sub.subscriptionStatus = \"Suspended\";\r\n            sub.paymentStatus      = \"Overdue\";\r\n            emit PolicySuspended(patient, \"Payment overdue!\");\r\n            return;\r\n        }\r\n        if (block.timestamp >= sub.nextDueDate - 3 days) {\r\n            sub.paymentStatus = \"Due\";\r\n            return;\r\n        }\r\n        sub.paymentStatus = \"Paid\";\r\n    }\r\n\r\n    function getAllPolicies() public view returns (uint256[] memory) {\r\n        return allPolicyIds;\r\n    }\r\n\r\n    function getPolicy(uint256 policyId) public view returns (Policy memory) {\r\n        return policies[policyId];\r\n    }\r\n\r\n    function getSubscription(address patient) public view returns (Subscription memory) {\r\n        return subscriptions[patient];\r\n    }\r\n\r\n    function getPolicyIdForPatient(address patient) public view returns (uint256) {\r\n        return subscriptions[patient].policyId;\r\n    }\r\n\r\n    function getPolicyNameForPatient(address patient) public view returns (string memory) {\r\n        return subscriptions[patient].policyName;\r\n    }\r\n\r\n    function getPaymentHistory(address patient) public view returns (PaymentRecord[] memory) {\r\n        return paymentHistory[patient];\r\n    }\r\n\r\n    function checkActivePolicy(address patient) public view returns (bool) {\r\n        return hasSubscription[patient];\r\n    }\r\n\r\n    function isPaymentDue(address patient) public view returns (bool) {\r\n        if (!hasSubscription[patient]) return false;\r\n        Subscription memory sub = subscriptions[patient];\r\n        return block.timestamp >= sub.nextDueDate - 3 days;\r\n    }\r\n\r\n    function getDaysUntilDue(address patient) public view returns (uint256) {\r\n        if (!hasSubscription[patient]) return 0;\r\n        Subscription memory sub = subscriptions[patient];\r\n        if (block.timestamp >= sub.nextDueDate) return 0;\r\n        return (sub.nextDueDate - block.timestamp) / 1 days;\r\n    }\r\n\r\n    // ================================\r\n    // ELIGIBILITY CHECK\r\n    // ================================\r\n\r\n    function checkEligibility(address patient) public view returns (\r\n        bool   eligible,\r\n        string memory policyName,\r\n        uint256 coverageLimit,\r\n        uint256 remainingCoverage,\r\n        uint256 deductible,\r\n        bool   deductibleMet,\r\n        uint256 copayPercentage,\r\n        string memory subscriptionStatus,\r\n        string memory paymentStatus,\r\n        string memory message\r\n    ) {\r\n        if (!hasSubscription[patient]) {\r\n            return (false, \"\", 0, 0, 0, false, 0, \"No Subscription\", \"N/A\",\r\n                \"Patient does not have an active insurance policy\");\r\n        }\r\n        Subscription memory sub = subscriptions[patient];\r\n        Policy memory policy    = policies[sub.policyId];\r\n\r\n        if (keccak256(bytes(sub.subscriptionStatus)) != keccak256(bytes(\"Active\"))) {\r\n            return (false, sub.policyName, policy.coverageLimit, 0, policy.deductible, false,\r\n                policy.copayPercentage, sub.subscriptionStatus, sub.paymentStatus,\r\n                string(abi.encodePacked(\"Policy is \", sub.subscriptionStatus, \". Please contact insurer.\")));\r\n        }\r\n        if (keccak256(bytes(sub.paymentStatus)) == keccak256(bytes(\"Overdue\"))) {\r\n            return (false, sub.policyName, policy.coverageLimit, policy.coverageLimit,\r\n                policy.deductible, false, policy.copayPercentage, sub.subscriptionStatus,\r\n                sub.paymentStatus, \"Payment is overdue. Please pay premium to restore coverage.\");\r\n        }\r\n        if (block.timestamp > sub.endDate) {\r\n            return (false, sub.policyName, policy.coverageLimit, 0, policy.deductible, false,\r\n                policy.copayPercentage, \"Expired\", sub.paymentStatus,\r\n                \"Policy has expired. Please renew to continue coverage.\");\r\n        }\r\n        return (true, sub.policyName, policy.coverageLimit, policy.coverageLimit,\r\n            policy.deductible, false, policy.copayPercentage, sub.subscriptionStatus,\r\n            sub.paymentStatus, \"Patient is eligible for coverage. Treatment can proceed.\");\r\n    }\r\n\r\n    function isEligible(address patient) public view returns (bool) {\r\n        if (!hasSubscription[patient]) return false;\r\n        Subscription memory sub = subscriptions[patient];\r\n        return (\r\n            keccak256(bytes(sub.subscriptionStatus)) == keccak256(bytes(\"Active\")) &&\r\n            keccak256(bytes(sub.paymentStatus))      != keccak256(bytes(\"Overdue\")) &&\r\n            block.timestamp <= sub.endDate\r\n        );\r\n    }\r\n\r\n    // ================================\r\n    // CLAIM PAYOUT CALCULATION\r\n    // ================================\r\n\r\n    function calculateClaimPayout(address patient, uint256 claimAmount) public view returns (\r\n        uint256 patientPays,\r\n        uint256 insurerPays\r\n    ) {\r\n        require(hasSubscription[patient], \"No subscription found!\");\r\n        Subscription memory sub = subscriptions[patient];\r\n        Policy memory policy    = policies[sub.policyId];\r\n\r\n        uint256 afterDeductible = claimAmount > policy.deductible\r\n            ? claimAmount - policy.deductible : 0;\r\n        uint256 copayAmount = (afterDeductible * policy.copayPercentage) / 100;\r\n        patientPays = policy.deductible + copayAmount;\r\n        insurerPays = afterDeductible - copayAmount;\r\n        if (insurerPays > policy.coverageLimit) {\r\n            insurerPays = policy.coverageLimit;\r\n        }\r\n    }\r\n}\r\n",
  "sourcePath": "D:\\MedInsure_mid\\contracts\\PolicyContract.sol",
  "compiler": {
    "name": "solc",
    "version": "0.8.19+commit.7dd6d404.Emscripten.clang"
  },
  "schemaVersion": "3.4.16",
  "updatedAt": "2026-04-04T20:26:54.171Z",
  "networkType": "ethereum",
  "devdoc": {
    "kind": "dev",
    "methods": {},
    "version": 1
  },
  "userdoc": {
    "kind": "user",
    "methods": {},
    "version": 1
  }
}