{
  "contractName": "ClaimContract",
  "abi": [
    {
      "inputs": [
        {
          "internalType": "address",
          "name": "_policyContract",
          "type": "address"
        },
        {
          "internalType": "address",
          "name": "_hospitalRegistry",
          "type": "address"
        },
        {
          "internalType": "address",
          "name": "_userRegistry",
          "type": "address"
        }
      ],
      "stateMutability": "nonpayable",
      "type": "constructor"
    },
    {
      "anonymous": false,
      "inputs": [
        {
          "indexed": false,
          "internalType": "uint256",
          "name": "claimId",
          "type": "uint256"
        },
        {
          "indexed": false,
          "internalType": "address",
          "name": "hospital",
          "type": "address"
        },
        {
          "indexed": false,
          "internalType": "uint256",
          "name": "payout",
          "type": "uint256"
        }
      ],
      "name": "ClaimApproved",
      "type": "event"
    },
    {
      "anonymous": false,
      "inputs": [
        {
          "indexed": false,
          "internalType": "uint256",
          "name": "claimId",
          "type": "uint256"
        },
        {
          "indexed": false,
          "internalType": "address",
          "name": "patient",
          "type": "address"
        }
      ],
      "name": "ClaimCancelled",
      "type": "event"
    },
    {
      "anonymous": false,
      "inputs": [
        {
          "indexed": false,
          "internalType": "uint256",
          "name": "claimId",
          "type": "uint256"
        },
        {
          "indexed": false,
          "internalType": "address",
          "name": "patient",
          "type": "address"
        }
      ],
      "name": "ClaimConfirmed",
      "type": "event"
    },
    {
      "anonymous": false,
      "inputs": [
        {
          "indexed": false,
          "internalType": "uint256",
          "name": "claimId",
          "type": "uint256"
        },
        {
          "indexed": false,
          "internalType": "string",
          "name": "reason",
          "type": "string"
        }
      ],
      "name": "ClaimRejected",
      "type": "event"
    },
    {
      "anonymous": false,
      "inputs": [
        {
          "indexed": false,
          "internalType": "uint256",
          "name": "claimId",
          "type": "uint256"
        },
        {
          "indexed": false,
          "internalType": "address",
          "name": "patient",
          "type": "address"
        },
        {
          "indexed": false,
          "internalType": "address",
          "name": "hospital",
          "type": "address"
        },
        {
          "indexed": false,
          "internalType": "uint256",
          "name": "amount",
          "type": "uint256"
        }
      ],
      "name": "ClaimSubmitted",
      "type": "event"
    },
    {
      "anonymous": false,
      "inputs": [
        {
          "indexed": false,
          "internalType": "address",
          "name": "insurer",
          "type": "address"
        },
        {
          "indexed": false,
          "internalType": "uint256",
          "name": "amount",
          "type": "uint256"
        }
      ],
      "name": "FundsDeposited",
      "type": "event"
    },
    {
      "anonymous": false,
      "inputs": [
        {
          "indexed": false,
          "internalType": "address",
          "name": "insurer",
          "type": "address"
        },
        {
          "indexed": false,
          "internalType": "uint256",
          "name": "amount",
          "type": "uint256"
        }
      ],
      "name": "FundsWithdrawn",
      "type": "event"
    },
    {
      "inputs": [
        {
          "internalType": "uint256",
          "name": "",
          "type": "uint256"
        }
      ],
      "name": "allClaimIds",
      "outputs": [
        {
          "internalType": "uint256",
          "name": "",
          "type": "uint256"
        }
      ],
      "stateMutability": "view",
      "type": "function",
      "constant": true
    },
    {
      "inputs": [],
      "name": "claimCount",
      "outputs": [
        {
          "internalType": "uint256",
          "name": "",
          "type": "uint256"
        }
      ],
      "stateMutability": "view",
      "type": "function",
      "constant": true
    },
    {
      "inputs": [
        {
          "internalType": "uint256",
          "name": "",
          "type": "uint256"
        }
      ],
      "name": "claims",
      "outputs": [
        {
          "internalType": "uint256",
          "name": "claimId",
          "type": "uint256"
        },
        {
          "internalType": "address",
          "name": "patientAddress",
          "type": "address"
        },
        {
          "internalType": "address",
          "name": "hospitalAddress",
          "type": "address"
        },
        {
          "internalType": "string",
          "name": "patientName",
          "type": "string"
        },
        {
          "internalType": "string",
          "name": "hospitalName",
          "type": "string"
        },
        {
          "internalType": "uint256",
          "name": "policyId",
          "type": "uint256"
        },
        {
          "internalType": "string",
          "name": "policyName",
          "type": "string"
        },
        {
          "internalType": "string",
          "name": "treatmentName",
          "type": "string"
        },
        {
          "internalType": "string",
          "name": "treatmentDate",
          "type": "string"
        },
        {
          "internalType": "string",
          "name": "description",
          "type": "string"
        },
        {
          "internalType": "uint256",
          "name": "claimAmount",
          "type": "uint256"
        },
        {
          "internalType": "uint256",
          "name": "patientPays",
          "type": "uint256"
        },
        {
          "internalType": "uint256",
          "name": "insurerPays",
          "type": "uint256"
        },
        {
          "internalType": "string",
          "name": "ipfsCID",
          "type": "string"
        },
        {
          "internalType": "string",
          "name": "status",
          "type": "string"
        },
        {
          "internalType": "string",
          "name": "rejectionReason",
          "type": "string"
        },
        {
          "internalType": "uint256",
          "name": "submittedOn",
          "type": "uint256"
        },
        {
          "internalType": "uint256",
          "name": "confirmedOn",
          "type": "uint256"
        },
        {
          "internalType": "uint256",
          "name": "settledOn",
          "type": "uint256"
        }
      ],
      "stateMutability": "view",
      "type": "function",
      "constant": true
    },
    {
      "inputs": [],
      "name": "contractBalance",
      "outputs": [
        {
          "internalType": "uint256",
          "name": "",
          "type": "uint256"
        }
      ],
      "stateMutability": "view",
      "type": "function",
      "constant": true
    },
    {
      "inputs": [
        {
          "internalType": "address",
          "name": "",
          "type": "address"
        }
      ],
      "name": "hasPendingClaim",
      "outputs": [
        {
          "internalType": "bool",
          "name": "",
          "type": "bool"
        }
      ],
      "stateMutability": "view",
      "type": "function",
      "constant": true
    },
    {
      "inputs": [
        {
          "internalType": "address",
          "name": "",
          "type": "address"
        },
        {
          "internalType": "uint256",
          "name": "",
          "type": "uint256"
        }
      ],
      "name": "hospitalClaims",
      "outputs": [
        {
          "internalType": "uint256",
          "name": "",
          "type": "uint256"
        }
      ],
      "stateMutability": "view",
      "type": "function",
      "constant": true
    },
    {
      "inputs": [],
      "name": "hospitalRegistry",
      "outputs": [
        {
          "internalType": "contract IHospitalRegistry",
          "name": "",
          "type": "address"
        }
      ],
      "stateMutability": "view",
      "type": "function",
      "constant": true
    },
    {
      "inputs": [],
      "name": "insurer",
      "outputs": [
        {
          "internalType": "address",
          "name": "",
          "type": "address"
        }
      ],
      "stateMutability": "view",
      "type": "function",
      "constant": true
    },
    {
      "inputs": [
        {
          "internalType": "address",
          "name": "",
          "type": "address"
        },
        {
          "internalType": "uint256",
          "name": "",
          "type": "uint256"
        }
      ],
      "name": "patientClaims",
      "outputs": [
        {
          "internalType": "uint256",
          "name": "",
          "type": "uint256"
        }
      ],
      "stateMutability": "view",
      "type": "function",
      "constant": true
    },
    {
      "inputs": [],
      "name": "policyContract",
      "outputs": [
        {
          "internalType": "contract IPolicyContract",
          "name": "",
          "type": "address"
        }
      ],
      "stateMutability": "view",
      "type": "function",
      "constant": true
    },
    {
      "inputs": [],
      "name": "userRegistry",
      "outputs": [
        {
          "internalType": "contract IUserRegistry",
          "name": "",
          "type": "address"
        }
      ],
      "stateMutability": "view",
      "type": "function",
      "constant": true
    },
    {
      "stateMutability": "payable",
      "type": "receive",
      "payable": true
    },
    {
      "inputs": [
        {
          "internalType": "address",
          "name": "patientAddress",
          "type": "address"
        },
        {
          "internalType": "string",
          "name": "treatmentName",
          "type": "string"
        },
        {
          "internalType": "string",
          "name": "treatmentDate",
          "type": "string"
        },
        {
          "internalType": "string",
          "name": "description",
          "type": "string"
        },
        {
          "internalType": "uint256",
          "name": "claimAmount",
          "type": "uint256"
        },
        {
          "internalType": "string",
          "name": "ipfsCID",
          "type": "string"
        }
      ],
      "name": "submitClaim",
      "outputs": [],
      "stateMutability": "nonpayable",
      "type": "function"
    },
    {
      "inputs": [
        {
          "internalType": "uint256",
          "name": "claimId",
          "type": "uint256"
        }
      ],
      "name": "confirmClaim",
      "outputs": [],
      "stateMutability": "nonpayable",
      "type": "function"
    },
    {
      "inputs": [
        {
          "internalType": "uint256",
          "name": "claimId",
          "type": "uint256"
        }
      ],
      "name": "cancelClaim",
      "outputs": [],
      "stateMutability": "nonpayable",
      "type": "function"
    },
    {
      "inputs": [
        {
          "internalType": "uint256",
          "name": "claimId",
          "type": "uint256"
        }
      ],
      "name": "approveClaim",
      "outputs": [],
      "stateMutability": "nonpayable",
      "type": "function"
    },
    {
      "inputs": [
        {
          "internalType": "uint256",
          "name": "claimId",
          "type": "uint256"
        },
        {
          "internalType": "string",
          "name": "reason",
          "type": "string"
        }
      ],
      "name": "rejectClaim",
      "outputs": [],
      "stateMutability": "nonpayable",
      "type": "function"
    },
    {
      "inputs": [],
      "name": "depositFunds",
      "outputs": [],
      "stateMutability": "payable",
      "type": "function",
      "payable": true
    },
    {
      "inputs": [
        {
          "internalType": "uint256",
          "name": "amount",
          "type": "uint256"
        }
      ],
      "name": "withdrawFunds",
      "outputs": [],
      "stateMutability": "nonpayable",
      "type": "function"
    },
    {
      "inputs": [],
      "name": "getContractBalance",
      "outputs": [
        {
          "internalType": "uint256",
          "name": "",
          "type": "uint256"
        }
      ],
      "stateMutability": "view",
      "type": "function",
      "constant": true
    },
    {
      "inputs": [
        {
          "internalType": "uint256",
          "name": "claimId",
          "type": "uint256"
        }
      ],
      "name": "getClaim",
      "outputs": [
        {
          "components": [
            {
              "internalType": "uint256",
              "name": "claimId",
              "type": "uint256"
            },
            {
              "internalType": "address",
              "name": "patientAddress",
              "type": "address"
            },
            {
              "internalType": "address",
              "name": "hospitalAddress",
              "type": "address"
            },
            {
              "internalType": "string",
              "name": "patientName",
              "type": "string"
            },
            {
              "internalType": "string",
              "name": "hospitalName",
              "type": "string"
            },
            {
              "internalType": "uint256",
              "name": "policyId",
              "type": "uint256"
            },
            {
              "internalType": "string",
              "name": "policyName",
              "type": "string"
            },
            {
              "internalType": "string",
              "name": "treatmentName",
              "type": "string"
            },
            {
              "internalType": "string",
              "name": "treatmentDate",
              "type": "string"
            },
            {
              "internalType": "string",
              "name": "description",
              "type": "string"
            },
            {
              "internalType": "uint256",
              "name": "claimAmount",
              "type": "uint256"
            },
            {
              "internalType": "uint256",
              "name": "patientPays",
              "type": "uint256"
            },
            {
              "internalType": "uint256",
              "name": "insurerPays",
              "type": "uint256"
            },
            {
              "internalType": "string",
              "name": "ipfsCID",
              "type": "string"
            },
            {
              "internalType": "string",
              "name": "status",
              "type": "string"
            },
            {
              "internalType": "string",
              "name": "rejectionReason",
              "type": "string"
            },
            {
              "internalType": "uint256",
              "name": "submittedOn",
              "type": "uint256"
            },
            {
              "internalType": "uint256",
              "name": "confirmedOn",
              "type": "uint256"
            },
            {
              "internalType": "uint256",
              "name": "settledOn",
              "type": "uint256"
            }
          ],
          "internalType": "struct ClaimContract.Claim",
          "name": "",
          "type": "tuple"
        }
      ],
      "stateMutability": "view",
      "type": "function",
      "constant": true
    },
    {
      "inputs": [],
      "name": "getAllClaims",
      "outputs": [
        {
          "internalType": "uint256[]",
          "name": "",
          "type": "uint256[]"
        }
      ],
      "stateMutability": "view",
      "type": "function",
      "constant": true
    },
    {
      "inputs": [
        {
          "internalType": "address",
          "name": "patient",
          "type": "address"
        }
      ],
      "name": "getPatientClaims",
      "outputs": [
        {
          "internalType": "uint256[]",
          "name": "",
          "type": "uint256[]"
        }
      ],
      "stateMutability": "view",
      "type": "function",
      "constant": true
    },
    {
      "inputs": [
        {
          "internalType": "address",
          "name": "hospital",
          "type": "address"
        }
      ],
      "name": "getHospitalClaims",
      "outputs": [
        {
          "internalType": "uint256[]",
          "name": "",
          "type": "uint256[]"
        }
      ],
      "stateMutability": "view",
      "type": "function",
      "constant": true
    },
    {
      "inputs": [
        {
          "internalType": "string",
          "name": "status",
          "type": "string"
        }
      ],
      "name": "getClaimsByStatus",
      "outputs": [
        {
          "internalType": "uint256[]",
          "name": "",
          "type": "uint256[]"
        }
      ],
      "stateMutability": "view",
      "type": "function",
      "constant": true
    },
    {
      "inputs": [],
      "name": "getClaimCount",
      "outputs": [
        {
          "internalType": "uint256",
          "name": "",
          "type": "uint256"
        }
      ],
      "stateMutability": "view",
      "type": "function",
      "constant": true
    },
    {
      "inputs": [
        {
          "internalType": "address",
          "name": "patient",
          "type": "address"
        }
      ],
      "name": "checkHasPendingClaim",
      "outputs": [
        {
          "internalType": "bool",
          "name": "",
          "type": "bool"
        }
      ],
      "stateMutability": "view",
      "type": "function",
      "constant": true
    }
  ],
  "bytecode": "0x608034620000b657601f62002bee38819003918201601f19168301916001600160401b03831184841017620000bb57808492606094604052833981010312620000b6576200004d81620000d1565b906200006a60406200006260208401620000d1565b9201620000d1565b60018060a01b0319923384600054161760005560018060a01b0392838092168560015416176001551683600254161760025516906003541617600355604051612b079081620000e78239f35b600080fd5b634e487b7160e01b600052604160045260246000fd5b51906001600160a01b0382168203620000b65756fe610140604052600436101561002b575b361561001a57600080fd5b61002634600554612aad565b600555005b60003560e01c8063155dd5ee146124c357806325fc3e4c1461249a5780633577a5ad14612251578063388a29741461220757806346e301351461207b5780635a9aa4e7146101db5780635aef244714611cf25780635b23c27d14611c775780635c7460d614611c4e57806369b80fc914611c255780636f9fb98a14611c095780637ff0635714611be05780638b7afe2e14611bc25780638da4d3c9146102f75780639dc5e02f14611a3f5780639f176fdb1461098e578063a377610d1461082c578063a888c2cd14610578578063ac16863014610500578063b2dacc02146104a8578063b97533f914610315578063ba4611d9146102f7578063dbc837c5146102ce578063e2c41dbc1461021a578063e644924b146101db5763f10b61aa0361000f57346101d6576020806003193601126101d6576001600160a01b036101706126f9565b1660005260088152604060002090604051908181845491828152019360005281600020916000905b8282106101bf576101bb856101af81890382612676565b60405191829182612757565b0390f35b835486529485019460019384019390910190610198565b600080fd5b346101d65760203660031901126101d6576001600160a01b036101fc6126f9565b166000526009602052602060ff604060002054166040519015158152f35b60003660031901126101d65761023b60018060a01b03600054163314612a02565b34156102895761024d34600554612aad565b600555604080513381523460208201527f543ba50a5eec5e6178218e364b1d0f396157b3c8fa278522c2cb7fd99407d47491819081015b0390a1005b60405162461bcd60e51b815260206004820152601960248201527f4d757374206465706f736974206d6f7265207468616e203021000000000000006044820152606490fd5b346101d65760003660031901126101d6576000546040516001600160a01b039091168152602090f35b346101d65760003660031901126101d6576020600454604051908152f35b346101d6576020806003193601126101d6576004356001600160401b0381116101d6576103469036906004016126b2565b600a54600091838101835b838110610444575061036284612aba565b936103706040519586612676565b80855261037f601f1991612aba565b01368686013760009160005b8481106103a057604051806101bb8882612757565b6103a9816125f0565b9054600391821b1c600052600688526103d26103d9600e604060002001604051928380926127cc565b0382612676565b88815191012083518520146103f8575b506103f3906128db565b61038b565b6104038295926125f0565b9054911b1c865182101561042e578161042791896103f39460051b8a0101526128db565b93906103e9565b634e487b7160e01b600052603260045260246000fd5b61044d816125f0565b90549060031b1c600052600686526103d2610475600e604060002001604051928380926127cc565b8681519101208351832014610493575b61048e906128db565b610351565b936104a061048e916128db565b949050610485565b346101d65760403660031901126101d6576104c16126f9565b6001600160a01b03166000908152600860205260409020805460243591908210156101d6576020916104f291612627565b90546040519160031b1c8152f35b346101d6576020806003193601126101d6576001600160a01b036105226126f9565b1660005260078152604060002090604051908181845491828152019360005281600020916000905b828210610561576101bb856101af81890382612676565b83548652948501946001938401939091019061054a565b346101d65760203660031901126101d65760043560005260066020526040600020805460e0528080600160a01b60019003806001830154169060028301541660805260405190818060038501906105ce916127cc565b036105d99083612676565b60405191826105eb81600487016127cc565b036105f69084612676565b60058401546040518061060c81600689016127cc565b036106179082612676565b604051806106288160078a016127cc565b036106339082612676565b60405191826106458160088b016127cc565b036106509084612676565b60405193846106628160098c016127cc565b0361066d9086612676565b600a89015497600b8a015496600c8b01549860405180600d819e0190610692916127cc565b0361069d908d612676565b60405180809e600e829101906106b2916127cc565b036106bc91612676565b6040519d8e806106cf81600f85016127cc565b036106d991612676565b601081015460a0526011810154610100526012015460c052604051806101205260e051905261012051602001526080516101205160400152610260806101205160600152610120510161072b91612732565b61012051808203906080015261074091612732565b906101205160a00152610120518082039060c0015261075e91612732565b610120518082039060e0015261077391612732565b6101205180820390610100015261078991612732565b6101205180820390610120015261079f91612732565b9261012051610140015261012051610160015261012051610180015261012051808203906101a001526107d191612732565b61012051808203906101c001526107e791612732565b61012051808203906101e001526107fd91612732565b60a0516101205161020001526101005161012051610220015260c0516101205161024001526101205180910390f35b346101d6576020806003193601126101d65760043590816000526006815260406000209061085c825415156129c3565b60018201546001600160a01b0316330361094a57600e820190604051610886816103d281866127cc565b8181519101206108946128ea565b82815191012003610907577f1da7cf4c762ca601d655733d36f8f1f9da5907eeea190bc8a9463a407c05aab26102848585856108d96108d38254612792565b82612931565b600e6650656e64696e6760c81b01905542601191909101556040805191825233602083015290918291820190565b6064906040519062461bcd60e51b825280600483015260248201527f436c61696d206e6f74206177616974696e6720636f6e6669726d6174696f6e216044820152fd5b6064906040519062461bcd60e51b82526004820152601960248201527f4f6e6c792070617469656e742063616e20636f6e6669726d21000000000000006044820152fd5b346101d65760c03660031901126101d6576109a76126f9565b6024356001600160401b0381116101d6576109c69036906004016126b2565b6044356001600160401b0381116101d6576109e59036906004016126b2565b906064356001600160401b0381116101d657610a059036906004016126b2565b60a4356001600160401b0381116101d657610a249036906004016126b2565b9060018060a01b036002541693604051630afa082360e01b8152336004820152602081602481895afa9081156116ae57600091611a20575b50156119e257600354604051631e2b366f60e31b81526001600160a01b0388811660048301529091169290602081602481875afa9081156116ae576000916119c3575b501561197e576040516379ccb6c560e11b81526001600160a01b0388166004820152602081602481875afa9081156116ae5760009161195f575b501561191a57600154604051633a8a740760e11b81526001600160a01b0389811660048301529091169290602081602481875afa9081156116ae576000916118fb575b50156118b657604051635923af5760e01b81526001600160a01b0389166004820152602081602481875afa9081156116ae57600091611887575b5015611843576001600160a01b03881660009081526009602052604090205460ff166117f257608435156117a15785511561175c578451156117175760408051631c8a05ad60e31b81526001600160a01b038a166004820152608435602482015293849060449082905afa9384156116ae576000936000956116da575b50604051630bd7be4960e41b81526001600160a01b038a1660048201529690600090889060249082905afa9687156116ae576000976116ba575b5060006024979860405198898092633285b82d60e01b82523360048301525afa9687156116ae57600097611689575b50604051610c498161265b565b6006815265506f6c69637960d01b6020820152610c676004546128db565b978860045560405199610c798b61263f565b898b526001600160a01b038c1660208c01523360408c015260608b015260808a0152600160a08a015260c089015260e08801526101008701526101208601526084356101408601526101608501526101808401526101a0830152610cdb6128ea565b6101c08301526040518060208101106001600160401b036020830111176112225760208101604052600081526101e083015242610200830152600061022083015260006102408301526000526006602052604060002091815183556001830160018060a01b03602084015116906bffffffffffffffffffffffff60a01b9182825416179055600284019060018060a01b036040850151169082541617905560608201519283516001600160401b03811161122257610da981610da06003850154612792565b6003850161295b565b6020601f821160011461161a57819293949560009261160f575b50508160011b916000199060031b1c19161760038201555b60808301519283516001600160401b03811161122257610e0b81610e026004860154612792565b6004860161295b565b6020601f82116001146115a0578192939495600092611595575b50508160011b916000199060031b1c19161760048301555b60a0810151600583015560c08101519283516001600160401b03811161122257610e7781610e6e6006870154612792565b6006870161295b565b6020601f821160011461152657819293949560009261151b575b50508160011b916000199060031b1c19161760068401555b60e08201519283516001600160401b03811161122257610ed981610ed06007850154612792565b6007850161295b565b6020601f82116001146114ac5781929394956000926114a1575b50508160011b916000199060031b1c19161760078201555b6101008301519283516001600160401b03811161122257610f3c81610f336008860154612792565b6008860161295b565b6020601f8211600114611432578192939495600092611427575b50508160011b916000199060031b1c19161760088301555b6101208101519283516001600160401b03811161122257610f9f81610f966009870154612792565b6009870161295b565b6020601f82116001146113b85781929394956000926113ad575b50508160011b916000199060031b1c19161760098401555b610140820151600a840155610160820151600b840155610180820151600c8401556101a08201519283516001600160401b038111611222576110238161101a600d850154612792565b600d850161295b565b6020601f821160011461133e578192939495600092611333575b50508160011b916000199060031b1c191617600d8201555b6101c08301519283516001600160401b038111611222576110868161107d600e860154612792565b600e860161295b565b6020601f82116001146112c45781929394956000926112b9575b50508160011b916000199060031b1c191617600e8301555b6101e08101518051906001600160401b038211611222576110e9826110e0600f870154612792565b600f870161295b565b602090601f83116001146112435791806012949261024094600092611238575b50508160011b916000199060031b1c191617600f8501555b610200810151601085015561022081015160118501550151910155600454600a5491600160401b8310156112225761119f6080926111868560017f496125846b0e8273879f707f2ee3c888aa2fb21ac034e43d07eaa904357e43779701600a556125f0565b90919082549060031b91821b91600019901b1916179055565b6001600160a01b03811660009081526007602052604090206004546111c3916129a0565b3360005260086020526111dd6040600020600454906129a0565b6001600160a01b0316600081815260096020908152604091829020805460ff1916600117905560045482519081529081019290925233908201526084356060820152a1005b634e487b7160e01b600052604160045260246000fd5b015190508780611109565b90600f850160005260206000209160005b601f19851681106112a1575092601294926001926102409583601f19811610611288575b505050811b01600f850155611121565b015160001960f88460031b161c19169055878080611278565b91926020600181928685015181550194019201611254565b0151905085806110a0565b600e840160005260206000209060005b601f198416811061131b575060019394959683601f19811610611302575b505050811b01600e8301556110b8565b015160001960f88460031b161c191690558580806112f2565b9091602060018192858b0151815501930191016112d4565b01519050858061103d565b600d830160005260206000209060005b601f1984168110611395575060019394959683601f1981161061137c575b505050811b01600d820155611055565b015160001960f88460031b161c1916905585808061136c565b9091602060018192858b01518155019301910161134e565b015190508580610fb9565b6009850160005260206000209060005b601f198416811061140f575060019394959683601f198116106113f6575b505050811b016009840155610fd1565b015160001960f88460031b161c191690558580806113e6565b9091602060018192858b0151815501930191016113c8565b015190508580610f56565b6008840160005260206000209060005b601f1984168110611489575060019394959683601f19811610611470575b505050811b016008830155610f6e565b015160001960f88460031b161c19169055858080611460565b9091602060018192858b015181550193019101611442565b015190508580610ef3565b6007830160005260206000209060005b601f1984168110611503575060019394959683601f198116106114ea575b505050811b016007820155610f0b565b015160001960f88460031b161c191690558580806114da565b9091602060018192858b0151815501930191016114bc565b015190508580610e91565b6006850160005260206000209060005b601f198416811061157d575060019394959683601f19811610611564575b505050811b016006840155610ea9565b015160001960f88460031b161c19169055858080611554565b9091602060018192858b015181550193019101611536565b015190508580610e25565b6004840160005260206000209060005b601f19841681106115f7575060019394959683601f198116106115de575b505050811b016004830155610e3d565b015160001960f88460031b161c191690558580806115ce565b9091602060018192858b0151815501930191016115b0565b015190508580610dc3565b6003830160005260206000209060005b601f1984168110611671575060019394959683601f19811610611658575b505050811b016003820155610ddb565b015160001960f88460031b161c19169055858080611648565b9091602060018192858b01518155019301910161162a565b6116a79197503d806000833e61169f8183612676565b81019061287a565b9589610c3c565b6040513d6000823e3d90fd5b602497506116d36000913d8084833e61169f8183612676565b9750610c0d565b935093506040833d60401161170f575b816116f760409383612676565b810103126101d6578251602090930151936000610bd3565b3d91506116ea565b60405162461bcd60e51b815260206004820152601760248201527f4950465320646f63756d656e74207265717569726564210000000000000000006044820152606490fd5b60405162461bcd60e51b815260206004820152601860248201527f54726561746d656e74206e616d652072657175697265642100000000000000006044820152606490fd5b60405162461bcd60e51b8152602060048201526024808201527f436c61696d20616d6f756e74206d7573742062652067726561746572207468616044820152636e20302160e01b6064820152608490fd5b60405162461bcd60e51b8152602060048201526024808201527f50617469656e7420616c72656164792068617320612070656e64696e6720636c60448201526361696d2160e01b6064820152608490fd5b606460405162461bcd60e51b815260206004820152602060248201527f50617469656e742077616974696e6720706572696f64206e6f74206f766572216044820152fd5b6118a9915060203d6020116118af575b6118a18183612676565b810190612862565b89610b56565b503d611897565b60405162461bcd60e51b815260206004820152601d60248201527f50617469656e7420686173206e6f2061637469766520706f6c696379210000006044820152606490fd5b611914915060203d6020116118af576118a18183612676565b89610b1c565b60405162461bcd60e51b815260206004820152601960248201527f50617469656e74204b5943206e6f7420617070726f76656421000000000000006044820152606490fd5b611978915060203d6020116118af576118a18183612676565b88610ad9565b60405162461bcd60e51b815260206004820152601760248201527f50617469656e74206e6f742072656769737465726564210000000000000000006044820152606490fd5b6119dc915060203d6020116118af576118a18183612676565b88610a9f565b60405162461bcd60e51b8152602060048201526016602482015275486f73706974616c206e6f7420617070726f7665642160501b6044820152606490fd5b611a39915060203d6020116118af576118a18183612676565b87610a5c565b346101d6576020806003193601126101d6576004359081600052600681526040600020611a6e815415156129c3565b60018101546001600160a01b03163303611b7d57600e01604051611a96816103d281856127cc565b828151910120611aa46128ea565b83815191012003611b22579160096102849284611ae56108d37fb07c35948b3aa55af6baed77379d187e78a6e78bbe61fc2fe299f400607c441f9754612792565b60126810d85b98d95b1b195960ba1b01905533600081815292909152604091829020805460ff191690558151928352602083015290918291820190565b60405162461bcd60e51b815260048101839052602d60248201527f43616e206f6e6c792063616e63656c20636c61696d73206177616974696e672060448201526c636f6e6669726d6174696f6e2160981b6064820152608490fd5b60405162461bcd60e51b815260048101839052601860248201527f4f6e6c792070617469656e742063616e2063616e63656c2100000000000000006044820152606490fd5b346101d65760003660031901126101d6576020600554604051908152f35b346101d65760003660031901126101d6576001546040516001600160a01b039091168152602090f35b346101d65760003660031901126101d657602047604051908152f35b346101d65760003660031901126101d6576002546040516001600160a01b039091168152602090f35b346101d65760003660031901126101d6576003546040516001600160a01b039091168152602090f35b346101d65760003660031901126101d65760405180600a5491828152602080910192600a6000527fc65a7bb8d6351c1cf70c95a316cc6a92839c986682d98bc35f958f4883f9d2a8916000905b828210611cdb576101bb856101af81890382612676565b835486529485019460019384019390910190611cc4565b346101d65760203660031901126101d6576000610240604051611d148161263f565b828152826020820152826040820152606080820152606060808201528260a0820152606060c0820152606060e08201526060610100820152606061012082015282610140820152826101608201528261018082015260606101a082015260606101c082015260606101e0820152826102008201528261022082015201526004356000526006602052608060606040600020601260405191611db48361263f565b8054835260018101546001600160a01b03908116602085015260028201541660408085019190915251611dee816103d281600386016127cc565b84840152604051611e06816103d281600486016127cc565b85840152600581015460a0840152604051611e28816103d281600686016127cc565b60c0840152604051611e41816103d281600786016127cc565b60e0840152604051611e5a816103d281600886016127cc565b610100840152604051611e74816103d281600986016127cc565b610120840152600a810154610140840152600b810154610160840152600c810154610180840152604051611eaf816103d281600d86016127cc565b6101a0840152604051611ec9816103d281600e86016127cc565b6101c0840152604051611ee3816103d281600f86016127cc565b6101e0840152601081015461020084015260118101546102208401520154610240820152610240612058612040612028611fec611fd4611fbc611fa5611f85611f6f8a6102606040519e8f9e8f93602085528051602086015260018060a01b03602082015116604086015260018060a01b036040820151168286015201519201526102808d0190612732565b60808b01518c8203601f190160a08e0152612732565b60a08a015160c08c015260c08a0151601f198c83030160e08d0152612732565b60e08901518a8203601f19016101008c0152612732565b610100880151898203601f19016101208b0152612732565b610120870151888203601f19016101408a0152612732565b6101408601516101608801526101608601516101808801526101808601516101a08801526101a0860151601f19888303016101c0890152612732565b6101c0850151868203601f19016101e0880152612732565b6101e0840151858203601f1901610200870152612732565b916102008101516102208501526102208101518285015201516102608301520390f35b346101d6576020806003193601126101d6576000546001600160a01b039190600435906120ab9084163314612a02565b80600052600682526040600020916120c5835415156129c3565b600e8301926120f86040516120de816103d281896127cc565b8381519101206120ec612a46565b84815191012014612a69565b4793600c8201948554116121a95790816121176108d360029454612792565b601067105c1c1c9bdd995960c21b0190554260128201558560018201541660005260098352604060002060ff19815416905501926000808080888854168554908282156121a0575bf1156116ae577f0b582d60859bb6c5e17bb049bc83044c0c8dab7d0a026b4e3a4a2966d8926de59460609454169054916040519384528301526040820152a1005b506108fc61215f565b60405162461bcd60e51b815260048101849052603060248201527f496e73756666696369656e7420636f6e74726163742066756e64732120506c6560448201526f30b9b2903232b837b9b4ba1022aa241760811b6064820152608490fd5b346101d65760403660031901126101d6576122206126f9565b6001600160a01b03166000908152600760205260409020805460243591908210156101d6576020916104f291612627565b346101d65760403660031901126101d6576001600160401b036004356024358281116101d6576122859036906004016126b2565b6000546001600160a01b039061229e9082163314612a02565b82600052602093600685526040600020906122bb825415156129c3565b600e82016122ed6040516122d3816103d281866127cc565b8881519101206122e1612a46565b89815191012014612a69565b845115612455576123016108d38254612792565b60106714995a9958dd195960c21b0190558351600f8301918111611222576123338161232d8454612792565b8461295b565b86601f82116001146123c757926102849492826001937f43cc3d080e025c67c26d62b18bd442511dc9c76c8aa3f48cc0e8f456173e61f19a9998966000916123bc575b50600019600383901b1c191690841b1790555b42601282015501541660005260098452604060002060ff1981541690556040805194859485528401526040830190612732565b90508601518b612376565b601f1982169083600052886000209160005b81811061243e5750837f43cc3d080e025c67c26d62b18bd442511dc9c76c8aa3f48cc0e8f456173e61f19a99989693610284989693600196879410612425575b5050811b019055612389565b88015160001960f88460031b161c191690558b80612419565b91928a60018192868c0151815501940192016123d9565b60405162461bcd60e51b815260048101889052601a60248201527f52656a656374696f6e20726561736f6e207265717569726564210000000000006044820152606490fd5b346101d65760203660031901126101d657600435600a548110156101d6576104f26020916125f0565b346101d65760203660031901126101d657600054600435906001600160a01b03166124ef338214612a02565b81156125ab5781471061256e57600554908282039182116125585760008084819493829460055582f1156116ae576040805133815260208101929092527feaff4b37086828766ad3268786972c0cd24259d4c87a80f9d3963a3c3d999b0d919081908101610284565b634e487b7160e01b600052601160045260246000fd5b60405162461bcd60e51b8152602060048201526015602482015274496e73756666696369656e742062616c616e63652160581b6044820152606490fd5b60405162461bcd60e51b815260206004820152601e60248201527f416d6f756e74206d7573742062652067726561746572207468616e20302100006044820152606490fd5b600a5481101561042e57600a6000527fc65a7bb8d6351c1cf70c95a316cc6a92839c986682d98bc35f958f4883f9d2a80190600090565b805482101561042e5760005260206000200190600090565b61026081019081106001600160401b0382111761122257604052565b604081019081106001600160401b0382111761122257604052565b90601f801991011681019081106001600160401b0382111761122257604052565b6001600160401b03811161122257601f01601f191660200190565b81601f820112156101d6578035906126c982612697565b926126d76040519485612676565b828452602083830101116101d657816000926020809301838601378301015290565b600435906001600160a01b03821682036101d657565b60005b8381106127225750506000910152565b8181015183820152602001612712565b9060209161274b8151809281855285808601910161270f565b601f01601f1916010190565b6020908160408183019282815285518094520193019160005b82811061277e575050505090565b835185529381019392810192600101612770565b90600182811c921680156127c2575b60208310146127ac57565b634e487b7160e01b600052602260045260246000fd5b91607f16916127a1565b90600092918054916127dd83612792565b91828252600193848116908160001461283f57506001146127ff575b50505050565b90919394506000526020928360002092846000945b83861061282b5750505050010190388080806127f9565b805485870183015294019385908201612814565b9294505050602093945060ff191683830152151560051b010190388080806127f9565b908160209103126101d6575180151581036101d65790565b6020818303126101d6578051906001600160401b0382116101d6570181601f820112156101d65780516128ac81612697565b926128ba6040519485612676565b818452602082840101116101d6576128d8916020808501910161270f565b90565b60001981146125585760010190565b604051906128f78261265b565b601482527320bbb0b4ba34b733a1b7b73334b936b0ba34b7b760611b6020830152565b818110612925575050565b6000815560010161291a565b90601f811161293e575050565b61295991600052601f6020600020910160051c81019061291a565b565b9190601f811161296a57505050565b612959926000526020600020906020601f840160051c83019310612996575b601f0160051c019061291a565b9091508190612989565b90815491600160401b831015611222578261118691600161295995018155612627565b156129ca57565b60405162461bcd60e51b815260206004820152601060248201526f436c61696d206e6f7420666f756e642160801b6044820152606490fd5b15612a0957565b60405162461bcd60e51b81526020600482015260156024820152744f6e6c7920696e737572657220616c6c6f7765642160581b6044820152606490fd5b60405190612a538261265b565b600782526650656e64696e6760c81b6020830152565b15612a7057565b60405162461bcd60e51b8152602060048201526015602482015274436c61696d206973206e6f742070656e64696e672160581b6044820152606490fd5b9190820180921161255857565b6001600160401b0381116112225760051b6020019056fea26469706673582212208b5c2afc430d41c070c6cde4904664d56e4c1d563d186d9a59275d8cd8f674a164736f6c63430008130033",
  "immutableReferences": {},
  "source": "// SPDX-License-Identifier: MIT\r\npragma solidity ^0.8.0;\r\n\r\n// ================================================================\r\n// Interface to read from PolicyContract\r\n// ================================================================\r\ninterface IPolicyContract {\r\n    function hasSubscription(address patient) external view returns (bool);\r\n    function isWaitingPeriodOver(address patient) external view returns (bool);\r\n    function calculateClaimPayout(address patient, uint256 claimAmount)\r\n        external view returns (uint256 patientPays, uint256 insurerPays);\r\n    function getSubscription(address patient) external view returns (\r\n        address patientAddress,\r\n        uint256 policyId,\r\n        string memory policyName,\r\n        uint256 premiumAmount,\r\n        uint256 coverageLimit,\r\n        uint256 copayPercent,\r\n        uint256 deductible,\r\n        uint256 waitingPeriod,\r\n        uint256 totalPaid,\r\n        uint256 startDate,\r\n        uint256 endDate,\r\n        uint256 nextDueDate,\r\n        uint256 monthsPaid,\r\n        string memory subscriptionStatus,\r\n        string memory paymentStatus,\r\n        uint256 timestamp\r\n    );\r\n}\r\n\r\n// ================================================================\r\n// Interface to read from HospitalRegistry\r\n// ================================================================\r\ninterface IHospitalRegistry {\r\n    function isHospitalApproved(address hospital) external view returns (bool);\r\n    function getHospitalName(address hospital) external view returns (string memory);\r\n}\r\n\r\n// ================================================================\r\n// Interface to read from UserRegistry\r\n// ================================================================\r\ninterface IUserRegistry {\r\n    function checkPatientRegistered(address patient) external view returns (bool);\r\n    function checkPatientApproved(address patient) external view returns (bool);\r\n    function getPatientName(address patient) external view returns (string memory);\r\n}\r\n\r\n// ================================================================\r\n// ClaimContract\r\n// ================================================================\r\ncontract ClaimContract {\r\n\r\n    address public insurer;\r\n    IPolicyContract  public policyContract;\r\n    IHospitalRegistry public hospitalRegistry;\r\n    IUserRegistry    public userRegistry;\r\n\r\n    // ================================\r\n    // STRUCTS\r\n    // ================================\r\n\r\n    struct Claim {\r\n        uint256 claimId;\r\n        address patientAddress;\r\n        address hospitalAddress;\r\n        string  patientName;\r\n        string  hospitalName;\r\n        uint256 policyId;\r\n        string  policyName;\r\n        string  treatmentName;\r\n        string  treatmentDate;\r\n        string  description;\r\n        uint256 claimAmount;\r\n        uint256 patientPays;\r\n        uint256 insurerPays;\r\n        string  ipfsCID;\r\n        string  status;\r\n        string  rejectionReason;\r\n        uint256 submittedOn;\r\n        uint256 confirmedOn;\r\n        uint256 settledOn;\r\n    }\r\n\r\n    // ================================\r\n    // STORAGE\r\n    // ================================\r\n\r\n    uint256 public claimCount;\r\n    uint256 public contractBalance;\r\n\r\n    mapping(uint256 => Claim)         public claims;\r\n    mapping(address => uint256[])     public patientClaims;\r\n    mapping(address => uint256[])     public hospitalClaims;\r\n    mapping(address => bool)          public hasPendingClaim;\r\n\r\n    uint256[] public allClaimIds;\r\n\r\n    // ================================\r\n    // EVENTS\r\n    // ================================\r\n\r\n    event ClaimSubmitted(uint256 claimId, address patient, address hospital, uint256 amount);\r\n    event ClaimConfirmed(uint256 claimId, address patient);\r\n    event ClaimCancelled(uint256 claimId, address patient);\r\n    event ClaimApproved(uint256 claimId, address hospital, uint256 payout);\r\n    event ClaimRejected(uint256 claimId, string reason);\r\n    event FundsDeposited(address insurer, uint256 amount);\r\n    event FundsWithdrawn(address insurer, uint256 amount);\r\n\r\n    // ================================\r\n    // MODIFIERS\r\n    // ================================\r\n\r\n    modifier onlyInsurer() {\r\n        require(msg.sender == insurer, \"Only insurer allowed!\");\r\n        _;\r\n    }\r\n\r\n    modifier onlyApprovedHospital() {\r\n        require(hospitalRegistry.isHospitalApproved(msg.sender), \"Hospital not approved!\");\r\n        _;\r\n    }\r\n\r\n    // ================================\r\n    // CONSTRUCTOR\r\n    // ================================\r\n\r\n    constructor(\r\n        address _policyContract,\r\n        address _hospitalRegistry,\r\n        address _userRegistry\r\n    ) {\r\n        insurer          = msg.sender;\r\n        policyContract   = IPolicyContract(_policyContract);\r\n        hospitalRegistry = IHospitalRegistry(_hospitalRegistry);\r\n        userRegistry     = IUserRegistry(_userRegistry);\r\n    }\r\n\r\n    // ================================================================\r\n    // STEP 1 — HOSPITAL SUBMITS CLAIM\r\n    // ================================================================\r\n\r\n    function submitClaim(\r\n        address patientAddress,\r\n        string memory treatmentName,\r\n        string memory treatmentDate,\r\n        string memory description,\r\n        uint256 claimAmount,\r\n        string memory ipfsCID\r\n    ) public onlyApprovedHospital {\r\n\r\n        // ── Validations ──────────────────────────────────────────\r\n\r\n        require(userRegistry.checkPatientRegistered(patientAddress),  \"Patient not registered!\");\r\n        require(userRegistry.checkPatientApproved(patientAddress),    \"Patient KYC not approved!\");\r\n        require(policyContract.hasSubscription(patientAddress),        \"Patient has no active policy!\");\r\n        require(policyContract.isWaitingPeriodOver(patientAddress),    \"Patient waiting period not over!\");\r\n        require(!hasPendingClaim[patientAddress],                      \"Patient already has a pending claim!\");\r\n        require(claimAmount > 0,                                       \"Claim amount must be greater than 0!\");\r\n        require(bytes(treatmentName).length > 0,                       \"Treatment name required!\");\r\n        require(bytes(ipfsCID).length > 0,                             \"IPFS document required!\");\r\n\r\n        // ── Get payout breakdown from PolicyContract ─────────────\r\n        (uint256 patientPays, uint256 insurerPays) =\r\n            policyContract.calculateClaimPayout(patientAddress, claimAmount);\r\n\r\n        // ── Get names ─────────────────────────────────────────────\r\n        string memory patientName  = userRegistry.getPatientName(patientAddress);\r\n        string memory hospitalName = hospitalRegistry.getHospitalName(msg.sender);\r\n\r\n        // ── Get policy details ────────────────────────────────────────\r\n        uint256 policyId = 1;\r\n        string memory policyName = \"Policy\";\r\n\r\n        // ── Create claim ──────────────────────────────────────────\r\n        claimCount++;\r\n\r\n        claims[claimCount] = Claim({\r\n            claimId:         claimCount,\r\n            patientAddress:  patientAddress,\r\n            hospitalAddress: msg.sender,\r\n            patientName:     patientName,\r\n            hospitalName:    hospitalName,\r\n            policyId:        policyId,\r\n            policyName:      policyName,\r\n            treatmentName:   treatmentName,\r\n            treatmentDate:   treatmentDate,\r\n            description:     description,\r\n            claimAmount:     claimAmount,\r\n            patientPays:     patientPays,\r\n            insurerPays:     insurerPays,\r\n            ipfsCID:         ipfsCID,\r\n            status:          \"AwaitingConfirmation\",\r\n            rejectionReason: \"\",\r\n            submittedOn:     block.timestamp,\r\n            confirmedOn:     0,\r\n            settledOn:       0\r\n        });\r\n\r\n        allClaimIds.push(claimCount);\r\n        patientClaims[patientAddress].push(claimCount);\r\n        hospitalClaims[msg.sender].push(claimCount);\r\n        hasPendingClaim[patientAddress] = true;\r\n\r\n        emit ClaimSubmitted(claimCount, patientAddress, msg.sender, claimAmount);\r\n    }\r\n\r\n    // ================================================================\r\n    // STEP 2A — PATIENT CONFIRMS CLAIM\r\n    // ================================================================\r\n\r\n    function confirmClaim(uint256 claimId) public {\r\n        Claim storage c = claims[claimId];\r\n\r\n        require(c.claimId != 0,                                          \"Claim not found!\");\r\n        require(c.patientAddress == msg.sender,                          \"Only patient can confirm!\");\r\n        require(\r\n            keccak256(bytes(c.status)) == keccak256(bytes(\"AwaitingConfirmation\")),\r\n            \"Claim not awaiting confirmation!\"\r\n        );\r\n\r\n        c.status      = \"Pending\";\r\n        c.confirmedOn = block.timestamp;\r\n\r\n        emit ClaimConfirmed(claimId, msg.sender);\r\n    }\r\n\r\n    // ================================================================\r\n    // STEP 2B — PATIENT CANCELS CLAIM (fraud prevention)\r\n    // ================================================================\r\n\r\n    function cancelClaim(uint256 claimId) public {\r\n        Claim storage c = claims[claimId];\r\n\r\n        require(c.claimId != 0,                \"Claim not found!\");\r\n        require(c.patientAddress == msg.sender, \"Only patient can cancel!\");\r\n        require(\r\n            keccak256(bytes(c.status)) == keccak256(bytes(\"AwaitingConfirmation\")),\r\n            \"Can only cancel claims awaiting confirmation!\"\r\n        );\r\n\r\n        c.status = \"Cancelled\";\r\n        hasPendingClaim[msg.sender] = false;\r\n\r\n        emit ClaimCancelled(claimId, msg.sender);\r\n    }\r\n\r\n    // ================================================================\r\n    // STEP 3A — INSURER APPROVES CLAIM → AUTO ETH TRANSFER\r\n    // ================================================================\r\n\r\n    function approveClaim(uint256 claimId) public onlyInsurer {\r\n        Claim storage c = claims[claimId];\r\n\r\n        require(c.claimId != 0, \"Claim not found!\");\r\n        require(\r\n            keccak256(bytes(c.status)) == keccak256(bytes(\"Pending\")),\r\n            \"Claim is not pending!\"\r\n        );\r\n        require(\r\n            address(this).balance >= c.insurerPays,\r\n            \"Insufficient contract funds! Please deposit ETH.\"\r\n        );\r\n\r\n        c.status    = \"Approved\";\r\n        c.settledOn = block.timestamp;\r\n        hasPendingClaim[c.patientAddress] = false;\r\n\r\n        // ── Auto transfer ETH to hospital ─────────────────────────\r\n        payable(c.hospitalAddress).transfer(c.insurerPays);\r\n\r\n        emit ClaimApproved(claimId, c.hospitalAddress, c.insurerPays);\r\n    }\r\n\r\n    // ================================================================\r\n    // STEP 3B — INSURER REJECTS CLAIM\r\n    // ================================================================\r\n\r\n    function rejectClaim(uint256 claimId, string memory reason) public onlyInsurer {\r\n        Claim storage c = claims[claimId];\r\n\r\n        require(c.claimId != 0, \"Claim not found!\");\r\n        require(\r\n            keccak256(bytes(c.status)) == keccak256(bytes(\"Pending\")),\r\n            \"Claim is not pending!\"\r\n        );\r\n        require(bytes(reason).length > 0, \"Rejection reason required!\");\r\n\r\n        c.status          = \"Rejected\";\r\n        c.rejectionReason = reason;\r\n        c.settledOn       = block.timestamp;\r\n        hasPendingClaim[c.patientAddress] = false;\r\n\r\n        emit ClaimRejected(claimId, reason);\r\n    }\r\n\r\n    // ================================================================\r\n    // FUND MANAGEMENT — Insurer deposits ETH into contract\r\n    // ================================================================\r\n\r\n    function depositFunds() public payable onlyInsurer {\r\n        require(msg.value > 0, \"Must deposit more than 0!\");\r\n        contractBalance += msg.value;\r\n        emit FundsDeposited(msg.sender, msg.value);\r\n    }\r\n\r\n    function withdrawFunds(uint256 amount) public onlyInsurer {\r\n        require(amount > 0,                        \"Amount must be greater than 0!\");\r\n        require(address(this).balance >= amount,   \"Insufficient balance!\");\r\n        contractBalance -= amount;\r\n        payable(insurer).transfer(amount);\r\n        emit FundsWithdrawn(msg.sender, amount);\r\n    }\r\n\r\n    function getContractBalance() public view returns (uint256) {\r\n        return address(this).balance;\r\n    }\r\n\r\n    // ================================================================\r\n    // VIEW FUNCTIONS\r\n    // ================================================================\r\n\r\n    function getClaim(uint256 claimId) public view returns (Claim memory) {\r\n        return claims[claimId];\r\n    }\r\n\r\n    function getAllClaims() public view returns (uint256[] memory) {\r\n        return allClaimIds;\r\n    }\r\n\r\n    function getPatientClaims(address patient) public view returns (uint256[] memory) {\r\n        return patientClaims[patient];\r\n    }\r\n\r\n    function getHospitalClaims(address hospital) public view returns (uint256[] memory) {\r\n        return hospitalClaims[hospital];\r\n    }\r\n\r\n    function getClaimsByStatus(string memory status) public view returns (uint256[] memory) {\r\n        uint256 count = 0;\r\n        for (uint256 i = 0; i < allClaimIds.length; i++) {\r\n            if (keccak256(bytes(claims[allClaimIds[i]].status)) == keccak256(bytes(status))) {\r\n                count++;\r\n            }\r\n        }\r\n        uint256[] memory result = new uint256[](count);\r\n        uint256 index = 0;\r\n        for (uint256 i = 0; i < allClaimIds.length; i++) {\r\n            if (keccak256(bytes(claims[allClaimIds[i]].status)) == keccak256(bytes(status))) {\r\n                result[index] = allClaimIds[i];\r\n                index++;\r\n            }\r\n        }\r\n        return result;\r\n    }\r\n\r\n    function getClaimCount() public view returns (uint256) {\r\n        return claimCount;\r\n    }\r\n\r\n    function checkHasPendingClaim(address patient) public view returns (bool) {\r\n        return hasPendingClaim[patient];\r\n    }\r\n\r\n    // ── Allow contract to receive ETH ─────────────────────────────\r\n    receive() external payable {\r\n        contractBalance += msg.value;\r\n    }\r\n}\r\n",
  "sourcePath": "E:\\medinsure\\contracts\\ClaimContract.sol",
  "compiler": {
    "name": "solc",
    "version": "0.8.19+commit.7dd6d404.Emscripten.clang"
  },
  "schemaVersion": "3.4.16",
  "updatedAt": "2026-03-06T14:23:17.748Z",
  "networkType": "ethereum",
  "devdoc": {
    "kind": "dev",
    "methods": {},
    "version": 1
  },
  "userdoc": {
    "kind": "user",
    "methods": {},
    "version": 1
  }
}