{
  "contractName": "ClaimContract",
  "abi": [
    {
      "inputs": [
        {
          "internalType": "address",
          "name": "_policyContract",
          "type": "address"
        },
        {
          "internalType": "address",
          "name": "_hospitalRegistry",
          "type": "address"
        },
        {
          "internalType": "address",
          "name": "_userRegistry",
          "type": "address"
        }
      ],
      "stateMutability": "nonpayable",
      "type": "constructor"
    },
    {
      "anonymous": false,
      "inputs": [
        {
          "indexed": false,
          "internalType": "uint256",
          "name": "claimId",
          "type": "uint256"
        },
        {
          "indexed": false,
          "internalType": "address",
          "name": "hospital",
          "type": "address"
        },
        {
          "indexed": false,
          "internalType": "uint256",
          "name": "payout",
          "type": "uint256"
        }
      ],
      "name": "ClaimApproved",
      "type": "event"
    },
    {
      "anonymous": false,
      "inputs": [
        {
          "indexed": false,
          "internalType": "uint256",
          "name": "claimId",
          "type": "uint256"
        },
        {
          "indexed": false,
          "internalType": "address",
          "name": "patient",
          "type": "address"
        }
      ],
      "name": "ClaimCancelled",
      "type": "event"
    },
    {
      "anonymous": false,
      "inputs": [
        {
          "indexed": false,
          "internalType": "uint256",
          "name": "claimId",
          "type": "uint256"
        },
        {
          "indexed": false,
          "internalType": "address",
          "name": "patient",
          "type": "address"
        }
      ],
      "name": "ClaimConfirmed",
      "type": "event"
    },
    {
      "anonymous": false,
      "inputs": [
        {
          "indexed": false,
          "internalType": "uint256",
          "name": "claimId",
          "type": "uint256"
        },
        {
          "indexed": false,
          "internalType": "string",
          "name": "reason",
          "type": "string"
        }
      ],
      "name": "ClaimRejected",
      "type": "event"
    },
    {
      "anonymous": false,
      "inputs": [
        {
          "indexed": false,
          "internalType": "uint256",
          "name": "claimId",
          "type": "uint256"
        },
        {
          "indexed": false,
          "internalType": "address",
          "name": "patient",
          "type": "address"
        },
        {
          "indexed": false,
          "internalType": "address",
          "name": "hospital",
          "type": "address"
        },
        {
          "indexed": false,
          "internalType": "uint256",
          "name": "amount",
          "type": "uint256"
        }
      ],
      "name": "ClaimSubmitted",
      "type": "event"
    },
    {
      "anonymous": false,
      "inputs": [
        {
          "indexed": false,
          "internalType": "address",
          "name": "insurer",
          "type": "address"
        },
        {
          "indexed": false,
          "internalType": "uint256",
          "name": "amount",
          "type": "uint256"
        }
      ],
      "name": "FundsDeposited",
      "type": "event"
    },
    {
      "anonymous": false,
      "inputs": [
        {
          "indexed": false,
          "internalType": "address",
          "name": "insurer",
          "type": "address"
        },
        {
          "indexed": false,
          "internalType": "uint256",
          "name": "amount",
          "type": "uint256"
        }
      ],
      "name": "FundsWithdrawn",
      "type": "event"
    },
    {
      "inputs": [
        {
          "internalType": "uint256",
          "name": "",
          "type": "uint256"
        }
      ],
      "name": "allClaimIds",
      "outputs": [
        {
          "internalType": "uint256",
          "name": "",
          "type": "uint256"
        }
      ],
      "stateMutability": "view",
      "type": "function",
      "constant": true
    },
    {
      "inputs": [],
      "name": "claimCount",
      "outputs": [
        {
          "internalType": "uint256",
          "name": "",
          "type": "uint256"
        }
      ],
      "stateMutability": "view",
      "type": "function",
      "constant": true
    },
    {
      "inputs": [
        {
          "internalType": "uint256",
          "name": "",
          "type": "uint256"
        }
      ],
      "name": "claims",
      "outputs": [
        {
          "internalType": "uint256",
          "name": "claimId",
          "type": "uint256"
        },
        {
          "internalType": "address",
          "name": "patientAddress",
          "type": "address"
        },
        {
          "internalType": "address",
          "name": "hospitalAddress",
          "type": "address"
        },
        {
          "internalType": "string",
          "name": "patientName",
          "type": "string"
        },
        {
          "internalType": "string",
          "name": "hospitalName",
          "type": "string"
        },
        {
          "internalType": "uint256",
          "name": "policyId",
          "type": "uint256"
        },
        {
          "internalType": "string",
          "name": "policyName",
          "type": "string"
        },
        {
          "internalType": "string",
          "name": "treatmentName",
          "type": "string"
        },
        {
          "internalType": "string",
          "name": "treatmentDate",
          "type": "string"
        },
        {
          "internalType": "string",
          "name": "description",
          "type": "string"
        },
        {
          "internalType": "uint256",
          "name": "claimAmount",
          "type": "uint256"
        },
        {
          "internalType": "uint256",
          "name": "patientPays",
          "type": "uint256"
        },
        {
          "internalType": "uint256",
          "name": "insurerPays",
          "type": "uint256"
        },
        {
          "internalType": "string",
          "name": "ipfsCID",
          "type": "string"
        },
        {
          "internalType": "string",
          "name": "status",
          "type": "string"
        },
        {
          "internalType": "string",
          "name": "rejectionReason",
          "type": "string"
        },
        {
          "internalType": "uint256",
          "name": "submittedOn",
          "type": "uint256"
        },
        {
          "internalType": "uint256",
          "name": "confirmedOn",
          "type": "uint256"
        },
        {
          "internalType": "uint256",
          "name": "settledOn",
          "type": "uint256"
        }
      ],
      "stateMutability": "view",
      "type": "function",
      "constant": true
    },
    {
      "inputs": [],
      "name": "contractBalance",
      "outputs": [
        {
          "internalType": "uint256",
          "name": "",
          "type": "uint256"
        }
      ],
      "stateMutability": "view",
      "type": "function",
      "constant": true
    },
    {
      "inputs": [
        {
          "internalType": "bytes32",
          "name": "",
          "type": "bytes32"
        }
      ],
      "name": "documentHashUsed",
      "outputs": [
        {
          "internalType": "bool",
          "name": "",
          "type": "bool"
        }
      ],
      "stateMutability": "view",
      "type": "function",
      "constant": true
    },
    {
      "inputs": [
        {
          "internalType": "address",
          "name": "",
          "type": "address"
        }
      ],
      "name": "hasPendingClaim",
      "outputs": [
        {
          "internalType": "bool",
          "name": "",
          "type": "bool"
        }
      ],
      "stateMutability": "view",
      "type": "function",
      "constant": true
    },
    {
      "inputs": [
        {
          "internalType": "address",
          "name": "",
          "type": "address"
        },
        {
          "internalType": "uint256",
          "name": "",
          "type": "uint256"
        }
      ],
      "name": "hospitalClaims",
      "outputs": [
        {
          "internalType": "uint256",
          "name": "",
          "type": "uint256"
        }
      ],
      "stateMutability": "view",
      "type": "function",
      "constant": true
    },
    {
      "inputs": [],
      "name": "hospitalRegistry",
      "outputs": [
        {
          "internalType": "contract IHospitalRegistry",
          "name": "",
          "type": "address"
        }
      ],
      "stateMutability": "view",
      "type": "function",
      "constant": true
    },
    {
      "inputs": [],
      "name": "insurer",
      "outputs": [
        {
          "internalType": "address",
          "name": "",
          "type": "address"
        }
      ],
      "stateMutability": "view",
      "type": "function",
      "constant": true
    },
    {
      "inputs": [
        {
          "internalType": "address",
          "name": "",
          "type": "address"
        },
        {
          "internalType": "uint256",
          "name": "",
          "type": "uint256"
        }
      ],
      "name": "patientClaims",
      "outputs": [
        {
          "internalType": "uint256",
          "name": "",
          "type": "uint256"
        }
      ],
      "stateMutability": "view",
      "type": "function",
      "constant": true
    },
    {
      "inputs": [],
      "name": "policyContract",
      "outputs": [
        {
          "internalType": "contract IPolicyContract",
          "name": "",
          "type": "address"
        }
      ],
      "stateMutability": "view",
      "type": "function",
      "constant": true
    },
    {
      "inputs": [],
      "name": "userRegistry",
      "outputs": [
        {
          "internalType": "contract IUserRegistry",
          "name": "",
          "type": "address"
        }
      ],
      "stateMutability": "view",
      "type": "function",
      "constant": true
    },
    {
      "stateMutability": "payable",
      "type": "receive",
      "payable": true
    },
    {
      "inputs": [
        {
          "internalType": "address",
          "name": "patientAddress",
          "type": "address"
        },
        {
          "internalType": "string",
          "name": "treatmentName",
          "type": "string"
        },
        {
          "internalType": "string",
          "name": "treatmentDate",
          "type": "string"
        },
        {
          "internalType": "string",
          "name": "description",
          "type": "string"
        },
        {
          "internalType": "uint256",
          "name": "claimAmount",
          "type": "uint256"
        },
        {
          "internalType": "string",
          "name": "ipfsCID",
          "type": "string"
        }
      ],
      "name": "submitClaim",
      "outputs": [],
      "stateMutability": "nonpayable",
      "type": "function"
    },
    {
      "inputs": [
        {
          "internalType": "uint256",
          "name": "claimId",
          "type": "uint256"
        }
      ],
      "name": "confirmClaim",
      "outputs": [],
      "stateMutability": "nonpayable",
      "type": "function"
    },
    {
      "inputs": [
        {
          "internalType": "uint256",
          "name": "claimId",
          "type": "uint256"
        }
      ],
      "name": "cancelClaim",
      "outputs": [],
      "stateMutability": "nonpayable",
      "type": "function"
    },
    {
      "inputs": [
        {
          "internalType": "uint256",
          "name": "claimId",
          "type": "uint256"
        }
      ],
      "name": "approveClaim",
      "outputs": [],
      "stateMutability": "nonpayable",
      "type": "function"
    },
    {
      "inputs": [
        {
          "internalType": "uint256",
          "name": "claimId",
          "type": "uint256"
        },
        {
          "internalType": "string",
          "name": "reason",
          "type": "string"
        }
      ],
      "name": "rejectClaim",
      "outputs": [],
      "stateMutability": "nonpayable",
      "type": "function"
    },
    {
      "inputs": [],
      "name": "depositFunds",
      "outputs": [],
      "stateMutability": "payable",
      "type": "function",
      "payable": true
    },
    {
      "inputs": [
        {
          "internalType": "uint256",
          "name": "amount",
          "type": "uint256"
        }
      ],
      "name": "withdrawFunds",
      "outputs": [],
      "stateMutability": "nonpayable",
      "type": "function"
    },
    {
      "inputs": [],
      "name": "getContractBalance",
      "outputs": [
        {
          "internalType": "uint256",
          "name": "",
          "type": "uint256"
        }
      ],
      "stateMutability": "view",
      "type": "function",
      "constant": true
    },
    {
      "inputs": [
        {
          "internalType": "uint256",
          "name": "claimId",
          "type": "uint256"
        }
      ],
      "name": "getClaim",
      "outputs": [
        {
          "components": [
            {
              "internalType": "uint256",
              "name": "claimId",
              "type": "uint256"
            },
            {
              "internalType": "address",
              "name": "patientAddress",
              "type": "address"
            },
            {
              "internalType": "address",
              "name": "hospitalAddress",
              "type": "address"
            },
            {
              "internalType": "string",
              "name": "patientName",
              "type": "string"
            },
            {
              "internalType": "string",
              "name": "hospitalName",
              "type": "string"
            },
            {
              "internalType": "uint256",
              "name": "policyId",
              "type": "uint256"
            },
            {
              "internalType": "string",
              "name": "policyName",
              "type": "string"
            },
            {
              "internalType": "string",
              "name": "treatmentName",
              "type": "string"
            },
            {
              "internalType": "string",
              "name": "treatmentDate",
              "type": "string"
            },
            {
              "internalType": "string",
              "name": "description",
              "type": "string"
            },
            {
              "internalType": "uint256",
              "name": "claimAmount",
              "type": "uint256"
            },
            {
              "internalType": "uint256",
              "name": "patientPays",
              "type": "uint256"
            },
            {
              "internalType": "uint256",
              "name": "insurerPays",
              "type": "uint256"
            },
            {
              "internalType": "string",
              "name": "ipfsCID",
              "type": "string"
            },
            {
              "internalType": "string",
              "name": "status",
              "type": "string"
            },
            {
              "internalType": "string",
              "name": "rejectionReason",
              "type": "string"
            },
            {
              "internalType": "uint256",
              "name": "submittedOn",
              "type": "uint256"
            },
            {
              "internalType": "uint256",
              "name": "confirmedOn",
              "type": "uint256"
            },
            {
              "internalType": "uint256",
              "name": "settledOn",
              "type": "uint256"
            }
          ],
          "internalType": "struct ClaimContract.Claim",
          "name": "",
          "type": "tuple"
        }
      ],
      "stateMutability": "view",
      "type": "function",
      "constant": true
    },
    {
      "inputs": [],
      "name": "getAllClaims",
      "outputs": [
        {
          "internalType": "uint256[]",
          "name": "",
          "type": "uint256[]"
        }
      ],
      "stateMutability": "view",
      "type": "function",
      "constant": true
    },
    {
      "inputs": [
        {
          "internalType": "address",
          "name": "patient",
          "type": "address"
        }
      ],
      "name": "getPatientClaims",
      "outputs": [
        {
          "internalType": "uint256[]",
          "name": "",
          "type": "uint256[]"
        }
      ],
      "stateMutability": "view",
      "type": "function",
      "constant": true
    },
    {
      "inputs": [
        {
          "internalType": "address",
          "name": "hospital",
          "type": "address"
        }
      ],
      "name": "getHospitalClaims",
      "outputs": [
        {
          "internalType": "uint256[]",
          "name": "",
          "type": "uint256[]"
        }
      ],
      "stateMutability": "view",
      "type": "function",
      "constant": true
    },
    {
      "inputs": [
        {
          "internalType": "string",
          "name": "status",
          "type": "string"
        }
      ],
      "name": "getClaimsByStatus",
      "outputs": [
        {
          "internalType": "uint256[]",
          "name": "",
          "type": "uint256[]"
        }
      ],
      "stateMutability": "view",
      "type": "function",
      "constant": true
    },
    {
      "inputs": [],
      "name": "getClaimCount",
      "outputs": [
        {
          "internalType": "uint256",
          "name": "",
          "type": "uint256"
        }
      ],
      "stateMutability": "view",
      "type": "function",
      "constant": true
    },
    {
      "inputs": [
        {
          "internalType": "address",
          "name": "patient",
          "type": "address"
        }
      ],
      "name": "checkHasPendingClaim",
      "outputs": [
        {
          "internalType": "bool",
          "name": "",
          "type": "bool"
        }
      ],
      "stateMutability": "view",
      "type": "function",
      "constant": true
    },
    {
      "inputs": [
        {
          "internalType": "bytes32",
          "name": "docHash",
          "type": "bytes32"
        }
      ],
      "name": "checkDocumentHash",
      "outputs": [
        {
          "internalType": "bool",
          "name": "",
          "type": "bool"
        }
      ],
      "stateMutability": "view",
      "type": "function",
      "constant": true
    }
  ],
  "bytecode": "0x608034620000b657601f62002c5938819003918201601f19168301916001600160401b03831184841017620000bb57808492606094604052833981010312620000b6576200004d81620000d1565b906200006a60406200006260208401620000d1565b9201620000d1565b60018060a01b0319923384600054161760005560018060a01b0392838092168560015416176001551683600254161760025516906003541617600355604051612b729081620000e78239f35b600080fd5b634e487b7160e01b600052604160045260246000fd5b51906001600160a01b0382168203620000b65756fe61014080604052600436101561002d575b50361561001c57600080fd5b61002834600554612b18565b600555005b60003560e01c90816312ebce3e1461262e57508063155dd5ee146125015780631ab27340146124d057806325fc3e4c146124a75780633577a5ad1461225e578063388a29741461221457806346e30135146120885780635a9aa4e7146101fb5780635aef244714611cff5780635b23c27d14611c845780635c7460d614611c5b57806369b80fc914611c325780636f9fb98a14611c165780637ff0635714611bed5780638b7afe2e14611bcf5780638da4d3c9146103175780639dc5e02f14611a4c5780639f176fdb1461099b578063a377610d14610839578063a888c2cd14610598578063ac16863014610520578063b2dacc02146104c8578063b97533f914610335578063ba4611d914610317578063dbc837c5146102ee578063e2c41dbc1461023a578063e644924b146101fb5763f10b61aa1461016e5738610010565b346101f6576020806003193601126101f6576001600160a01b03610190612764565b1660005260088152604060002090604051908181845491828152019360005281600020916000905b8282106101df576101db856101cf818903826126e1565b604051918291826127c2565b0390f35b8354865294850194600193840193909101906101b8565b600080fd5b346101f65760203660031901126101f6576001600160a01b0361021c612764565b166000526009602052602060ff604060002054166040519015158152f35b60003660031901126101f65761025b60018060a01b03600054163314612a6d565b34156102a95761026d34600554612b18565b600555604080513381523460208201527f543ba50a5eec5e6178218e364b1d0f396157b3c8fa278522c2cb7fd99407d47491819081015b0390a1005b60405162461bcd60e51b815260206004820152601960248201527f4d757374206465706f736974206d6f7265207468616e203021000000000000006044820152606490fd5b346101f65760003660031901126101f6576000546040516001600160a01b039091168152602090f35b346101f65760003660031901126101f6576020600454604051908152f35b346101f6576020806003193601126101f6576004356001600160401b0381116101f65761036690369060040161271d565b600b54600091838101835b838110610464575061038284612b25565b9361039060405195866126e1565b80855261039f601f1991612b25565b01368686013760009160005b8481106103c057604051806101db88826127c2565b6103c98161265b565b9054600391821b1c600052600688526103f26103f9600e60406000200160405192838092612837565b03826126e1565b8881519101208351852014610418575b5061041390612946565b6103ab565b61042382959261265b565b9054911b1c865182101561044e578161044791896104139460051b8a010152612946565b9390610409565b634e487b7160e01b600052603260045260246000fd5b61046d8161265b565b90549060031b1c600052600686526103f2610495600e60406000200160405192838092612837565b86815191012083518320146104b3575b6104ae90612946565b610371565b936104c06104ae91612946565b9490506104a5565b346101f65760403660031901126101f6576104e1612764565b6001600160a01b03166000908152600860205260409020805460243591908210156101f65760209161051291612692565b90546040519160031b1c8152f35b346101f6576020806003193601126101f6576001600160a01b03610542612764565b1660005260078152604060002090604051908181845491828152019360005281600020916000905b828210610581576101db856101cf818903826126e1565b83548652948501946001938401939091019061056a565b346101f65760203660031901126101f657600435600052600660205260406000208054610100528080600160a01b60019003806001830154169060028301541660e05260405190818060038501906105ef91612837565b036105fa90836126e1565b604051918261060c8160048701612837565b0361061790846126e1565b60058401546040518061062d8160068901612837565b0361063890826126e1565b604051806106498160078a01612837565b0361065490826126e1565b60405191826106668160088b01612837565b0361067190846126e1565b60405193846106838160098c01612837565b0361068e90866126e1565b600a89015497600b8a015496600c8b01549860405180600d819e01906106b391612837565b036106be908d6126e1565b60405180809e600e829101906106d391612837565b036106dd916126e1565b6040519d8e806106f081600f8501612837565b036106fa916126e1565b601081015460c0526011810154610120526012015460a052604051806080526101005190526080516020015260e051608051604001526102608060805160600152608051016107489161279d565b608051808203906080015261075c9161279d565b9060805160a001526080518082039060c001526107789161279d565b6080518082039060e0015261078c9161279d565b6080518082039061010001526107a19161279d565b6080518082039061012001526107b69161279d565b92608051610140015260805161016001526080516101800152608051808203906101a001526107e49161279d565b608051808203906101c001526107f99161279d565b608051808203906101e0015261080e9161279d565b60c051608051610200015261012051608051610220015260a051608051610240015260805180910390f35b346101f6576020806003193601126101f65760043590816000526006815260406000209061086982541515612a2e565b60018201546001600160a01b0316330361095757600e820190604051610893816103f28186612837565b8181519101206108a1612955565b82815191012003610914577f1da7cf4c762ca601d655733d36f8f1f9da5907eeea190bc8a9463a407c05aab26102a48585856108e66108e082546127fd565b8261299c565b600e6650656e64696e6760c81b01905542601191909101556040805191825233602083015290918291820190565b6064906040519062461bcd60e51b825280600483015260248201527f436c61696d206e6f74206177616974696e6720636f6e6669726d6174696f6e216044820152fd5b6064906040519062461bcd60e51b82526004820152601960248201527f4f6e6c792070617469656e742063616e20636f6e6669726d21000000000000006044820152fd5b346101f65760c03660031901126101f6576109b4612764565b6024356001600160401b0381116101f6576109d390369060040161271d565b6044356001600160401b0381116101f6576109f290369060040161271d565b906064356001600160401b0381116101f657610a1290369060040161271d565b60a4356001600160401b0381116101f657610a3190369060040161271d565b9060018060a01b036002541693604051630afa082360e01b8152336004820152602081602481895afa9081156116bb57600091611a2d575b50156119ef57600354604051631e2b366f60e31b81526001600160a01b0388811660048301529091169290602081602481875afa9081156116bb576000916119d0575b501561198b576040516379ccb6c560e11b81526001600160a01b0388166004820152602081602481875afa9081156116bb5760009161196c575b501561192757600154604051633a8a740760e11b81526001600160a01b0389811660048301529091169290602081602481875afa9081156116bb57600091611908575b50156118c357604051635923af5760e01b81526001600160a01b0389166004820152602081602481875afa9081156116bb57600091611894575b5015611850576001600160a01b03881660009081526009602052604090205460ff166117ff57608435156117ae57855115611769578451156117245760408051631c8a05ad60e31b81526001600160a01b038a166004820152608435602482015293849060449082905afa9384156116bb576000936000956116e7575b50604051630bd7be4960e41b81526001600160a01b038a1660048201529690600090889060249082905afa9687156116bb576000976116c7575b5060006024979860405198898092633285b82d60e01b82523360048301525afa9687156116bb57600097611696575b50604051610c56816126c6565b6006815265506f6c69637960d01b6020820152610c74600454612946565b978860045560405199610c868b6126aa565b898b526001600160a01b038c1660208c01523360408c015260608b015260808a0152600160a08a015260c089015260e08801526101008701526101208601526084356101408601526101608501526101808401526101a0830152610ce8612955565b6101c08301526040518060208101106001600160401b0360208301111761122f5760208101604052600081526101e083015242610200830152600061022083015260006102408301526000526006602052604060002091815183556001830160018060a01b03602084015116906bffffffffffffffffffffffff60a01b9182825416179055600284019060018060a01b036040850151169082541617905560608201519283516001600160401b03811161122f57610db681610dad60038501546127fd565b600385016129c6565b6020601f821160011461162757819293949560009261161c575b50508160011b916000199060031b1c19161760038201555b60808301519283516001600160401b03811161122f57610e1881610e0f60048601546127fd565b600486016129c6565b6020601f82116001146115ad5781929394956000926115a2575b50508160011b916000199060031b1c19161760048301555b60a0810151600583015560c08101519283516001600160401b03811161122f57610e8481610e7b60068701546127fd565b600687016129c6565b6020601f8211600114611533578192939495600092611528575b50508160011b916000199060031b1c19161760068401555b60e08201519283516001600160401b03811161122f57610ee681610edd60078501546127fd565b600785016129c6565b6020601f82116001146114b95781929394956000926114ae575b50508160011b916000199060031b1c19161760078201555b6101008301519283516001600160401b03811161122f57610f4981610f4060088601546127fd565b600886016129c6565b6020601f821160011461143f578192939495600092611434575b50508160011b916000199060031b1c19161760088301555b6101208101519283516001600160401b03811161122f57610fac81610fa360098701546127fd565b600987016129c6565b6020601f82116001146113c55781929394956000926113ba575b50508160011b916000199060031b1c19161760098401555b610140820151600a840155610160820151600b840155610180820151600c8401556101a08201519283516001600160401b03811161122f5761103081611027600d8501546127fd565b600d85016129c6565b6020601f821160011461134b578192939495600092611340575b50508160011b916000199060031b1c191617600d8201555b6101c08301519283516001600160401b03811161122f576110938161108a600e8601546127fd565b600e86016129c6565b6020601f82116001146112d15781929394956000926112c6575b50508160011b916000199060031b1c191617600e8301555b6101e08101518051906001600160401b03821161122f576110f6826110ed600f8701546127fd565b600f87016129c6565b602090601f83116001146112505791806012949261024094600092611245575b50508160011b916000199060031b1c191617600f8501555b610200810151601085015561022081015160118501550151910155600454600b5491600160401b83101561122f576111ac6080926111938560017f496125846b0e8273879f707f2ee3c888aa2fb21ac034e43d07eaa904357e43779701600b5561265b565b90919082549060031b91821b91600019901b1916179055565b6001600160a01b03811660009081526007602052604090206004546111d091612a0b565b3360005260086020526111ea604060002060045490612a0b565b6001600160a01b0316600081815260096020908152604091829020805460ff1916600117905560045482519081529081019290925233908201526084356060820152a1005b634e487b7160e01b600052604160045260246000fd5b015190508780611116565b90600f850160005260206000209160005b601f19851681106112ae575092601294926001926102409583601f19811610611295575b505050811b01600f85015561112e565b015160001960f88460031b161c19169055878080611285565b91926020600181928685015181550194019201611261565b0151905085806110ad565b600e840160005260206000209060005b601f1984168110611328575060019394959683601f1981161061130f575b505050811b01600e8301556110c5565b015160001960f88460031b161c191690558580806112ff565b9091602060018192858b0151815501930191016112e1565b01519050858061104a565b600d830160005260206000209060005b601f19841681106113a2575060019394959683601f19811610611389575b505050811b01600d820155611062565b015160001960f88460031b161c19169055858080611379565b9091602060018192858b01518155019301910161135b565b015190508580610fc6565b6009850160005260206000209060005b601f198416811061141c575060019394959683601f19811610611403575b505050811b016009840155610fde565b015160001960f88460031b161c191690558580806113f3565b9091602060018192858b0151815501930191016113d5565b015190508580610f63565b6008840160005260206000209060005b601f1984168110611496575060019394959683601f1981161061147d575b505050811b016008830155610f7b565b015160001960f88460031b161c1916905585808061146d565b9091602060018192858b01518155019301910161144f565b015190508580610f00565b6007830160005260206000209060005b601f1984168110611510575060019394959683601f198116106114f7575b505050811b016007820155610f18565b015160001960f88460031b161c191690558580806114e7565b9091602060018192858b0151815501930191016114c9565b015190508580610e9e565b6006850160005260206000209060005b601f198416811061158a575060019394959683601f19811610611571575b505050811b016006840155610eb6565b015160001960f88460031b161c19169055858080611561565b9091602060018192858b015181550193019101611543565b015190508580610e32565b6004840160005260206000209060005b601f1984168110611604575060019394959683601f198116106115eb575b505050811b016004830155610e4a565b015160001960f88460031b161c191690558580806115db565b9091602060018192858b0151815501930191016115bd565b015190508580610dd0565b6003830160005260206000209060005b601f198416811061167e575060019394959683601f19811610611665575b505050811b016003820155610de8565b015160001960f88460031b161c19169055858080611655565b9091602060018192858b015181550193019101611637565b6116b49197503d806000833e6116ac81836126e1565b8101906128e5565b9589610c49565b6040513d6000823e3d90fd5b602497506116e06000913d8084833e6116ac81836126e1565b9750610c1a565b935093506040833d60401161171c575b81611704604093836126e1565b810103126101f6578251602090930151936000610be0565b3d91506116f7565b60405162461bcd60e51b815260206004820152601760248201527f4950465320646f63756d656e74207265717569726564210000000000000000006044820152606490fd5b60405162461bcd60e51b815260206004820152601860248201527f54726561746d656e74206e616d652072657175697265642100000000000000006044820152606490fd5b60405162461bcd60e51b8152602060048201526024808201527f436c61696d20616d6f756e74206d7573742062652067726561746572207468616044820152636e20302160e01b6064820152608490fd5b60405162461bcd60e51b8152602060048201526024808201527f50617469656e7420616c72656164792068617320612070656e64696e6720636c60448201526361696d2160e01b6064820152608490fd5b606460405162461bcd60e51b815260206004820152602060248201527f50617469656e742077616974696e6720706572696f64206e6f74206f766572216044820152fd5b6118b6915060203d6020116118bc575b6118ae81836126e1565b8101906128cd565b89610b63565b503d6118a4565b60405162461bcd60e51b815260206004820152601d60248201527f50617469656e7420686173206e6f2061637469766520706f6c696379210000006044820152606490fd5b611921915060203d6020116118bc576118ae81836126e1565b89610b29565b60405162461bcd60e51b815260206004820152601960248201527f50617469656e74204b5943206e6f7420617070726f76656421000000000000006044820152606490fd5b611985915060203d6020116118bc576118ae81836126e1565b88610ae6565b60405162461bcd60e51b815260206004820152601760248201527f50617469656e74206e6f742072656769737465726564210000000000000000006044820152606490fd5b6119e9915060203d6020116118bc576118ae81836126e1565b88610aac565b60405162461bcd60e51b8152602060048201526016602482015275486f73706974616c206e6f7420617070726f7665642160501b6044820152606490fd5b611a46915060203d6020116118bc576118ae81836126e1565b87610a69565b346101f6576020806003193601126101f6576004359081600052600681526040600020611a7b81541515612a2e565b60018101546001600160a01b03163303611b8a57600e01604051611aa3816103f28185612837565b828151910120611ab1612955565b83815191012003611b2f579160096102a49284611af26108e07fb07c35948b3aa55af6baed77379d187e78a6e78bbe61fc2fe299f400607c441f97546127fd565b60126810d85b98d95b1b195960ba1b01905533600081815292909152604091829020805460ff191690558151928352602083015290918291820190565b60405162461bcd60e51b815260048101839052602d60248201527f43616e206f6e6c792063616e63656c20636c61696d73206177616974696e672060448201526c636f6e6669726d6174696f6e2160981b6064820152608490fd5b60405162461bcd60e51b815260048101839052601860248201527f4f6e6c792070617469656e742063616e2063616e63656c2100000000000000006044820152606490fd5b346101f65760003660031901126101f6576020600554604051908152f35b346101f65760003660031901126101f6576001546040516001600160a01b039091168152602090f35b346101f65760003660031901126101f657602047604051908152f35b346101f65760003660031901126101f6576002546040516001600160a01b039091168152602090f35b346101f65760003660031901126101f6576003546040516001600160a01b039091168152602090f35b346101f65760003660031901126101f65760405180600b5491828152602080910192600b6000527f0175b7a638427703f0dbe7bb9bbf987a2551717b34e79f33b5b1008d1fa01db9916000905b828210611ce8576101db856101cf818903826126e1565b835486529485019460019384019390910190611cd1565b346101f65760203660031901126101f6576000610240604051611d21816126aa565b828152826020820152826040820152606080820152606060808201528260a0820152606060c0820152606060e08201526060610100820152606061012082015282610140820152826101608201528261018082015260606101a082015260606101c082015260606101e0820152826102008201528261022082015201526004356000526006602052608060606040600020601260405191611dc1836126aa565b8054835260018101546001600160a01b03908116602085015260028201541660408085019190915251611dfb816103f28160038601612837565b84840152604051611e13816103f28160048601612837565b85840152600581015460a0840152604051611e35816103f28160068601612837565b60c0840152604051611e4e816103f28160078601612837565b60e0840152604051611e67816103f28160088601612837565b610100840152604051611e81816103f28160098601612837565b610120840152600a810154610140840152600b810154610160840152600c810154610180840152604051611ebc816103f281600d8601612837565b6101a0840152604051611ed6816103f281600e8601612837565b6101c0840152604051611ef0816103f281600f8601612837565b6101e084015260108101546102008401526011810154610220840152015461024082015261024061206561204d612035611ff9611fe1611fc9611fb2611f92611f7c8a6102606040519e8f9e8f93602085528051602086015260018060a01b03602082015116604086015260018060a01b036040820151168286015201519201526102808d019061279d565b60808b01518c8203601f190160a08e015261279d565b60a08a015160c08c015260c08a0151601f198c83030160e08d015261279d565b60e08901518a8203601f19016101008c015261279d565b610100880151898203601f19016101208b015261279d565b610120870151888203601f19016101408a015261279d565b6101408601516101608801526101608601516101808801526101808601516101a08801526101a0860151601f19888303016101c089015261279d565b6101c0850151868203601f19016101e088015261279d565b6101e0840151858203601f190161020087015261279d565b916102008101516102208501526102208101518285015201516102608301520390f35b346101f6576020806003193601126101f6576000546001600160a01b039190600435906120b89084163314612a6d565b80600052600682526040600020916120d283541515612a2e565b600e8301926121056040516120eb816103f28189612837565b8381519101206120f9612ab1565b84815191012014612ad4565b4793600c8201948554116121b65790816121246108e0600294546127fd565b601067105c1c1c9bdd995960c21b0190554260128201558560018201541660005260098352604060002060ff19815416905501926000808080888854168554908282156121ad575bf1156116bb577f0b582d60859bb6c5e17bb049bc83044c0c8dab7d0a026b4e3a4a2966d8926de59460609454169054916040519384528301526040820152a1005b506108fc61216c565b60405162461bcd60e51b815260048101849052603060248201527f496e73756666696369656e7420636f6e74726163742066756e64732120506c6560448201526f30b9b2903232b837b9b4ba1022aa241760811b6064820152608490fd5b346101f65760403660031901126101f65761222d612764565b6001600160a01b03166000908152600760205260409020805460243591908210156101f65760209161051291612692565b346101f65760403660031901126101f6576001600160401b036004356024358281116101f65761229290369060040161271d565b6000546001600160a01b03906122ab9082163314612a6d565b82600052602093600685526040600020906122c882541515612a2e565b600e82016122fa6040516122e0816103f28186612837565b8881519101206122ee612ab1565b89815191012014612ad4565b8451156124625761230e6108e082546127fd565b60106714995a9958dd195960c21b0190558351600f830191811161122f576123408161233a84546127fd565b846129c6565b86601f82116001146123d457926102a49492826001937f43cc3d080e025c67c26d62b18bd442511dc9c76c8aa3f48cc0e8f456173e61f19a9998966000916123c9575b50600019600383901b1c191690841b1790555b42601282015501541660005260098452604060002060ff198154169055604080519485948552840152604083019061279d565b90508601518b612383565b601f1982169083600052886000209160005b81811061244b5750837f43cc3d080e025c67c26d62b18bd442511dc9c76c8aa3f48cc0e8f456173e61f19a999896936102a4989693600196879410612432575b5050811b019055612396565b88015160001960f88460031b161c191690558b80612426565b91928a60018192868c0151815501940192016123e6565b60405162461bcd60e51b815260048101889052601a60248201527f52656a656374696f6e20726561736f6e207265717569726564210000000000006044820152606490fd5b346101f65760203660031901126101f657600435600b548110156101f65761051260209161265b565b346101f65760203660031901126101f657600435600052600a602052602060ff604060002054166040519015158152f35b346101f65760203660031901126101f657600054600435906001600160a01b031661252d338214612a6d565b81156125e9578147106125ac57600554908282039182116125965760008084819493829460055582f1156116bb576040805133815260208101929092527feaff4b37086828766ad3268786972c0cd24259d4c87a80f9d3963a3c3d999b0d9190819081016102a4565b634e487b7160e01b600052601160045260246000fd5b60405162461bcd60e51b8152602060048201526015602482015274496e73756666696369656e742062616c616e63652160581b6044820152606490fd5b60405162461bcd60e51b815260206004820152601e60248201527f416d6f756e74206d7573742062652067726561746572207468616e20302100006044820152606490fd5b346101f65760203660031901126101f657602090600435600052600a825260ff6040600020541615158152f35b600b5481101561044e57600b6000527f0175b7a638427703f0dbe7bb9bbf987a2551717b34e79f33b5b1008d1fa01db90190600090565b805482101561044e5760005260206000200190600090565b61026081019081106001600160401b0382111761122f57604052565b604081019081106001600160401b0382111761122f57604052565b90601f801991011681019081106001600160401b0382111761122f57604052565b6001600160401b03811161122f57601f01601f191660200190565b81601f820112156101f65780359061273482612702565b9261274260405194856126e1565b828452602083830101116101f657816000926020809301838601378301015290565b600435906001600160a01b03821682036101f657565b60005b83811061278d5750506000910152565b818101518382015260200161277d565b906020916127b68151809281855285808601910161277a565b601f01601f1916010190565b6020908160408183019282815285518094520193019160005b8281106127e9575050505090565b8351855293810193928101926001016127db565b90600182811c9216801561282d575b602083101461281757565b634e487b7160e01b600052602260045260246000fd5b91607f169161280c565b9060009291805491612848836127fd565b9182825260019384811690816000146128aa575060011461286a575b50505050565b90919394506000526020928360002092846000945b838610612896575050505001019038808080612864565b80548587018301529401938590820161287f565b9294505050602093945060ff191683830152151560051b01019038808080612864565b908160209103126101f6575180151581036101f65790565b6020818303126101f6578051906001600160401b0382116101f6570181601f820112156101f657805161291781612702565b9261292560405194856126e1565b818452602082840101116101f657612943916020808501910161277a565b90565b60001981146125965760010190565b60405190612962826126c6565b601482527320bbb0b4ba34b733a1b7b73334b936b0ba34b7b760611b6020830152565b818110612990575050565b60008155600101612985565b90601f81116129a9575050565b6129c491600052601f6020600020910160051c810190612985565b565b9190601f81116129d557505050565b6129c4926000526020600020906020601f840160051c83019310612a01575b601f0160051c0190612985565b90915081906129f4565b90815491600160401b83101561122f57826111939160016129c495018155612692565b15612a3557565b60405162461bcd60e51b815260206004820152601060248201526f436c61696d206e6f7420666f756e642160801b6044820152606490fd5b15612a7457565b60405162461bcd60e51b81526020600482015260156024820152744f6e6c7920696e737572657220616c6c6f7765642160581b6044820152606490fd5b60405190612abe826126c6565b600782526650656e64696e6760c81b6020830152565b15612adb57565b60405162461bcd60e51b8152602060048201526015602482015274436c61696d206973206e6f742070656e64696e672160581b6044820152606490fd5b9190820180921161259657565b6001600160401b03811161122f5760051b6020019056fea2646970667358221220ab021b62fe1f327c600ea7536596f88cb7c7aed1da496bfb4c31dd81d80869e264736f6c63430008130033",
  "immutableReferences": {},
  "source": "// SPDX-License-Identifier: MIT\r\npragma solidity ^0.8.0;\r\n\r\n// ================================================================\r\n// Interface to read from PolicyContract\r\n// ================================================================\r\ninterface IPolicyContract {\r\n    function hasSubscription(address patient) external view returns (bool);\r\n    function isWaitingPeriodOver(address patient) external view returns (bool);\r\n    function calculateClaimPayout(address patient, uint256 claimAmount)\r\n        external view returns (uint256 patientPays, uint256 insurerPays);\r\n    function getSubscription(address patient) external view returns (\r\n        address patientAddress,\r\n        uint256 policyId,\r\n        string memory policyName,\r\n        uint256 premiumAmount,\r\n        uint256 coverageLimit,\r\n        uint256 copayPercent,\r\n        uint256 deductible,\r\n        uint256 waitingPeriod,\r\n        uint256 totalPaid,\r\n        uint256 startDate,\r\n        uint256 endDate,\r\n        uint256 nextDueDate,\r\n        uint256 monthsPaid,\r\n        string memory subscriptionStatus,\r\n        string memory paymentStatus,\r\n        uint256 timestamp\r\n    );\r\n}\r\n\r\n// ================================================================\r\n// Interface to read from HospitalRegistry\r\n// ================================================================\r\ninterface IHospitalRegistry {\r\n    function isHospitalApproved(address hospital) external view returns (bool);\r\n    function getHospitalName(address hospital) external view returns (string memory);\r\n}\r\n\r\n// ================================================================\r\n// Interface to read from UserRegistry\r\n// ================================================================\r\ninterface IUserRegistry {\r\n    function checkPatientRegistered(address patient) external view returns (bool);\r\n    function checkPatientApproved(address patient) external view returns (bool);\r\n    function getPatientName(address patient) external view returns (string memory);\r\n}\r\n\r\n// ================================================================\r\n// ClaimContract\r\n// ================================================================\r\ncontract ClaimContract {\r\n\r\n    address public insurer;\r\n    IPolicyContract  public policyContract;\r\n    IHospitalRegistry public hospitalRegistry;\r\n    IUserRegistry    public userRegistry;\r\n\r\n    // ================================\r\n    // STRUCTS\r\n    // ================================\r\n\r\n    struct Claim {\r\n        uint256 claimId;\r\n        address patientAddress;\r\n        address hospitalAddress;\r\n        string  patientName;\r\n        string  hospitalName;\r\n        uint256 policyId;\r\n        string  policyName;\r\n        string  treatmentName;\r\n        string  treatmentDate;\r\n        string  description;\r\n        uint256 claimAmount;\r\n        uint256 patientPays;\r\n        uint256 insurerPays;\r\n        string  ipfsCID;\r\n        string  status;\r\n        string  rejectionReason;\r\n        uint256 submittedOn;\r\n        uint256 confirmedOn;\r\n        uint256 settledOn;\r\n    }\r\n\r\n    // ================================\r\n    // STORAGE\r\n    // ================================\r\n\r\n    uint256 public claimCount;\r\n    uint256 public contractBalance;\r\n\r\n    mapping(uint256 => Claim)         public claims;\r\n    mapping(address => uint256[])     public patientClaims;\r\n    mapping(address => uint256[])     public hospitalClaims;\r\n    mapping(address => bool)          public hasPendingClaim;\r\n    mapping(bytes32 => bool)          public documentHashUsed;  // duplicate detection\r\n\r\n    uint256[] public allClaimIds;\r\n\r\n    // ================================\r\n    // EVENTS\r\n    // ================================\r\n\r\n    event ClaimSubmitted(uint256 claimId, address patient, address hospital, uint256 amount);\r\n    event ClaimConfirmed(uint256 claimId, address patient);\r\n    event ClaimCancelled(uint256 claimId, address patient);\r\n    event ClaimApproved(uint256 claimId, address hospital, uint256 payout);\r\n    event ClaimRejected(uint256 claimId, string reason);\r\n    event FundsDeposited(address insurer, uint256 amount);\r\n    event FundsWithdrawn(address insurer, uint256 amount);\r\n\r\n    // ================================\r\n    // MODIFIERS\r\n    // ================================\r\n\r\n    modifier onlyInsurer() {\r\n        require(msg.sender == insurer, \"Only insurer allowed!\");\r\n        _;\r\n    }\r\n\r\n    modifier onlyApprovedHospital() {\r\n        require(hospitalRegistry.isHospitalApproved(msg.sender), \"Hospital not approved!\");\r\n        _;\r\n    }\r\n\r\n    // ================================\r\n    // CONSTRUCTOR\r\n    // ================================\r\n\r\n    constructor(\r\n        address _policyContract,\r\n        address _hospitalRegistry,\r\n        address _userRegistry\r\n    ) {\r\n        insurer          = msg.sender;\r\n        policyContract   = IPolicyContract(_policyContract);\r\n        hospitalRegistry = IHospitalRegistry(_hospitalRegistry);\r\n        userRegistry     = IUserRegistry(_userRegistry);\r\n    }\r\n\r\n    // ================================================================\r\n    // STEP 1 — HOSPITAL SUBMITS CLAIM\r\n    // ================================================================\r\n\r\n    function submitClaim(\r\n        address patientAddress,\r\n        string memory treatmentName,\r\n        string memory treatmentDate,\r\n        string memory description,\r\n        uint256 claimAmount,\r\n        string memory ipfsCID\r\n    ) public onlyApprovedHospital {\r\n\r\n        require(userRegistry.checkPatientRegistered(patientAddress),  \"Patient not registered!\");\r\n        require(userRegistry.checkPatientApproved(patientAddress),    \"Patient KYC not approved!\");\r\n        require(policyContract.hasSubscription(patientAddress),        \"Patient has no active policy!\");\r\n        require(policyContract.isWaitingPeriodOver(patientAddress),    \"Patient waiting period not over!\");\r\n        require(!hasPendingClaim[patientAddress],                      \"Patient already has a pending claim!\");\r\n        require(claimAmount > 0,                                       \"Claim amount must be greater than 0!\");\r\n        require(bytes(treatmentName).length > 0,                       \"Treatment name required!\");\r\n        require(bytes(ipfsCID).length > 0,                             \"IPFS document required!\");\r\n\r\n        // ── Get payout breakdown from PolicyContract ─────────────\r\n        (uint256 patientPays, uint256 insurerPays) =\r\n            policyContract.calculateClaimPayout(patientAddress, claimAmount);\r\n\r\n        // ── Get names ─────────────────────────────────────────────\r\n        string memory patientName  = userRegistry.getPatientName(patientAddress);\r\n        string memory hospitalName = hospitalRegistry.getHospitalName(msg.sender);\r\n\r\n        // ── Get policy details ────────────────────────────────────────\r\n        uint256 policyId = 1;\r\n        string memory policyName = \"Policy\";\r\n\r\n        // ── Create claim ──────────────────────────────────────────\r\n        claimCount++;\r\n\r\n        claims[claimCount] = Claim({\r\n            claimId:         claimCount,\r\n            patientAddress:  patientAddress,\r\n            hospitalAddress: msg.sender,\r\n            patientName:     patientName,\r\n            hospitalName:    hospitalName,\r\n            policyId:        policyId,\r\n            policyName:      policyName,\r\n            treatmentName:   treatmentName,\r\n            treatmentDate:   treatmentDate,\r\n            description:     description,\r\n            claimAmount:     claimAmount,\r\n            patientPays:     patientPays,\r\n            insurerPays:     insurerPays,\r\n            ipfsCID:         ipfsCID,\r\n            status:          \"AwaitingConfirmation\",\r\n            rejectionReason: \"\",\r\n            submittedOn:     block.timestamp,\r\n            confirmedOn:     0,\r\n            settledOn:       0\r\n        });\r\n\r\n        allClaimIds.push(claimCount);\r\n        patientClaims[patientAddress].push(claimCount);\r\n        hospitalClaims[msg.sender].push(claimCount);\r\n        hasPendingClaim[patientAddress] = true;\r\n\r\n        emit ClaimSubmitted(claimCount, patientAddress, msg.sender, claimAmount);\r\n    }\r\n\r\n    // ================================================================\r\n    // STEP 2A — PATIENT CONFIRMS CLAIM\r\n    // ================================================================\r\n\r\n    function confirmClaim(uint256 claimId) public {\r\n        Claim storage c = claims[claimId];\r\n\r\n        require(c.claimId != 0,                                          \"Claim not found!\");\r\n        require(c.patientAddress == msg.sender,                          \"Only patient can confirm!\");\r\n        require(\r\n            keccak256(bytes(c.status)) == keccak256(bytes(\"AwaitingConfirmation\")),\r\n            \"Claim not awaiting confirmation!\"\r\n        );\r\n\r\n        c.status      = \"Pending\";\r\n        c.confirmedOn = block.timestamp;\r\n\r\n        emit ClaimConfirmed(claimId, msg.sender);\r\n    }\r\n\r\n    // ================================================================\r\n    // STEP 2B — PATIENT CANCELS CLAIM (fraud prevention)\r\n    // ================================================================\r\n\r\n    function cancelClaim(uint256 claimId) public {\r\n        Claim storage c = claims[claimId];\r\n\r\n        require(c.claimId != 0,                \"Claim not found!\");\r\n        require(c.patientAddress == msg.sender, \"Only patient can cancel!\");\r\n        require(\r\n            keccak256(bytes(c.status)) == keccak256(bytes(\"AwaitingConfirmation\")),\r\n            \"Can only cancel claims awaiting confirmation!\"\r\n        );\r\n\r\n        c.status = \"Cancelled\";\r\n        hasPendingClaim[msg.sender] = false;\r\n\r\n        emit ClaimCancelled(claimId, msg.sender);\r\n    }\r\n\r\n    // ================================================================\r\n    // STEP 3A — INSURER APPROVES CLAIM â† AUTO ETH TRANSFER\r\n    // ================================================================\r\n\r\n    function approveClaim(uint256 claimId) public onlyInsurer {\r\n        Claim storage c = claims[claimId];\r\n\r\n        require(c.claimId != 0, \"Claim not found!\");\r\n        require(\r\n            keccak256(bytes(c.status)) == keccak256(bytes(\"Pending\")),\r\n            \"Claim is not pending!\"\r\n        );\r\n        require(\r\n            address(this).balance >= c.insurerPays,\r\n            \"Insufficient contract funds! Please deposit ETH.\"\r\n        );\r\n\r\n        c.status    = \"Approved\";\r\n        c.settledOn = block.timestamp;\r\n        hasPendingClaim[c.patientAddress] = false;\r\n\r\n        // ── Auto transfer ETH to hospital ─────────────────────────\r\n        payable(c.hospitalAddress).transfer(c.insurerPays);\r\n\r\n        emit ClaimApproved(claimId, c.hospitalAddress, c.insurerPays);\r\n    }\r\n\r\n    // ================================================================\r\n    // STEP 3B — INSURER REJECTS CLAIM\r\n    // ================================================================\r\n\r\n    function rejectClaim(uint256 claimId, string memory reason) public onlyInsurer {\r\n        Claim storage c = claims[claimId];\r\n\r\n        require(c.claimId != 0, \"Claim not found!\");\r\n        require(\r\n            keccak256(bytes(c.status)) == keccak256(bytes(\"Pending\")),\r\n            \"Claim is not pending!\"\r\n        );\r\n        require(bytes(reason).length > 0, \"Rejection reason required!\");\r\n\r\n        c.status          = \"Rejected\";\r\n        c.rejectionReason = reason;\r\n        c.settledOn       = block.timestamp;\r\n        hasPendingClaim[c.patientAddress] = false;\r\n\r\n        emit ClaimRejected(claimId, reason);\r\n    }\r\n\r\n    // ================================================================\r\n    // FUND MANAGEMENT — Insurer deposits ETH into contract\r\n    // ================================================================\r\n\r\n    function depositFunds() public payable onlyInsurer {\r\n        require(msg.value > 0, \"Must deposit more than 0!\");\r\n        contractBalance += msg.value;\r\n        emit FundsDeposited(msg.sender, msg.value);\r\n    }\r\n\r\n    function withdrawFunds(uint256 amount) public onlyInsurer {\r\n        require(amount > 0,                        \"Amount must be greater than 0!\");\r\n        require(address(this).balance >= amount,   \"Insufficient balance!\");\r\n        contractBalance -= amount;\r\n        payable(insurer).transfer(amount);\r\n        emit FundsWithdrawn(msg.sender, amount);\r\n    }\r\n\r\n    function getContractBalance() public view returns (uint256) {\r\n        return address(this).balance;\r\n    }\r\n\r\n    // ================================================================\r\n    // VIEW FUNCTIONS\r\n    // ================================================================\r\n\r\n    function getClaim(uint256 claimId) public view returns (Claim memory) {\r\n        return claims[claimId];\r\n    }\r\n\r\n    function getAllClaims() public view returns (uint256[] memory) {\r\n        return allClaimIds;\r\n    }\r\n\r\n    function getPatientClaims(address patient) public view returns (uint256[] memory) {\r\n        return patientClaims[patient];\r\n    }\r\n\r\n    function getHospitalClaims(address hospital) public view returns (uint256[] memory) {\r\n        return hospitalClaims[hospital];\r\n    }\r\n\r\n    function getClaimsByStatus(string memory status) public view returns (uint256[] memory) {\r\n        uint256 count = 0;\r\n        for (uint256 i = 0; i < allClaimIds.length; i++) {\r\n            if (keccak256(bytes(claims[allClaimIds[i]].status)) == keccak256(bytes(status))) {\r\n                count++;\r\n            }\r\n        }\r\n        uint256[] memory result = new uint256[](count);\r\n        uint256 index = 0;\r\n        for (uint256 i = 0; i < allClaimIds.length; i++) {\r\n            if (keccak256(bytes(claims[allClaimIds[i]].status)) == keccak256(bytes(status))) {\r\n                result[index] = allClaimIds[i];\r\n                index++;\r\n            }\r\n        }\r\n        return result;\r\n    }\r\n\r\n    function getClaimCount() public view returns (uint256) {\r\n        return claimCount;\r\n    }\r\n\r\n    function checkHasPendingClaim(address patient) public view returns (bool) {\r\n        return hasPendingClaim[patient];\r\n    }\r\n\r\n    function checkDocumentHash(bytes32 docHash) public view returns (bool) {\r\n        return documentHashUsed[docHash];\r\n    }\r\n\r\n    // ── Allow contract to receive ETH ─────────────────────────────\r\n    receive() external payable {\r\n        contractBalance += msg.value;\r\n    }\r\n}\r\n",
  "sourcePath": "D:\\MedInsure_mid\\contracts\\ClaimContract.sol",
  "compiler": {
    "name": "solc",
    "version": "0.8.19+commit.7dd6d404.Emscripten.clang"
  },
  "schemaVersion": "3.4.16",
  "updatedAt": "2026-03-28T22:24:34.606Z",
  "networkType": "ethereum",
  "devdoc": {
    "kind": "dev",
    "methods": {},
    "version": 1
  },
  "userdoc": {
    "kind": "user",
    "methods": {},
    "version": 1
  }
}