{
  "contractName": "HospitalRegistry",
  "abi": [
    {
      "inputs": [],
      "stateMutability": "nonpayable",
      "type": "constructor"
    },
    {
      "anonymous": false,
      "inputs": [
        {
          "indexed": false,
          "internalType": "uint256",
          "name": "hospitalId",
          "type": "uint256"
        },
        {
          "indexed": false,
          "internalType": "string",
          "name": "name",
          "type": "string"
        },
        {
          "indexed": false,
          "internalType": "string",
          "name": "city",
          "type": "string"
        },
        {
          "indexed": false,
          "internalType": "address",
          "name": "walletAddress",
          "type": "address"
        },
        {
          "indexed": false,
          "internalType": "uint256",
          "name": "timestamp",
          "type": "uint256"
        }
      ],
      "name": "HospitalRegistered",
      "type": "event"
    },
    {
      "inputs": [],
      "name": "hospitalCount",
      "outputs": [
        {
          "internalType": "uint256",
          "name": "",
          "type": "uint256"
        }
      ],
      "stateMutability": "view",
      "type": "function",
      "constant": true
    },
    {
      "inputs": [
        {
          "internalType": "address",
          "name": "",
          "type": "address"
        }
      ],
      "name": "hospitals",
      "outputs": [
        {
          "internalType": "uint256",
          "name": "hospitalId",
          "type": "uint256"
        },
        {
          "internalType": "string",
          "name": "name",
          "type": "string"
        },
        {
          "internalType": "string",
          "name": "location",
          "type": "string"
        },
        {
          "internalType": "string",
          "name": "city",
          "type": "string"
        },
        {
          "internalType": "string",
          "name": "state",
          "type": "string"
        },
        {
          "internalType": "string",
          "name": "pincode",
          "type": "string"
        },
        {
          "internalType": "string",
          "name": "licenseNumber",
          "type": "string"
        },
        {
          "internalType": "address",
          "name": "walletAddress",
          "type": "address"
        },
        {
          "internalType": "string",
          "name": "status",
          "type": "string"
        },
        {
          "internalType": "uint256",
          "name": "timestamp",
          "type": "uint256"
        }
      ],
      "stateMutability": "view",
      "type": "function",
      "constant": true
    },
    {
      "inputs": [],
      "name": "insurer",
      "outputs": [
        {
          "internalType": "address",
          "name": "",
          "type": "address"
        }
      ],
      "stateMutability": "view",
      "type": "function",
      "constant": true
    },
    {
      "inputs": [
        {
          "internalType": "address",
          "name": "",
          "type": "address"
        }
      ],
      "name": "isApprovedHospital",
      "outputs": [
        {
          "internalType": "bool",
          "name": "",
          "type": "bool"
        }
      ],
      "stateMutability": "view",
      "type": "function",
      "constant": true
    },
    {
      "inputs": [
        {
          "internalType": "address",
          "name": "",
          "type": "address"
        }
      ],
      "name": "isRegistered",
      "outputs": [
        {
          "internalType": "bool",
          "name": "",
          "type": "bool"
        }
      ],
      "stateMutability": "view",
      "type": "function",
      "constant": true
    },
    {
      "inputs": [
        {
          "internalType": "string",
          "name": "_name",
          "type": "string"
        },
        {
          "internalType": "string",
          "name": "_location",
          "type": "string"
        },
        {
          "internalType": "string",
          "name": "_city",
          "type": "string"
        },
        {
          "internalType": "string",
          "name": "_state",
          "type": "string"
        },
        {
          "internalType": "string",
          "name": "_pincode",
          "type": "string"
        },
        {
          "internalType": "string",
          "name": "_licenseNumber",
          "type": "string"
        },
        {
          "internalType": "address",
          "name": "_walletAddress",
          "type": "address"
        }
      ],
      "name": "registerHospital",
      "outputs": [],
      "stateMutability": "nonpayable",
      "type": "function"
    },
    {
      "inputs": [
        {
          "internalType": "address",
          "name": "_walletAddress",
          "type": "address"
        }
      ],
      "name": "getHospital",
      "outputs": [
        {
          "components": [
            {
              "internalType": "uint256",
              "name": "hospitalId",
              "type": "uint256"
            },
            {
              "internalType": "string",
              "name": "name",
              "type": "string"
            },
            {
              "internalType": "string",
              "name": "location",
              "type": "string"
            },
            {
              "internalType": "string",
              "name": "city",
              "type": "string"
            },
            {
              "internalType": "string",
              "name": "state",
              "type": "string"
            },
            {
              "internalType": "string",
              "name": "pincode",
              "type": "string"
            },
            {
              "internalType": "string",
              "name": "licenseNumber",
              "type": "string"
            },
            {
              "internalType": "address",
              "name": "walletAddress",
              "type": "address"
            },
            {
              "internalType": "string",
              "name": "status",
              "type": "string"
            },
            {
              "internalType": "uint256",
              "name": "timestamp",
              "type": "uint256"
            }
          ],
          "internalType": "struct HospitalRegistry.Hospital",
          "name": "",
          "type": "tuple"
        }
      ],
      "stateMutability": "view",
      "type": "function",
      "constant": true
    },
    {
      "inputs": [
        {
          "internalType": "address",
          "name": "_walletAddress",
          "type": "address"
        }
      ],
      "name": "checkHospital",
      "outputs": [
        {
          "internalType": "bool",
          "name": "",
          "type": "bool"
        }
      ],
      "stateMutability": "view",
      "type": "function",
      "constant": true
    },
    {
      "inputs": [
        {
          "internalType": "address",
          "name": "_walletAddress",
          "type": "address"
        }
      ],
      "name": "isHospitalApproved",
      "outputs": [
        {
          "internalType": "bool",
          "name": "",
          "type": "bool"
        }
      ],
      "stateMutability": "view",
      "type": "function",
      "constant": true
    },
    {
      "inputs": [
        {
          "internalType": "address",
          "name": "_walletAddress",
          "type": "address"
        }
      ],
      "name": "getHospitalName",
      "outputs": [
        {
          "internalType": "string",
          "name": "",
          "type": "string"
        }
      ],
      "stateMutability": "view",
      "type": "function",
      "constant": true
    }
  ],
  "bytecode": "0x6080806040523461002d576000600181905580546001600160a01b0319163317905561133b90816100338239f35b600080fdfe608080604052600436101561001357600080fd5b60003560e01c90816307316e70146110b5575080630afa0823146104445780632ed0e9cb146105105780633285b82d146104a1578063350dadb7146104835780634f3b8b9914610444578063c3c5a54714610405578063c49b09b5146101eb578063dbc837c5146101c25763f093cf801461008d57600080fd5b346101bd5760203660031901126101bd576001600160a01b03806100af6110f0565b166000526002602052604060002090815490600183016100ce90611213565b926100db60028201611213565b916100e860038301611213565b906100f560048401611213565b61010160058501611213565b9061010e60068601611213565b92600786015416936008860161012390611213565b956009015496604051998a998a526101408060208c01528a0161014591611199565b89810360408b015261015691611199565b88810360608a015261016791611199565b878103608089015261017891611199565b86810360a088015261018991611199565b85810360c087015261019a91611199565b9060e08501528381036101008501526101b291611199565b906101208301520390f35b600080fd5b346101bd5760003660031901126101bd576000546040516001600160a01b039091168152602090f35b346101bd5760203660031901126101bd576102046110f0565b600061012060405161021581611106565b828152606060208201526060604082015260608082015260606080820152606060a0820152606060c08201528260e08201526060610100820152015260018060a01b031680600052600360205261027360ff604060002054166112b9565b6000526002602052604060002060096040519161028f83611106565b8054835261029f60018201611213565b60208401526102b060028201611213565b60408401526102c160038201611213565b60608401526102d260048201611213565b60808401526102e360058201611213565b60a08401526102f460068201611213565b60c084015260078101546001600160a01b031660e084015261031860088201611213565b61010084015201546101208201526040518091602082528051602083015260208101516101206103fa61035961014093846040880152610160870190611199565b6103d26103be6103aa61039661038260408a015195601f19968c60608982850301910152611199565b60608a0151868c83030160808d0152611199565b6080890151858b83030160a08c0152611199565b60a0880151848a83030160c08b0152611199565b60c0870151838983030160e08a0152611199565b9060018060a01b0360e087015116610100880152610100860151908783030184880152611199565b920151908301520390f35b346101bd5760203660031901126101bd576001600160a01b036104266110f0565b166000526003602052602060ff604060002054166040519015158152f35b346101bd5760203660031901126101bd576001600160a01b036104656110f0565b166000526004602052602060ff604060002054166040519015158152f35b346101bd5760003660031901126101bd576020600154604051908152f35b346101bd5760203660031901126101bd576001600160a01b036104c26110f0565b168060005260036020526104dd60ff604060002054166112b9565b600052600260205261050c6104f86001604060002001611213565b604051918291602083526020830190611199565b0390f35b346101bd5760e03660031901126101bd576004356001600160401b0381116101bd57610540903690600401611143565b6024356001600160401b0381116101bd5761055f903690600401611143565b906044356001600160401b0381116101bd5761057f903690600401611143565b6064356001600160401b0381116101bd5761059e903690600401611143565b6084356001600160401b0381116101bd576105bd903690600401611143565b60a4356001600160401b0381116101bd576105dc903690600401611143565b60c435929091906001600160a01b03841684036101bd576000546001600160a01b03163303611070576001600160a01b03841660009081526003602052604090205460ff1661102b5760015496600019881461101557600188016001556001604051986106488a611106565b0188528660208901526040880152846060880152608087015260a086015260c085015260018060a01b03811660e08501526040518060408101106001600160401b03604083011117610b1f5760408101604052600681526541637469766560d01b60208201526101008501524261012085015260018060a01b038116600052600260205260406000208451815560208501518051906001600160401b038211610b1f5781906106fa60018501546111d9565b601f8111610fc2575b50602090601f8311600114610f5057600092610f45575b50508160011b916000199060031b1c19161760018201555b60408501518051906001600160401b038211610b1f57819061075760028501546111d9565b601f8111610ef2575b50602090601f8311600114610e8057600092610e75575b50508160011b916000199060031b1c19161760028201555b60608501518051906001600160401b038211610b1f5781906107b460038501546111d9565b601f8111610e22575b50602090601f8311600114610db057600092610da5575b50508160011b916000199060031b1c19161760038201555b60808501518051906001600160401b038211610b1f57819061081160048501546111d9565b601f8111610d52575b50602090601f8311600114610ce057600092610cd5575b50508160011b916000199060031b1c19161760048201555b60a08501518051906001600160401b038211610b1f57819061086e60058501546111d9565b601f8111610c82575b50602090601f8311600114610c1057600092610c05575b50508160011b916000199060031b1c19161760058201555b60c08501518051906001600160401b038211610b1f5781906108cb60068501546111d9565b601f8111610bb2575b50602090601f8311600114610b4057600092610b35575b50508160011b916000199060031b1c19161760068201555b6007810160018060a01b0360e0870151166bffffffffffffffffffffffff60a01b8254161790556101008501519485516001600160401b038111610b1f5761094e60088401546111d9565b601f8111610ad8575b506020601f8211600114610a42579181610120926009947fdb747e1fe98df8d3a1970d8c2599365d8a61f804943b4c866584e1baae6b99da9a600092610a37575b50508160011b916000199060031b1c19161760088501555b015191015560018060a01b0381166000526003602052604060002060ff199060018282541617905560046020526001604060002091825416179055610a1c60015492610a0e604051958695865260a0602087015260a0860190611199565b908482036040860152611199565b6001600160a01b0390911660608301524260808301520390a1005b015190508a80610998565b6008840160005260206000209760005b601f1984168110610ac05750827fdb747e1fe98df8d3a1970d8c2599365d8a61f804943b4c866584e1baae6b99da996009959360019361012096601f19811610610aa7575b505050811b0160088501556109b0565b015160001960f88460031b161c191690558a8080610a97565b828201518a5560019099019860209283019201610a52565b600884016000526020600020601f830160051c810160208410610b18575b601f830160051c82018110610b0c575050610957565b60008155600101610af6565b5080610af6565b634e487b7160e01b600052604160045260246000fd5b0151905087806108eb565b9250600684016000526020600020906000935b601f1984168510610b97576001945083601f19811610610b7e575b505050811b016006820155610903565b015160001960f88460031b161c19169055878080610b6e565b81810151835560209485019460019093019290910190610b53565b909150600684016000526020600020601f840160051c810160208510610bfe575b90849392915b601f830160051c82018110610bef5750506108d4565b60008155859450600101610bd9565b5080610bd3565b01519050878061088e565b9250600584016000526020600020906000935b601f1984168510610c67576001945083601f19811610610c4e575b505050811b0160058201556108a6565b015160001960f88460031b161c19169055878080610c3e565b81810151835560209485019460019093019290910190610c23565b909150600584016000526020600020601f840160051c810160208510610cce575b90849392915b601f830160051c82018110610cbf575050610877565b60008155859450600101610ca9565b5080610ca3565b015190508780610831565b9250600484016000526020600020906000935b601f1984168510610d37576001945083601f19811610610d1e575b505050811b016004820155610849565b015160001960f88460031b161c19169055878080610d0e565b81810151835560209485019460019093019290910190610cf3565b909150600484016000526020600020601f840160051c810160208510610d9e575b90849392915b601f830160051c82018110610d8f57505061081a565b60008155859450600101610d79565b5080610d73565b0151905087806107d4565b9250600384016000526020600020906000935b601f1984168510610e07576001945083601f19811610610dee575b505050811b0160038201556107ec565b015160001960f88460031b161c19169055878080610dde565b81810151835560209485019460019093019290910190610dc3565b909150600384016000526020600020601f840160051c810160208510610e6e575b90849392915b601f830160051c82018110610e5f5750506107bd565b60008155859450600101610e49565b5080610e43565b015190508780610777565b9250600284016000526020600020906000935b601f1984168510610ed7576001945083601f19811610610ebe575b505050811b01600282015561078f565b015160001960f88460031b161c19169055878080610eae565b81810151835560209485019460019093019290910190610e93565b909150600284016000526020600020601f840160051c810160208510610f3e575b90849392915b601f830160051c82018110610f2f575050610760565b60008155859450600101610f19565b5080610f13565b01519050878061071a565b9250600184016000526020600020906000935b601f1984168510610fa7576001945083601f19811610610f8e575b505050811b016001820155610732565b015160001960f88460031b161c19169055878080610f7e565b81810151835560209485019460019093019290910190610f63565b909150600184016000526020600020601f840160051c81016020851061100e575b90849392915b601f830160051c82018110610fff575050610703565b60008155859450600101610fe9565b5080610fe3565b634e487b7160e01b600052601160045260246000fd5b60405162461bcd60e51b815260206004820152601b60248201527f486f73706974616c20616c7265616479207265676973746572656400000000006044820152606490fd5b60405162461bcd60e51b815260206004820152601860248201527f4f6e6c7920696e73757265722063616e20646f207468697300000000000000006044820152606490fd5b346101bd5760203660031901126101bd576020906001600160a01b036110d96110f0565b166000526003825260ff6040600020541615158152f35b600435906001600160a01b03821682036101bd57565b61014081019081106001600160401b03821117610b1f57604052565b90601f801991011681019081106001600160401b03821117610b1f57604052565b81601f820112156101bd578035906001600160401b038211610b1f5760405192611177601f8401601f191660200185611122565b828452602083830101116101bd57816000926020809301838601378301015290565b919082519283825260005b8481106111c5575050826000602080949584010152601f8019910116010190565b6020818301810151848301820152016111a4565b90600182811c92168015611209575b60208310146111f357565b634e487b7160e01b600052602260045260246000fd5b91607f16916111e8565b9060405191826000825492611227846111d9565b9081845260019485811690816000146112965750600114611253575b505061125192500383611122565b565b9093915060005260209081600020936000915b81831061127e57505061125193508201013880611243565b85548884018501529485019487945091830191611266565b91505061125194506020925060ff191682840152151560051b8201013880611243565b156112c057565b60405162461bcd60e51b815260206004820152601760248201527f486f73706974616c206e6f7420726567697374657265640000000000000000006044820152606490fdfea2646970667358221220f2a208a1586af445b52bee387a472233ada94a539ac9d2bbabfd5e300bb2d09464736f6c63430008130033",
  "immutableReferences": {},
  "source": "// SPDX-License-Identifier: MIT\r\npragma solidity ^0.8.0;\r\n\r\ncontract HospitalRegistry {\r\n\r\n    address public insurer;\r\n\r\n    struct Hospital {\r\n        uint hospitalId;\r\n        string name;\r\n        string location;\r\n        string city;\r\n        string state;\r\n        string pincode;\r\n        string licenseNumber;\r\n        address walletAddress;\r\n        string status;\r\n        uint timestamp;\r\n    }\r\n\r\n    uint public hospitalCount = 0;\r\n\r\n    mapping(address => Hospital) public hospitals;\r\n    mapping(address => bool) public isRegistered;\r\n    mapping(address => bool) public isApprovedHospital;\r\n\r\n    event HospitalRegistered(uint hospitalId, string name, string city, address walletAddress, uint timestamp);\r\n\r\n    modifier onlyInsurer() {\r\n        require(msg.sender == insurer, \"Only insurer can do this\");\r\n        _;\r\n    }\r\n\r\n    constructor() {\r\n        insurer = msg.sender;\r\n    }\r\n\r\n    function registerHospital(\r\n        string memory _name,\r\n        string memory _location,\r\n        string memory _city,\r\n        string memory _state,\r\n        string memory _pincode,\r\n        string memory _licenseNumber,\r\n        address _walletAddress\r\n    ) public onlyInsurer {\r\n        require(!isRegistered[_walletAddress], \"Hospital already registered\");\r\n\r\n        hospitalCount++;\r\n\r\n        hospitals[_walletAddress] = Hospital(\r\n            hospitalCount,\r\n            _name,\r\n            _location,\r\n            _city,\r\n            _state,\r\n            _pincode,\r\n            _licenseNumber,\r\n            _walletAddress,\r\n            \"Active\",\r\n            block.timestamp\r\n        );\r\n\r\n        isRegistered[_walletAddress]       = true;\r\n        isApprovedHospital[_walletAddress] = true;\r\n\r\n        emit HospitalRegistered(hospitalCount, _name, _city, _walletAddress, block.timestamp);\r\n    }\r\n\r\n    function getHospital(address _walletAddress) public view returns (Hospital memory) {\r\n        require(isRegistered[_walletAddress], \"Hospital not registered\");\r\n        return hospitals[_walletAddress];\r\n    }\r\n\r\n    function checkHospital(address _walletAddress) public view returns (bool) {\r\n        return isRegistered[_walletAddress];\r\n    }\r\n\r\n    // ================================\r\n    // ADDED FOR CLAIM CONTRACT\r\n    // ================================\r\n    function isHospitalApproved(address _walletAddress) public view returns (bool) {\r\n        return isApprovedHospital[_walletAddress];\r\n    }\r\n\r\n    function getHospitalName(address _walletAddress) public view returns (string memory) {\r\n        require(isRegistered[_walletAddress], \"Hospital not registered\");\r\n        return hospitals[_walletAddress].name;\r\n    }\r\n}\r\n",
  "sourcePath": "D:\\MedInsure_mid\\contracts\\HospitalRegistry.sol",
  "compiler": {
    "name": "solc",
    "version": "0.8.19+commit.7dd6d404.Emscripten.clang"
  },
  "schemaVersion": "3.4.16",
  "updatedAt": "2026-04-04T20:26:54.191Z",
  "networkType": "ethereum",
  "devdoc": {
    "kind": "dev",
    "methods": {},
    "version": 1
  },
  "userdoc": {
    "kind": "user",
    "methods": {},
    "version": 1
  }
}