{
  "contractName": "PolicyContract",
  "abi": [
    {
      "inputs": [],
      "stateMutability": "nonpayable",
      "type": "constructor"
    },
    {
      "anonymous": false,
      "inputs": [
        {
          "indexed": false,
          "internalType": "address",
          "name": "patient",
          "type": "address"
        },
        {
          "indexed": false,
          "internalType": "uint256",
          "name": "amount",
          "type": "uint256"
        },
        {
          "indexed": false,
          "internalType": "uint256",
          "name": "monthNumber",
          "type": "uint256"
        }
      ],
      "name": "MonthlyPremiumPaid",
      "type": "event"
    },
    {
      "anonymous": false,
      "inputs": [
        {
          "indexed": false,
          "internalType": "uint256",
          "name": "policyId",
          "type": "uint256"
        },
        {
          "indexed": false,
          "internalType": "string",
          "name": "policyName",
          "type": "string"
        }
      ],
      "name": "PolicyCreated",
      "type": "event"
    },
    {
      "anonymous": false,
      "inputs": [
        {
          "indexed": false,
          "internalType": "address",
          "name": "patient",
          "type": "address"
        }
      ],
      "name": "PolicyReactivated",
      "type": "event"
    },
    {
      "anonymous": false,
      "inputs": [
        {
          "indexed": false,
          "internalType": "address",
          "name": "patient",
          "type": "address"
        },
        {
          "indexed": false,
          "internalType": "uint256",
          "name": "policyId",
          "type": "uint256"
        },
        {
          "indexed": false,
          "internalType": "string",
          "name": "policyName",
          "type": "string"
        }
      ],
      "name": "PolicySubscribed",
      "type": "event"
    },
    {
      "anonymous": false,
      "inputs": [
        {
          "indexed": false,
          "internalType": "address",
          "name": "patient",
          "type": "address"
        },
        {
          "indexed": false,
          "internalType": "string",
          "name": "reason",
          "type": "string"
        }
      ],
      "name": "PolicySuspended",
      "type": "event"
    },
    {
      "inputs": [
        {
          "internalType": "uint256",
          "name": "",
          "type": "uint256"
        }
      ],
      "name": "allPolicyIds",
      "outputs": [
        {
          "internalType": "uint256",
          "name": "",
          "type": "uint256"
        }
      ],
      "stateMutability": "view",
      "type": "function",
      "constant": true
    },
    {
      "inputs": [
        {
          "internalType": "address",
          "name": "",
          "type": "address"
        }
      ],
      "name": "hasSubscription",
      "outputs": [
        {
          "internalType": "bool",
          "name": "",
          "type": "bool"
        }
      ],
      "stateMutability": "view",
      "type": "function",
      "constant": true
    },
    {
      "inputs": [],
      "name": "insurer",
      "outputs": [
        {
          "internalType": "address",
          "name": "",
          "type": "address"
        }
      ],
      "stateMutability": "view",
      "type": "function",
      "constant": true
    },
    {
      "inputs": [
        {
          "internalType": "address",
          "name": "",
          "type": "address"
        },
        {
          "internalType": "uint256",
          "name": "",
          "type": "uint256"
        }
      ],
      "name": "paymentHistory",
      "outputs": [
        {
          "internalType": "uint256",
          "name": "amount",
          "type": "uint256"
        },
        {
          "internalType": "uint256",
          "name": "paidOn",
          "type": "uint256"
        },
        {
          "internalType": "uint256",
          "name": "monthNumber",
          "type": "uint256"
        },
        {
          "internalType": "string",
          "name": "status",
          "type": "string"
        }
      ],
      "stateMutability": "view",
      "type": "function",
      "constant": true
    },
    {
      "inputs": [
        {
          "internalType": "uint256",
          "name": "",
          "type": "uint256"
        }
      ],
      "name": "policies",
      "outputs": [
        {
          "internalType": "uint256",
          "name": "policyId",
          "type": "uint256"
        },
        {
          "internalType": "string",
          "name": "policyName",
          "type": "string"
        },
        {
          "internalType": "uint256",
          "name": "coverageLimit",
          "type": "uint256"
        },
        {
          "internalType": "uint256",
          "name": "premiumAmount",
          "type": "uint256"
        },
        {
          "internalType": "uint256",
          "name": "validityPeriod",
          "type": "uint256"
        },
        {
          "internalType": "uint256",
          "name": "copayPercent",
          "type": "uint256"
        },
        {
          "internalType": "uint256",
          "name": "deductible",
          "type": "uint256"
        },
        {
          "internalType": "uint256",
          "name": "waitingPeriod",
          "type": "uint256"
        },
        {
          "internalType": "string",
          "name": "ipfsCID",
          "type": "string"
        },
        {
          "internalType": "string",
          "name": "covered",
          "type": "string"
        },
        {
          "internalType": "string",
          "name": "excluded",
          "type": "string"
        },
        {
          "internalType": "string",
          "name": "status",
          "type": "string"
        },
        {
          "internalType": "uint256",
          "name": "timestamp",
          "type": "uint256"
        }
      ],
      "stateMutability": "view",
      "type": "function",
      "constant": true
    },
    {
      "inputs": [],
      "name": "policyCount",
      "outputs": [
        {
          "internalType": "uint256",
          "name": "",
          "type": "uint256"
        }
      ],
      "stateMutability": "view",
      "type": "function",
      "constant": true
    },
    {
      "inputs": [],
      "name": "subscriptionCount",
      "outputs": [
        {
          "internalType": "uint256",
          "name": "",
          "type": "uint256"
        }
      ],
      "stateMutability": "view",
      "type": "function",
      "constant": true
    },
    {
      "inputs": [
        {
          "internalType": "address",
          "name": "",
          "type": "address"
        }
      ],
      "name": "subscriptions",
      "outputs": [
        {
          "internalType": "address",
          "name": "patientAddress",
          "type": "address"
        },
        {
          "internalType": "uint256",
          "name": "policyId",
          "type": "uint256"
        },
        {
          "internalType": "string",
          "name": "policyName",
          "type": "string"
        },
        {
          "internalType": "uint256",
          "name": "premiumAmount",
          "type": "uint256"
        },
        {
          "internalType": "uint256",
          "name": "coverageLimit",
          "type": "uint256"
        },
        {
          "internalType": "uint256",
          "name": "copayPercent",
          "type": "uint256"
        },
        {
          "internalType": "uint256",
          "name": "deductible",
          "type": "uint256"
        },
        {
          "internalType": "uint256",
          "name": "waitingPeriod",
          "type": "uint256"
        },
        {
          "internalType": "uint256",
          "name": "totalPaid",
          "type": "uint256"
        },
        {
          "internalType": "uint256",
          "name": "startDate",
          "type": "uint256"
        },
        {
          "internalType": "uint256",
          "name": "endDate",
          "type": "uint256"
        },
        {
          "internalType": "uint256",
          "name": "nextDueDate",
          "type": "uint256"
        },
        {
          "internalType": "uint256",
          "name": "monthsPaid",
          "type": "uint256"
        },
        {
          "internalType": "string",
          "name": "subscriptionStatus",
          "type": "string"
        },
        {
          "internalType": "string",
          "name": "paymentStatus",
          "type": "string"
        },
        {
          "internalType": "uint256",
          "name": "timestamp",
          "type": "uint256"
        }
      ],
      "stateMutability": "view",
      "type": "function",
      "constant": true
    },
    {
      "inputs": [
        {
          "components": [
            {
              "internalType": "string",
              "name": "policyName",
              "type": "string"
            },
            {
              "internalType": "uint256",
              "name": "coverageLimit",
              "type": "uint256"
            },
            {
              "internalType": "uint256",
              "name": "premiumAmount",
              "type": "uint256"
            },
            {
              "internalType": "uint256",
              "name": "validityPeriod",
              "type": "uint256"
            },
            {
              "internalType": "uint256",
              "name": "copayPercent",
              "type": "uint256"
            },
            {
              "internalType": "uint256",
              "name": "deductible",
              "type": "uint256"
            },
            {
              "internalType": "uint256",
              "name": "waitingPeriod",
              "type": "uint256"
            },
            {
              "internalType": "string",
              "name": "ipfsCID",
              "type": "string"
            },
            {
              "internalType": "string",
              "name": "covered",
              "type": "string"
            },
            {
              "internalType": "string",
              "name": "excluded",
              "type": "string"
            }
          ],
          "internalType": "struct PolicyContract.PolicyInput",
          "name": "input",
          "type": "tuple"
        }
      ],
      "name": "createPolicy",
      "outputs": [],
      "stateMutability": "nonpayable",
      "type": "function"
    },
    {
      "inputs": [
        {
          "internalType": "uint256",
          "name": "policyId",
          "type": "uint256"
        }
      ],
      "name": "subscribePolicy",
      "outputs": [],
      "stateMutability": "payable",
      "type": "function",
      "payable": true
    },
    {
      "inputs": [],
      "name": "payMonthlyPremium",
      "outputs": [],
      "stateMutability": "payable",
      "type": "function",
      "payable": true
    },
    {
      "inputs": [
        {
          "internalType": "address",
          "name": "patient",
          "type": "address"
        }
      ],
      "name": "checkPaymentStatus",
      "outputs": [],
      "stateMutability": "nonpayable",
      "type": "function"
    },
    {
      "inputs": [
        {
          "internalType": "address",
          "name": "patient",
          "type": "address"
        }
      ],
      "name": "isWaitingPeriodOver",
      "outputs": [
        {
          "internalType": "bool",
          "name": "",
          "type": "bool"
        }
      ],
      "stateMutability": "view",
      "type": "function",
      "constant": true
    },
    {
      "inputs": [
        {
          "internalType": "address",
          "name": "patient",
          "type": "address"
        },
        {
          "internalType": "uint256",
          "name": "claimAmount",
          "type": "uint256"
        }
      ],
      "name": "calculateClaimPayout",
      "outputs": [
        {
          "internalType": "uint256",
          "name": "patientPays",
          "type": "uint256"
        },
        {
          "internalType": "uint256",
          "name": "insurerPays",
          "type": "uint256"
        }
      ],
      "stateMutability": "view",
      "type": "function",
      "constant": true
    },
    {
      "inputs": [],
      "name": "getAllPolicies",
      "outputs": [
        {
          "internalType": "uint256[]",
          "name": "",
          "type": "uint256[]"
        }
      ],
      "stateMutability": "view",
      "type": "function",
      "constant": true
    },
    {
      "inputs": [
        {
          "internalType": "uint256",
          "name": "policyId",
          "type": "uint256"
        }
      ],
      "name": "getPolicy",
      "outputs": [
        {
          "components": [
            {
              "internalType": "uint256",
              "name": "policyId",
              "type": "uint256"
            },
            {
              "internalType": "string",
              "name": "policyName",
              "type": "string"
            },
            {
              "internalType": "uint256",
              "name": "coverageLimit",
              "type": "uint256"
            },
            {
              "internalType": "uint256",
              "name": "premiumAmount",
              "type": "uint256"
            },
            {
              "internalType": "uint256",
              "name": "validityPeriod",
              "type": "uint256"
            },
            {
              "internalType": "uint256",
              "name": "copayPercent",
              "type": "uint256"
            },
            {
              "internalType": "uint256",
              "name": "deductible",
              "type": "uint256"
            },
            {
              "internalType": "uint256",
              "name": "waitingPeriod",
              "type": "uint256"
            },
            {
              "internalType": "string",
              "name": "ipfsCID",
              "type": "string"
            },
            {
              "internalType": "string",
              "name": "covered",
              "type": "string"
            },
            {
              "internalType": "string",
              "name": "excluded",
              "type": "string"
            },
            {
              "internalType": "string",
              "name": "status",
              "type": "string"
            },
            {
              "internalType": "uint256",
              "name": "timestamp",
              "type": "uint256"
            }
          ],
          "internalType": "struct PolicyContract.Policy",
          "name": "",
          "type": "tuple"
        }
      ],
      "stateMutability": "view",
      "type": "function",
      "constant": true
    },
    {
      "inputs": [
        {
          "internalType": "address",
          "name": "patient",
          "type": "address"
        }
      ],
      "name": "getSubscription",
      "outputs": [
        {
          "components": [
            {
              "internalType": "address",
              "name": "patientAddress",
              "type": "address"
            },
            {
              "internalType": "uint256",
              "name": "policyId",
              "type": "uint256"
            },
            {
              "internalType": "string",
              "name": "policyName",
              "type": "string"
            },
            {
              "internalType": "uint256",
              "name": "premiumAmount",
              "type": "uint256"
            },
            {
              "internalType": "uint256",
              "name": "coverageLimit",
              "type": "uint256"
            },
            {
              "internalType": "uint256",
              "name": "copayPercent",
              "type": "uint256"
            },
            {
              "internalType": "uint256",
              "name": "deductible",
              "type": "uint256"
            },
            {
              "internalType": "uint256",
              "name": "waitingPeriod",
              "type": "uint256"
            },
            {
              "internalType": "uint256",
              "name": "totalPaid",
              "type": "uint256"
            },
            {
              "internalType": "uint256",
              "name": "startDate",
              "type": "uint256"
            },
            {
              "internalType": "uint256",
              "name": "endDate",
              "type": "uint256"
            },
            {
              "internalType": "uint256",
              "name": "nextDueDate",
              "type": "uint256"
            },
            {
              "internalType": "uint256",
              "name": "monthsPaid",
              "type": "uint256"
            },
            {
              "internalType": "string",
              "name": "subscriptionStatus",
              "type": "string"
            },
            {
              "internalType": "string",
              "name": "paymentStatus",
              "type": "string"
            },
            {
              "internalType": "uint256",
              "name": "timestamp",
              "type": "uint256"
            }
          ],
          "internalType": "struct PolicyContract.Subscription",
          "name": "",
          "type": "tuple"
        }
      ],
      "stateMutability": "view",
      "type": "function",
      "constant": true
    },
    {
      "inputs": [
        {
          "internalType": "address",
          "name": "patient",
          "type": "address"
        }
      ],
      "name": "getPaymentHistory",
      "outputs": [
        {
          "components": [
            {
              "internalType": "uint256",
              "name": "amount",
              "type": "uint256"
            },
            {
              "internalType": "uint256",
              "name": "paidOn",
              "type": "uint256"
            },
            {
              "internalType": "uint256",
              "name": "monthNumber",
              "type": "uint256"
            },
            {
              "internalType": "string",
              "name": "status",
              "type": "string"
            }
          ],
          "internalType": "struct PolicyContract.PaymentRecord[]",
          "name": "",
          "type": "tuple[]"
        }
      ],
      "stateMutability": "view",
      "type": "function",
      "constant": true
    },
    {
      "inputs": [
        {
          "internalType": "address",
          "name": "patient",
          "type": "address"
        }
      ],
      "name": "checkActivePolicy",
      "outputs": [
        {
          "internalType": "bool",
          "name": "",
          "type": "bool"
        }
      ],
      "stateMutability": "view",
      "type": "function",
      "constant": true
    },
    {
      "inputs": [
        {
          "internalType": "address",
          "name": "patient",
          "type": "address"
        }
      ],
      "name": "isPaymentDue",
      "outputs": [
        {
          "internalType": "bool",
          "name": "",
          "type": "bool"
        }
      ],
      "stateMutability": "view",
      "type": "function",
      "constant": true
    },
    {
      "inputs": [
        {
          "internalType": "address",
          "name": "patient",
          "type": "address"
        }
      ],
      "name": "getDaysUntilDue",
      "outputs": [
        {
          "internalType": "uint256",
          "name": "",
          "type": "uint256"
        }
      ],
      "stateMutability": "view",
      "type": "function",
      "constant": true
    }
  ],
  "bytecode": "0x6080806040523461002857600080546001600160a01b03191633179055612a59908161002e8239f35b600080fdfe60a0604052600436101561001257600080fd5b60003560e01c80630cbebc2414611e15578063173b6d9014611df75780632b07fce314611bbd5780633c0ebb7714611b925780633d1e0c791461143a5780633fa25c9c14611196578063457e5521146110e05780635923af57146110bd5780637514e80e14610ed05780637da2ba7c14610f7357806387afb99b14610f3c57806397ad7e0214610f0f578063ba97324614610ed0578063bee42c4e14610ead578063cc38b47714610e12578063d3e8948314610ca3578063dbc837c514610c7a578063de54d42914610c5c578063e4502d6814610aa1578063f046395a1461091f5763f47579561461010357600080fd5b3461091a5760031960203682011261091a576001600160401b036004351161091a57610140906004353603011261091a5760405161014081018181106001600160401b038211176105cc57604052600435600401356001600160401b03811161091a576101779060043691813501016122a4565b81526004356024810135602083015260448101356040830152606481013560608301526084810135608083015260a481013560a083015260c481013560c083015260e401356001600160401b03811161091a576101db9060043691813501016122a4565b60e082015261010460043501356001600160401b03811161091a576102079060043691813501016122a4565b6101008201526001600160401b0361012460043501351161091a57610237366004803561012481013501016122a4565b6101208201526000546001600160a01b031633036108dd5760646080820151116108985761016d60c082015111610844576102736001546122fa565b9081600155805191602082015160408301516060840151608085015160a086015160c08701519160e088015193610100890151956101208a0151976040519b6102bb8d612231565b8a8d5260208d015260408c015260608b015260808a015260a089015260c088015260e08701526101008601526101208501526101408401526102fb612309565b61016084015242610180840152600052600360205260406000208251815560208301519283516001600160401b0381116105cc57610349816103406001860154612145565b6001860161236c565b6020601f82116001146107d55781929394956000926107ca575b50508160011b916000199060031b1c19161760018301555b60408101516002830155606081015160038301556080810151600483015560a0810151600583015560c0810151600683015560e081015160078301556101008101519283516001600160401b0381116105cc576103e8816103df6008870154612145565b6008870161236c565b6020601f821160011461075b578192939495600092610750575b50508160011b916000199060031b1c19161760088401555b6101208201519283516001600160401b0381116105cc5761044b816104426009850154612145565b6009850161236c565b6020601f82116001146106e15781929394956000926106d6575b50508160011b916000199060031b1c19161760098201555b6101408301519283516001600160401b0381116105cc576104ae816104a5600a860154612145565b600a860161236c565b6020601f821160011461066757819293949560009261065c575b50508160011b916000199060031b1c191617600a8301555b600b82016101608201518051906001600160401b0382116105cc5761050f826105098554612145565b8561236c565b602090601f83116001146105ed5791806101809492600c96946000926105e2575b50508160011b916000199060031b1c19161790555b01519101556001549060075491600160401b8310156105cc5761058f8360017f80968e0cf0f9fbad1f441d6bcbc63de0fe2c2a21dcbd37b22b46e61c7695031f95016007556120dc565b819291549060031b91821b91600019901b19161790556001549051906105c7604051928392835260406020840152604083019061209c565b0390a1005b634e487b7160e01b600052604160045260246000fd5b015190503880610530565b90601f198316918460005260206000209260005b8181106106445750926001928592600c989661018098961061062b575b505050811b019055610545565b015160001960f88460031b161c1916905538808061061e565b92936020600181928786015181550195019301610601565b0151905038806104c8565b600a840160005260206000209060005b601f19841681106106be575060019394959683601f198116106106a5575b505050811b01600a8301556104e0565b015160001960f88460031b161c19169055388080610695565b9091602060018192858b015181550193019101610677565b015190503880610465565b6009830160005260206000209060005b601f1984168110610738575060019394959683601f1981161061071f575b505050811b01600982015561047d565b015160001960f88460031b161c1916905538808061070f565b9091602060018192858b0151815501930191016106f1565b015190503880610402565b6008850160005260206000209060005b601f19841681106107b2575060019394959683601f19811610610799575b505050811b01600884015561041a565b015160001960f88460031b161c19169055388080610789565b9091602060018192858b01518155019301910161076b565b015190503880610363565b6001840160005260206000209060005b601f198416811061082c575060019394959683601f19811610610813575b505050811b01600183015561037b565b015160001960f88460031b161c19169055388080610803565b9091602060018192858b0151815501930191016107e5565b60405162461bcd60e51b815260206004820152602660248201527f57616974696e6720706572696f642063616e6e6f74206578636565642033363560448201526520646179732160d01b6064820152608490fd5b60405162461bcd60e51b815260206004820152601a60248201527f436f2d7061792063616e6e6f74206578636565642031303025210000000000006044820152606490fd5b60405162461bcd60e51b81526020600482015260156024820152744f6e6c7920696e737572657220616c6c6f7765642160581b6044820152606490fd5b600080fd5b3461091a57602036600319011261091a576001600160a01b0380610941612086565b16600052600460205260406000209081541690806001810154604051908180600285019061096e9161217f565b036109799083612283565b6003830154916004840154600585015460068601546007870154600888015491600989015493600a8a015495600b8b015497600c8c01549960405180809e600d829101906109c69161217f565b036109d091612283565b6040519d8e806109e381600e850161217f565b036109ed91612283565b600f01549e604051806080525260805160200152610200806080516040015260805101610a199161209c565b99608051606001526080516080015260805160a0015260805160c0015260805160e0015260805161010001526080516101200152608051610140015260805161016001526080516101800152608051808203906101a00152610a7a9161209c565b608051808203906101c00152610a8f9161209c565b906080516101e0015260805180910390f35b3461091a57604036600319011261091a57610aba612086565b6024359060018060a01b03809116806000526006602052610ae260ff60406000205416612546565b600052600460205260406000209160405191610afd83612215565b835416825260018301546020830152604051610b2781610b20816002880161217f565b0382612283565b6040830152600383015460608301526004830154906080830191825260058401549260a081019384526101e0600f60068701549660c08401978852600781015460e085015260088101546101008501526009810154610120850152600a810154610140850152600b810154610160850152600c810154610180850152604051610bb781610b2081600d860161217f565b6101a0850152604051610bd181610b2081600e860161217f565b6101c08501520154910152835180821115610c5257610bef916125ae565b915b51808302908382041483151715610c3c57604093610c176064610c1d93048092516123fd565b936125ae565b9051808211610c34575b5082519182526020820152f35b905083610c27565b634e487b7160e01b600052601160045260246000fd5b5050600091610bf1565b3461091a57600036600319011261091a576020600154604051908152f35b3461091a57600036600319011261091a576000546040516001600160a01b039091168152602090f35b3461091a57602036600319011261091a576004356000526003602052604060002080546040519182806001830190610cda9161217f565b03610ce59084612283565b60028101549060038101549160048201549060058301549060068401549060078501546040519283806008890190610d1c9161217f565b03610d279085612283565b6040519485610d398160098b0161217f565b03610d449087612283565b6040519687610d5681600a8c0161217f565b03610d619089612283565b6040519889610d7381600b840161217f565b03610d7e908b612283565b600c0154996040519c8d9c8d528c6101a06020819201528d01610da09161209c565b9560408d015260608c015260808b015260a08a015260c089015260e0880152868103610100880152610dd19161209c565b858103610120870152610de39161209c565b848103610140860152610df59161209c565b838103610160850152610e079161209c565b906101808301520390f35b3461091a57604036600319011261091a57610e2b612086565b6001600160a01b0316600090815260056020526040902080546024359081101561091a57610e5891612129565b508054610ea96003600184015493610e86600282015491610e7f604051809581930161217f565b0383612283565b60405194859485526020850152604084015260806060840152608083019061209c565b0390f35b3461091a57602036600319011261091a57610ece610ec9612086565b6125bb565b005b3461091a57602036600319011261091a576001600160a01b03610ef1612086565b166000526006602052602060ff604060002054166040519015158152f35b3461091a57602036600319011261091a576020610f32610f2d612086565b6127c3565b6040519015158152f35b3461091a57602036600319011261091a5760043560075481101561091a57610f656020916120dc565b90546040519160031b1c8152f35b3461091a5760208060031936011261091a576001600160a01b03610f95612086565b166000526005815260406000208054906001600160401b0382116105cc57829060405192610fc8838260051b0185612283565b8084528284018092600052836000206000915b8383106110685750505050604051918083019381845251809452604083019360408160051b85010192916000955b8287106110165785850386f35b909192938280611058600193603f198a82030186528851805182528381015184830152604081015160408301526060809101519160808092820152019061209c565b9601920196019592919092611009565b60048660019260409998995161107d8161224d565b855481528486015483820152600286015460408201526040516110a781610b208160038b0161217f565b6060820152815201920192019190959495610fdb565b3461091a57602036600319011261091a576020610f326110db612086565b612799565b3461091a57600036600319011261091a57604051806007548083526020809301809160076000527fa66cc928b5edb82af9bd49922954155ab7b0942694bea4ce44661d9a8736c6889060005b8682821061118257868661114282880383612283565b604051928392818401908285525180915260408401929160005b82811061116b57505050500390f35b83518552869550938101939281019260010161115c565b83548552909301926001928301920161112c565b600036600319011261091a57336000526020600681526111bd60ff60406000205416612546565b3360005260048152604060002090600d82016040516111e081610b20818561217f565b8281519101206111ee61258b565b838151910120146113ff57611208600384015434146123b1565b600b830180546203f47f198101908111610c3c5742106113c3576000805481908190819081906001600160a01b031634156113b9575b3491f1156113ad57600884016112553482546123fd565b9055600c8401805460018101809111610c3c57815581549262278d008401809411610c3c577fbdb688644eed2e2c7e113449ff1462490659a5767376cf6463769a1f385d5403957fca6a9c37d6ec21bf06f7e76da2608c0ba8c7ca86e2a3626cc570015e82e331239460609455600e8101906112da6112d48354612145565b83612342565b60086314185a5960e21b0182556112fa6112f48454612145565b84612342565b600a600c6541637469766560d01b01918285550154421015611374575b505050336000526005845261135860406000208254906040519161133a8361224d565b3483524288840152604083015261134f61240a565b8583015261242a565b546040519033825234858301526040820152a1604051338152a1005b6112d461138091612145565b600e66115e1c1a5c995960ca1b018092556113a461139e8254612145565b82612342565b55858080611317565b6040513d6000823e3d90fd5b6108fc915061123e565b60405162461bcd60e51b81526004810184905260146024820152735061796d656e74206e6f7420647565207965742160601b6044820152606490fd5b60405162461bcd60e51b8152600481018390526013602482015272506f6c6963792068617320657870697265642160681b6044820152606490fd5b602036600319011261091a5733600052600660205260ff60406000205416611b5757600435151580611b49575b15611b1257600435600052600360205260406000206040519061148982612231565b805482526040516114a181610b20816001860161217f565b6020830152600281015460408301526003810154606083015260048101546080830152600581015460a0830152600681015460c0830152600781015460e08301526040516114f681610b20816008860161217f565b61010083015260405161151081610b20816009860161217f565b61012083015260405161152a81610b2081600a860161217f565b610140830152600c6040519161154e8361154781600b850161217f565b0384612283565b8261016085015201546101808301526020815191012061156c612309565b6020815191012003611ad557611587606082015134146123b1565b6000805481908190819081906001600160a01b03163415611acb575b3491f1156113ad5760808101516301e1338090818102918183041490151715610c3c576115d090426123fd565b62278d0042014211610c3c576020820151906060830151604084015160a085015160c08601519160e0870151936040519661160a88612215565b338852600435602089015260408801526060870152608086015260a085015260c084015260e0830152346101008301524261012083015261014082015262278d0042016101608201526001610180820152611663612309565b6101a082015261167161240a565b6101c0820152426101e082015233600052600460205260406000209160018060a01b038251166bffffffffffffffffffffffff60a01b8454161783556020820151600184015560408201519283516001600160401b0381116105cc576116e7816116de6002850154612145565b6002850161236c565b6020601f8211600114611a5c578192939495600092611a51575b50508160011b916000199060031b1c19161760028201555b606083015160038201556080830151600482015560a0830151600582015560c0830151600682015560e0830151600782015561010083015160088201556101208301516009820155610140830151600a820155610160830151600b820155610180830151600c8201556101a08301519283516001600160401b0381116105cc576117b3816117aa600d860154612145565b600d860161236c565b6020601f82116001146119e25781929394956000926119d7575b50508160011b916000199060031b1c191617600d8301555b600e82016101c08201518051906001600160401b0382116105cc5761180e826105098554612145565b602090601f8311600114611940576020947f959321a95c528dc7de1165bd02924bd0aa5ba9b46f0100c7fc80ab0ccc823ac99794846118f99895600f956101e095600092611935575b50508160011b916000199060031b1c19161790555b015191015533600052600682526040600020600160ff198254161790556118946002546122fa565b60025533600052600582526118d56040600020604051906118b48261224d565b3482524285830152600160408301526118cb61240a565b606083015261242a565b0151604051918291338352600435602084015260606040840152606083019061209c565b0390a17fca6a9c37d6ec21bf06f7e76da2608c0ba8c7ca86e2a3626cc570015e82e33123606060405133815234602082015260016040820152a1005b015190508b80611857565b90601f198316918460005260206000209260005b8181106119bf575094600185600f956101e09560209a956118f99c997f959321a95c528dc7de1165bd02924bd0aa5ba9b46f0100c7fc80ab0ccc823ac99e9b106119a6575b505050811b01905561186c565b015160001960f88460031b161c191690558b8080611999565b92936020600181928786015181550195019301611954565b0151905085806117cd565b600d840160005260206000209060005b601f1984168110611a39575060019394959683601f19811610611a20575b505050811b01600d8301556117e5565b015160001960f88460031b161c19169055858080611a10565b9091602060018192858b0151815501930191016119f2565b015190508580611701565b6002830160005260206000209060005b601f1984168110611ab3575060019394959683601f19811610611a9a575b505050811b016002820155611719565b015160001960f88460031b161c19169055858080611a8a565b9091602060018192858b015181550193019101611a6c565b6108fc91506115a3565b60405162461bcd60e51b8152602060048201526015602482015274506f6c696379206973206e6f74206163746976652160581b6044820152606490fd5b60405162461bcd60e51b815260206004820152600f60248201526e496e76616c696420706f6c6963792160881b6044820152606490fd5b506001546004351115611467565b60405162461bcd60e51b8152602060048201526013602482015272416c726561647920737562736372696265642160681b6044820152606490fd5b3461091a57602036600319011261091a576020611bb5611bb0612086565b6128f6565b604051908152f35b3461091a57602036600319011261091a576000610180604051611bdf81612231565b828152606060208201528260408201528260608201528260808201528260a08201528260c08201528260e08201526060610100820152606061012082015260606101408201526060610160820152015260043560005260036020526040600020600c60405191611c4e83612231565b80548352604051611c6681610b20816001860161217f565b6020840152600281015460408401526003810154606084015260048101546080840152600581015460a0840152600681015460c0840152600781015460e0840152604051611cbb81610b20816008860161217f565b610100840152604051611cd581610b20816009860161217f565b610120840152604051611cef81610b2081600a860161217f565b610140840152604051611d0981610b2081600b860161217f565b610160840152015461018082015260405180916020825280516020830152610180611dea611d4860208401516101a060408701526101c086019061209c565b6040840151606086015260608401516080860152608084015160a086015260a084015160c086015260c084015160e086015260e0840151610100860152611dd5611dbf611da961010087015193601f1994858a8303016101208b015261209c565b61012087015184898303016101408a015261209c565b610140860151838883030161016089015261209c565b9061016085015190868303018487015261209c565b9101516101a08301520390f35b3461091a57600036600319011261091a576020600254604051908152f35b3461091a57602036600319011261091a57611e2e612086565b611e3860a0612215565b600060a081905260c0819052606060e08190526101008290526101208290526101408290526101608290526101808290526101a08290526101c08290526101e0829052610200829052610220829052610240819052610260526102808190526001600160a01b039190911681526004602052604090819020905190600f90611ebf83612215565b80546001600160a01b0316835260018101546020840152604051611eea81610b20816002860161217f565b60408401526003810154606084015260048101546080840152600581015460a0840152600681015460c0840152600781015460e084015260088101546101008401526009810154610120840152600a810154610140840152600b810154610160840152600c810154610180840152604051611f6c81610b2081600d860161217f565b6101a0840152604051611f8681610b2081600e860161217f565b6101c084015201546101e082015260405180916020825260018060a01b038151166020830152602081015160408301526101e0612079611fd76040840151610200606087015261022086019061209c565b60608401516080860152608084015160a086015260a084015160c086015260c084015160e086015260e08401516101008601526101008401516101208601526101208401516101408601526101408401516101608601526101608401516101808601526101808401516101a08601526120646101a085015191601f199283888303016101c089015261209c565b906101c085015190868303018487015261209c565b9101516102008301520390f35b600435906001600160a01b038216820361091a57565b919082519283825260005b8481106120c8575050826000602080949584010152601f8019910116010190565b6020818301810151848301820152016120a7565b6007548110156121135760076000527fa66cc928b5edb82af9bd49922954155ab7b0942694bea4ce44661d9a8736c6880190600090565b634e487b7160e01b600052603260045260246000fd5b80548210156121135760005260206000209060021b0190600090565b90600182811c92168015612175575b602083101461215f57565b634e487b7160e01b600052602260045260246000fd5b91607f1691612154565b906000929180549161219083612145565b9182825260019384811690816000146121f257506001146121b2575b50505050565b90919394506000526020928360002092846000945b8386106121de5750505050010190388080806121ac565b8054858701830152940193859082016121c7565b9294505050602093945060ff191683830152151560051b010190388080806121ac565b61020081019081106001600160401b038211176105cc57604052565b6101a081019081106001600160401b038211176105cc57604052565b608081019081106001600160401b038211176105cc57604052565b604081019081106001600160401b038211176105cc57604052565b90601f801991011681019081106001600160401b038211176105cc57604052565b81601f8201121561091a578035906001600160401b0382116105cc57604051926122d8601f8401601f191660200185612283565b8284526020838301011161091a57816000926020809301838601378301015290565b6000198114610c3c5760010190565b6040519061231682612268565b600682526541637469766560d01b6020830152565b818110612336575050565b6000815560010161232b565b90601f811161234f575050565b61236a91600052601f6020600020910160051c81019061232b565b565b9190601f811161237b57505050565b61236a926000526020600020906020601f840160051c830193106123a7575b601f0160051c019061232b565b909150819061239a565b156123b857565b60405162461bcd60e51b815260206004820152601960248201527f496e636f7272656374207072656d69756d20616d6f756e7421000000000000006044820152606490fd5b91908201809211610c3c57565b6040519061241782612268565b600482526314185a5960e21b6020830152565b8054600160401b8110156105cc57612449906001928382018155612129565b61253057825181556060600360209283860151858201556040860151600282015501930151908151916001600160401b0383116105cc576124948361248e8754612145565b8761236c565b81601f84116001146124cd57509282939183926000946124c2575b50501b916000199060031b1c1916179055565b0151925038806124af565b919083601f1981168760005284600020946000905b8883831061251657505050106124fd575b505050811b019055565b015160001960f88460031b161c191690553880806124f3565b8587015188559096019594850194879350908101906124e2565b634e487b7160e01b600052600060045260246000fd5b1561254d57565b60405162461bcd60e51b81526020600482015260166024820152754e6f20737562736372697074696f6e20666f756e642160501b6044820152606490fd5b6040519061259882612268565b6007825266115e1c1a5c995960ca1b6020830152565b91908203918211610c3c57565b6001600160a01b0316600081815260066020526040808220549193929160ff161561279357600460205280842091600d83019180516125fe81610b20818761217f565b6020815191012061260d61258b565b602081519101201461278b57600a84015442101561275557600b840192835462093a8081018091116127415742116126aa57505050546203f47f19810190811161269657600e92935042101561267a570161266b61139e8254612145565b60086314185a5960e21b019055565b0161268861139e8254612145565b60066244756560e81b019055565b634e487b7160e01b84526011600452602484fd5b7fda3c39d6d2b202f5c4cadf39cd22e795acd64e2b4bbe61122b92a8b3690a98599596506010929350608094816126e661139e600e9454612145565b60126814dd5cdc195b99195960ba1b0190550161270661139e8254612145565b600e664f76657264756560c81b0190558051928352602083018190528201526f5061796d656e74206f7665726475652160801b6060820152a1565b634e487b7160e01b88526011600452602488fd5b5050919250600e9061276a6112f48454612145565b8166115e1c1a5c995960ca1b018093550161278861139e8254612145565b55565b505050509050565b50509050565b6001600160a01b031660009081526006602052604090205460ff16156127be57600190565b600090565b60018060a01b0380600092168252600660205260409060ff8284205416156128f15760046020526101e0600f8385208451936127fe85612215565b815416845260018101546020850152845161282081610b20816002860161217f565b858501526003810154606085015260048101546080850152600581015460a0850152600681015460c0850152600781015460e085015260088101546101008501526009810154610120850152600a810154610140850152600b810154946101608501958652600c82015461018086015280516128a381610b2081600d870161217f565b6101a0860152516128bb81610b2081600e860161217f565b6101c08501520154910152516203f47f198101919082116128dd575042101590565b634e487b7160e01b81526011600452602490fd5b505090565b60018060a01b03809116600052600660205260409060ff82600020541615612a1c5760046020526101e0600f8360002084519361293285612215565b815416845260018101546020850152845161295481610b20816002860161217f565b858501526003810154606085015260048101546080850152600581015460a0850152600681015460c0850152600781015460e085015260088101546101008501526009810154610120850152600a810154610140850152600b810154946101608501958652600c82015461018086015280516129d781610b2081600d870161217f565b6101a0860152516129ef81610b2081600e860161217f565b6101c085015201549101525180421015612a1657612a12620151809142906125ae565b0490565b50600090565b505060009056fea2646970667358221220e7c638be0b11a73564192d5bb659079b2697b63aadeeebe8b17042988e70775a64736f6c63430008130033",
  "immutableReferences": {},
  "source": "// SPDX-License-Identifier: MIT\r\npragma solidity ^0.8.0;\r\n\r\ncontract PolicyContract {\r\n\r\n    address public insurer;\r\n\r\n    // ================================\r\n    // STRUCTS\r\n    // ================================\r\n\r\n    struct PolicyInput {\r\n        string  policyName;\r\n        uint256 coverageLimit;\r\n        uint256 premiumAmount;   // Monthly premium in Wei\r\n        uint256 validityPeriod;  // In years\r\n        uint256 copayPercent;    // Co-pay % patient pays (e.g. 10 = 10%)\r\n        uint256 deductible;      // Fixed amount patient pays first (in Wei)\r\n        uint256 waitingPeriod;   // Days before claims allowed (e.g. 30)\r\n        string  ipfsCID;\r\n        string  covered;\r\n        string  excluded;\r\n    }\r\n\r\n    struct Policy {\r\n        uint256 policyId;\r\n        string  policyName;\r\n        uint256 coverageLimit;\r\n        uint256 premiumAmount;\r\n        uint256 validityPeriod;\r\n        uint256 copayPercent;\r\n        uint256 deductible;\r\n        uint256 waitingPeriod;\r\n        string  ipfsCID;\r\n        string  covered;\r\n        string  excluded;\r\n        string  status;\r\n        uint256 timestamp;\r\n    }\r\n\r\n    struct Subscription {\r\n        address patientAddress;\r\n        uint256 policyId;\r\n        string  policyName;\r\n        uint256 premiumAmount;\r\n        uint256 coverageLimit;\r\n        uint256 copayPercent;\r\n        uint256 deductible;\r\n        uint256 waitingPeriod;\r\n        uint256 totalPaid;\r\n        uint256 startDate;\r\n        uint256 endDate;\r\n        uint256 nextDueDate;\r\n        uint256 monthsPaid;\r\n        string  subscriptionStatus;\r\n        string  paymentStatus;\r\n        uint256 timestamp;\r\n    }\r\n\r\n    struct PaymentRecord {\r\n        uint256 amount;\r\n        uint256 paidOn;\r\n        uint256 monthNumber;\r\n        string  status;\r\n    }\r\n\r\n    // ================================\r\n    // STORAGE\r\n    // ================================\r\n\r\n    uint256 public policyCount;\r\n    uint256 public subscriptionCount;\r\n\r\n    mapping(uint256 => Policy)          public policies;\r\n    mapping(address => Subscription)    public subscriptions;\r\n    mapping(address => PaymentRecord[]) public paymentHistory;\r\n    mapping(address => bool)            public hasSubscription;\r\n\r\n    uint256[] public allPolicyIds;\r\n\r\n    // ================================\r\n    // EVENTS\r\n    // ================================\r\n\r\n    event PolicyCreated(uint256 policyId, string policyName);\r\n    event PolicySubscribed(address patient, uint256 policyId, string policyName);\r\n    event MonthlyPremiumPaid(address patient, uint256 amount, uint256 monthNumber);\r\n    event PolicySuspended(address patient, string reason);\r\n    event PolicyReactivated(address patient);\r\n\r\n    // ================================\r\n    // MODIFIERS\r\n    // ================================\r\n\r\n    modifier onlyInsurer() {\r\n        require(msg.sender == insurer, \"Only insurer allowed!\");\r\n        _;\r\n    }\r\n\r\n    modifier hasActiveSub() {\r\n        require(hasSubscription[msg.sender], \"No subscription found!\");\r\n        _;\r\n    }\r\n\r\n    // ================================\r\n    // CONSTRUCTOR\r\n    // ================================\r\n\r\n    constructor() {\r\n        insurer = msg.sender;\r\n    }\r\n\r\n    // ================================\r\n    // CREATE POLICY (Insurer only)\r\n    // ================================\r\n\r\n    function createPolicy(PolicyInput memory input) public onlyInsurer {\r\n        require(input.copayPercent <= 100, \"Co-pay cannot exceed 100%!\");\r\n        require(input.waitingPeriod <= 365, \"Waiting period cannot exceed 365 days!\");\r\n\r\n        policyCount++;\r\n\r\n        policies[policyCount] = Policy({\r\n            policyId:       policyCount,\r\n            policyName:     input.policyName,\r\n            coverageLimit:  input.coverageLimit,\r\n            premiumAmount:  input.premiumAmount,\r\n            validityPeriod: input.validityPeriod,\r\n            copayPercent:   input.copayPercent,\r\n            deductible:     input.deductible,\r\n            waitingPeriod:  input.waitingPeriod,\r\n            ipfsCID:        input.ipfsCID,\r\n            covered:        input.covered,\r\n            excluded:       input.excluded,\r\n            status:         \"Active\",\r\n            timestamp:      block.timestamp\r\n        });\r\n\r\n        allPolicyIds.push(policyCount);\r\n        emit PolicyCreated(policyCount, input.policyName);\r\n    }\r\n\r\n    // ================================\r\n    // SUBSCRIBE POLICY — First Month\r\n    // ================================\r\n\r\n    function subscribePolicy(uint256 policyId) public payable {\r\n        require(!hasSubscription[msg.sender], \"Already subscribed!\");\r\n        require(policyId > 0 && policyId <= policyCount, \"Invalid policy!\");\r\n\r\n        Policy memory p = policies[policyId];\r\n        require(keccak256(bytes(p.status)) == keccak256(bytes(\"Active\")), \"Policy is not active!\");\r\n        require(msg.value == p.premiumAmount, \"Incorrect premium amount!\");\r\n\r\n        payable(insurer).transfer(msg.value);\r\n\r\n        uint256 start       = block.timestamp;\r\n        uint256 end         = block.timestamp + (p.validityPeriod * 365 days);\r\n        uint256 nextDueDate = block.timestamp + 30 days;\r\n\r\n        subscriptions[msg.sender] = Subscription({\r\n            patientAddress:     msg.sender,\r\n            policyId:           policyId,\r\n            policyName:         p.policyName,\r\n            premiumAmount:      p.premiumAmount,\r\n            coverageLimit:      p.coverageLimit,\r\n            copayPercent:       p.copayPercent,\r\n            deductible:         p.deductible,\r\n            waitingPeriod:      p.waitingPeriod,\r\n            totalPaid:          msg.value,\r\n            startDate:          start,\r\n            endDate:            end,\r\n            nextDueDate:        nextDueDate,\r\n            monthsPaid:         1,\r\n            subscriptionStatus: \"Active\",\r\n            paymentStatus:      \"Paid\",\r\n            timestamp:          block.timestamp\r\n        });\r\n\r\n        hasSubscription[msg.sender] = true;\r\n        subscriptionCount++;\r\n\r\n        paymentHistory[msg.sender].push(PaymentRecord({\r\n            amount:      msg.value,\r\n            paidOn:      block.timestamp,\r\n            monthNumber: 1,\r\n            status:      \"Paid\"\r\n        }));\r\n\r\n        emit PolicySubscribed(msg.sender, policyId, p.policyName);\r\n        emit MonthlyPremiumPaid(msg.sender, msg.value, 1);\r\n    }\r\n\r\n    // ================================\r\n    // PAY MONTHLY PREMIUM\r\n    // ================================\r\n\r\n    function payMonthlyPremium() public payable hasActiveSub {\r\n        Subscription storage sub = subscriptions[msg.sender];\r\n\r\n        require(\r\n            keccak256(bytes(sub.subscriptionStatus)) != keccak256(bytes(\"Expired\")),\r\n            \"Policy has expired!\"\r\n        );\r\n        require(msg.value == sub.premiumAmount, \"Incorrect premium amount!\");\r\n        require(block.timestamp >= sub.nextDueDate - 3 days, \"Payment not due yet!\");\r\n\r\n        payable(insurer).transfer(msg.value);\r\n\r\n        sub.totalPaid          += msg.value;\r\n        sub.monthsPaid         += 1;\r\n        sub.nextDueDate        += 30 days;\r\n        sub.paymentStatus       = \"Paid\";\r\n        sub.subscriptionStatus  = \"Active\";\r\n\r\n        if (block.timestamp >= sub.endDate) {\r\n            sub.subscriptionStatus = \"Expired\";\r\n            sub.paymentStatus      = \"Expired\";\r\n        }\r\n\r\n        paymentHistory[msg.sender].push(PaymentRecord({\r\n            amount:      msg.value,\r\n            paidOn:      block.timestamp,\r\n            monthNumber: sub.monthsPaid,\r\n            status:      \"Paid\"\r\n        }));\r\n\r\n        emit MonthlyPremiumPaid(msg.sender, msg.value, sub.monthsPaid);\r\n        emit PolicyReactivated(msg.sender);\r\n    }\r\n\r\n    // ================================\r\n    // CHECK & UPDATE STATUS\r\n    // ================================\r\n\r\n    function checkPaymentStatus(address patient) public {\r\n        if (!hasSubscription[patient]) return;\r\n\r\n        Subscription storage sub = subscriptions[patient];\r\n\r\n        if (keccak256(bytes(sub.subscriptionStatus)) == keccak256(bytes(\"Expired\"))) return;\r\n\r\n        if (block.timestamp >= sub.endDate) {\r\n            sub.subscriptionStatus = \"Expired\";\r\n            sub.paymentStatus      = \"Expired\";\r\n            return;\r\n        }\r\n\r\n        if (block.timestamp > sub.nextDueDate + 7 days) {\r\n            sub.subscriptionStatus = \"Suspended\";\r\n            sub.paymentStatus      = \"Overdue\";\r\n            emit PolicySuspended(patient, \"Payment overdue!\");\r\n            return;\r\n        }\r\n\r\n        if (block.timestamp >= sub.nextDueDate - 3 days) {\r\n            sub.paymentStatus = \"Due\";\r\n            return;\r\n        }\r\n\r\n        sub.paymentStatus = \"Paid\";\r\n    }\r\n\r\n    // ================================\r\n    // WAITING PERIOD CHECK (Phase 2 - Claims)\r\n    // ================================\r\n\r\n    function isWaitingPeriodOver(address patient) public view returns (bool) {\r\n        if (!hasSubscription[patient]) return false;\r\n        return true;\r\n    }\r\n\r\n    // ================================\r\n    // CLAIM PAYOUT CALCULATION (Phase 2 - Claims)\r\n    // Returns how much patient pays vs insurer pays\r\n    // ================================\r\n\r\n    function calculateClaimPayout(address patient, uint256 claimAmount) public view returns (\r\n        uint256 patientPays,\r\n        uint256 insurerPays\r\n    ) {\r\n        require(hasSubscription[patient], \"No subscription found!\");\r\n        Subscription memory sub = subscriptions[patient];\r\n\r\n        // Patient pays deductible first\r\n        uint256 afterDeductible = claimAmount > sub.deductible\r\n            ? claimAmount - sub.deductible\r\n            : 0;\r\n\r\n        // Co-pay applied on remaining amount\r\n        uint256 copayAmount = (afterDeductible * sub.copayPercent) / 100;\r\n\r\n        // Final split\r\n        patientPays = sub.deductible + copayAmount;\r\n        insurerPays = afterDeductible - copayAmount;\r\n\r\n        // Cannot exceed coverage limit\r\n        if (insurerPays > sub.coverageLimit) {\r\n            insurerPays = sub.coverageLimit;\r\n        }\r\n    }\r\n\r\n    // ================================\r\n    // VIEW FUNCTIONS\r\n    // ================================\r\n\r\n    function getAllPolicies() public view returns (uint256[] memory) {\r\n        return allPolicyIds;\r\n    }\r\n\r\n    function getPolicy(uint256 policyId) public view returns (Policy memory) {\r\n        return policies[policyId];\r\n    }\r\n\r\n    function getSubscription(address patient) public view returns (Subscription memory) {\r\n        return subscriptions[patient];\r\n    }\r\n\r\n    function getPaymentHistory(address patient) public view returns (PaymentRecord[] memory) {\r\n        return paymentHistory[patient];\r\n    }\r\n\r\n    function checkActivePolicy(address patient) public view returns (bool) {\r\n        return hasSubscription[patient];\r\n    }\r\n\r\n    function isPaymentDue(address patient) public view returns (bool) {\r\n        if (!hasSubscription[patient]) return false;\r\n        Subscription memory sub = subscriptions[patient];\r\n        return block.timestamp >= sub.nextDueDate - 3 days;\r\n    }\r\n\r\n    function getDaysUntilDue(address patient) public view returns (uint256) {\r\n        if (!hasSubscription[patient]) return 0;\r\n        Subscription memory sub = subscriptions[patient];\r\n        if (block.timestamp >= sub.nextDueDate) return 0;\r\n        return (sub.nextDueDate - block.timestamp) / 1 days;\r\n    }\r\n}\r\n",
  "sourcePath": "E:\\medinsure\\contracts\\PolicyContract.sol",
  "compiler": {
    "name": "solc",
    "version": "0.8.19+commit.7dd6d404.Emscripten.clang"
  },
  "schemaVersion": "3.4.16",
  "updatedAt": "2026-03-06T14:23:17.764Z",
  "networkType": "ethereum",
  "devdoc": {
    "kind": "dev",
    "methods": {},
    "version": 1
  },
  "userdoc": {
    "kind": "user",
    "methods": {},
    "version": 1
  }
}