{
  "contractName": "PolicyContract",
  "abi": [
    {
      "inputs": [],
      "stateMutability": "nonpayable",
      "type": "constructor"
    },
    {
      "anonymous": false,
      "inputs": [
        {
          "indexed": false,
          "internalType": "address",
          "name": "patient",
          "type": "address"
        },
        {
          "indexed": false,
          "internalType": "uint256",
          "name": "amount",
          "type": "uint256"
        },
        {
          "indexed": false,
          "internalType": "uint256",
          "name": "monthNumber",
          "type": "uint256"
        }
      ],
      "name": "MonthlyPremiumPaid",
      "type": "event"
    },
    {
      "anonymous": false,
      "inputs": [
        {
          "indexed": false,
          "internalType": "uint256",
          "name": "policyId",
          "type": "uint256"
        },
        {
          "indexed": false,
          "internalType": "string",
          "name": "policyName",
          "type": "string"
        }
      ],
      "name": "PolicyCreated",
      "type": "event"
    },
    {
      "anonymous": false,
      "inputs": [
        {
          "indexed": false,
          "internalType": "address",
          "name": "patient",
          "type": "address"
        }
      ],
      "name": "PolicyReactivated",
      "type": "event"
    },
    {
      "anonymous": false,
      "inputs": [
        {
          "indexed": false,
          "internalType": "address",
          "name": "patient",
          "type": "address"
        },
        {
          "indexed": false,
          "internalType": "uint256",
          "name": "policyId",
          "type": "uint256"
        },
        {
          "indexed": false,
          "internalType": "string",
          "name": "policyName",
          "type": "string"
        }
      ],
      "name": "PolicySubscribed",
      "type": "event"
    },
    {
      "anonymous": false,
      "inputs": [
        {
          "indexed": false,
          "internalType": "address",
          "name": "patient",
          "type": "address"
        },
        {
          "indexed": false,
          "internalType": "string",
          "name": "reason",
          "type": "string"
        }
      ],
      "name": "PolicySuspended",
      "type": "event"
    },
    {
      "inputs": [
        {
          "internalType": "uint256",
          "name": "",
          "type": "uint256"
        }
      ],
      "name": "allPolicyIds",
      "outputs": [
        {
          "internalType": "uint256",
          "name": "",
          "type": "uint256"
        }
      ],
      "stateMutability": "view",
      "type": "function",
      "constant": true
    },
    {
      "inputs": [
        {
          "internalType": "address",
          "name": "",
          "type": "address"
        }
      ],
      "name": "hasSubscription",
      "outputs": [
        {
          "internalType": "bool",
          "name": "",
          "type": "bool"
        }
      ],
      "stateMutability": "view",
      "type": "function",
      "constant": true
    },
    {
      "inputs": [],
      "name": "insurer",
      "outputs": [
        {
          "internalType": "address",
          "name": "",
          "type": "address"
        }
      ],
      "stateMutability": "view",
      "type": "function",
      "constant": true
    },
    {
      "inputs": [
        {
          "internalType": "address",
          "name": "",
          "type": "address"
        },
        {
          "internalType": "uint256",
          "name": "",
          "type": "uint256"
        }
      ],
      "name": "paymentHistory",
      "outputs": [
        {
          "internalType": "uint256",
          "name": "amount",
          "type": "uint256"
        },
        {
          "internalType": "uint256",
          "name": "paidOn",
          "type": "uint256"
        },
        {
          "internalType": "uint256",
          "name": "monthNumber",
          "type": "uint256"
        },
        {
          "internalType": "string",
          "name": "status",
          "type": "string"
        }
      ],
      "stateMutability": "view",
      "type": "function",
      "constant": true
    },
    {
      "inputs": [
        {
          "internalType": "uint256",
          "name": "",
          "type": "uint256"
        }
      ],
      "name": "policies",
      "outputs": [
        {
          "internalType": "uint256",
          "name": "policyId",
          "type": "uint256"
        },
        {
          "internalType": "string",
          "name": "policyName",
          "type": "string"
        },
        {
          "internalType": "uint256",
          "name": "coverageLimit",
          "type": "uint256"
        },
        {
          "internalType": "uint256",
          "name": "premiumAmount",
          "type": "uint256"
        },
        {
          "internalType": "uint256",
          "name": "validityPeriod",
          "type": "uint256"
        },
        {
          "internalType": "string",
          "name": "ipfsCID",
          "type": "string"
        },
        {
          "internalType": "string",
          "name": "covered",
          "type": "string"
        },
        {
          "internalType": "string",
          "name": "excluded",
          "type": "string"
        },
        {
          "internalType": "string",
          "name": "status",
          "type": "string"
        },
        {
          "internalType": "uint256",
          "name": "timestamp",
          "type": "uint256"
        },
        {
          "internalType": "uint256",
          "name": "deductible",
          "type": "uint256"
        },
        {
          "internalType": "uint256",
          "name": "copayPercentage",
          "type": "uint256"
        }
      ],
      "stateMutability": "view",
      "type": "function",
      "constant": true
    },
    {
      "inputs": [],
      "name": "policyCount",
      "outputs": [
        {
          "internalType": "uint256",
          "name": "",
          "type": "uint256"
        }
      ],
      "stateMutability": "view",
      "type": "function",
      "constant": true
    },
    {
      "inputs": [],
      "name": "subscriptionCount",
      "outputs": [
        {
          "internalType": "uint256",
          "name": "",
          "type": "uint256"
        }
      ],
      "stateMutability": "view",
      "type": "function",
      "constant": true
    },
    {
      "inputs": [
        {
          "internalType": "address",
          "name": "",
          "type": "address"
        }
      ],
      "name": "subscriptions",
      "outputs": [
        {
          "internalType": "address",
          "name": "patientAddress",
          "type": "address"
        },
        {
          "internalType": "uint256",
          "name": "policyId",
          "type": "uint256"
        },
        {
          "internalType": "string",
          "name": "policyName",
          "type": "string"
        },
        {
          "internalType": "uint256",
          "name": "premiumAmount",
          "type": "uint256"
        },
        {
          "internalType": "uint256",
          "name": "totalPaid",
          "type": "uint256"
        },
        {
          "internalType": "uint256",
          "name": "startDate",
          "type": "uint256"
        },
        {
          "internalType": "uint256",
          "name": "endDate",
          "type": "uint256"
        },
        {
          "internalType": "uint256",
          "name": "nextDueDate",
          "type": "uint256"
        },
        {
          "internalType": "uint256",
          "name": "monthsPaid",
          "type": "uint256"
        },
        {
          "internalType": "string",
          "name": "subscriptionStatus",
          "type": "string"
        },
        {
          "internalType": "string",
          "name": "paymentStatus",
          "type": "string"
        },
        {
          "internalType": "uint256",
          "name": "timestamp",
          "type": "uint256"
        }
      ],
      "stateMutability": "view",
      "type": "function",
      "constant": true
    },
    {
      "inputs": [
        {
          "components": [
            {
              "internalType": "string",
              "name": "policyName",
              "type": "string"
            },
            {
              "internalType": "uint256",
              "name": "coverageLimit",
              "type": "uint256"
            },
            {
              "internalType": "uint256",
              "name": "premiumAmount",
              "type": "uint256"
            },
            {
              "internalType": "uint256",
              "name": "validityPeriod",
              "type": "uint256"
            },
            {
              "internalType": "string",
              "name": "ipfsCID",
              "type": "string"
            },
            {
              "internalType": "string",
              "name": "covered",
              "type": "string"
            },
            {
              "internalType": "string",
              "name": "excluded",
              "type": "string"
            },
            {
              "internalType": "uint256",
              "name": "deductible",
              "type": "uint256"
            },
            {
              "internalType": "uint256",
              "name": "copayPercentage",
              "type": "uint256"
            }
          ],
          "internalType": "struct PolicyContract.PolicyInput",
          "name": "input",
          "type": "tuple"
        }
      ],
      "name": "createPolicy",
      "outputs": [],
      "stateMutability": "nonpayable",
      "type": "function"
    },
    {
      "inputs": [
        {
          "internalType": "uint256",
          "name": "policyId",
          "type": "uint256"
        }
      ],
      "name": "subscribePolicy",
      "outputs": [],
      "stateMutability": "payable",
      "type": "function",
      "payable": true
    },
    {
      "inputs": [],
      "name": "payMonthlyPremium",
      "outputs": [],
      "stateMutability": "payable",
      "type": "function",
      "payable": true
    },
    {
      "inputs": [
        {
          "internalType": "address",
          "name": "patient",
          "type": "address"
        }
      ],
      "name": "checkPaymentStatus",
      "outputs": [],
      "stateMutability": "nonpayable",
      "type": "function"
    },
    {
      "inputs": [],
      "name": "getAllPolicies",
      "outputs": [
        {
          "internalType": "uint256[]",
          "name": "",
          "type": "uint256[]"
        }
      ],
      "stateMutability": "view",
      "type": "function",
      "constant": true
    },
    {
      "inputs": [
        {
          "internalType": "uint256",
          "name": "policyId",
          "type": "uint256"
        }
      ],
      "name": "getPolicy",
      "outputs": [
        {
          "components": [
            {
              "internalType": "uint256",
              "name": "policyId",
              "type": "uint256"
            },
            {
              "internalType": "string",
              "name": "policyName",
              "type": "string"
            },
            {
              "internalType": "uint256",
              "name": "coverageLimit",
              "type": "uint256"
            },
            {
              "internalType": "uint256",
              "name": "premiumAmount",
              "type": "uint256"
            },
            {
              "internalType": "uint256",
              "name": "validityPeriod",
              "type": "uint256"
            },
            {
              "internalType": "string",
              "name": "ipfsCID",
              "type": "string"
            },
            {
              "internalType": "string",
              "name": "covered",
              "type": "string"
            },
            {
              "internalType": "string",
              "name": "excluded",
              "type": "string"
            },
            {
              "internalType": "string",
              "name": "status",
              "type": "string"
            },
            {
              "internalType": "uint256",
              "name": "timestamp",
              "type": "uint256"
            },
            {
              "internalType": "uint256",
              "name": "deductible",
              "type": "uint256"
            },
            {
              "internalType": "uint256",
              "name": "copayPercentage",
              "type": "uint256"
            }
          ],
          "internalType": "struct PolicyContract.Policy",
          "name": "",
          "type": "tuple"
        }
      ],
      "stateMutability": "view",
      "type": "function",
      "constant": true
    },
    {
      "inputs": [
        {
          "internalType": "address",
          "name": "patient",
          "type": "address"
        }
      ],
      "name": "getSubscription",
      "outputs": [
        {
          "components": [
            {
              "internalType": "address",
              "name": "patientAddress",
              "type": "address"
            },
            {
              "internalType": "uint256",
              "name": "policyId",
              "type": "uint256"
            },
            {
              "internalType": "string",
              "name": "policyName",
              "type": "string"
            },
            {
              "internalType": "uint256",
              "name": "premiumAmount",
              "type": "uint256"
            },
            {
              "internalType": "uint256",
              "name": "totalPaid",
              "type": "uint256"
            },
            {
              "internalType": "uint256",
              "name": "startDate",
              "type": "uint256"
            },
            {
              "internalType": "uint256",
              "name": "endDate",
              "type": "uint256"
            },
            {
              "internalType": "uint256",
              "name": "nextDueDate",
              "type": "uint256"
            },
            {
              "internalType": "uint256",
              "name": "monthsPaid",
              "type": "uint256"
            },
            {
              "internalType": "string",
              "name": "subscriptionStatus",
              "type": "string"
            },
            {
              "internalType": "string",
              "name": "paymentStatus",
              "type": "string"
            },
            {
              "internalType": "uint256",
              "name": "timestamp",
              "type": "uint256"
            }
          ],
          "internalType": "struct PolicyContract.Subscription",
          "name": "",
          "type": "tuple"
        }
      ],
      "stateMutability": "view",
      "type": "function",
      "constant": true
    },
    {
      "inputs": [
        {
          "internalType": "address",
          "name": "patient",
          "type": "address"
        }
      ],
      "name": "getPaymentHistory",
      "outputs": [
        {
          "components": [
            {
              "internalType": "uint256",
              "name": "amount",
              "type": "uint256"
            },
            {
              "internalType": "uint256",
              "name": "paidOn",
              "type": "uint256"
            },
            {
              "internalType": "uint256",
              "name": "monthNumber",
              "type": "uint256"
            },
            {
              "internalType": "string",
              "name": "status",
              "type": "string"
            }
          ],
          "internalType": "struct PolicyContract.PaymentRecord[]",
          "name": "",
          "type": "tuple[]"
        }
      ],
      "stateMutability": "view",
      "type": "function",
      "constant": true
    },
    {
      "inputs": [
        {
          "internalType": "address",
          "name": "patient",
          "type": "address"
        }
      ],
      "name": "checkActivePolicy",
      "outputs": [
        {
          "internalType": "bool",
          "name": "",
          "type": "bool"
        }
      ],
      "stateMutability": "view",
      "type": "function",
      "constant": true
    },
    {
      "inputs": [
        {
          "internalType": "address",
          "name": "patient",
          "type": "address"
        }
      ],
      "name": "isPaymentDue",
      "outputs": [
        {
          "internalType": "bool",
          "name": "",
          "type": "bool"
        }
      ],
      "stateMutability": "view",
      "type": "function",
      "constant": true
    },
    {
      "inputs": [
        {
          "internalType": "address",
          "name": "patient",
          "type": "address"
        }
      ],
      "name": "getDaysUntilDue",
      "outputs": [
        {
          "internalType": "uint256",
          "name": "",
          "type": "uint256"
        }
      ],
      "stateMutability": "view",
      "type": "function",
      "constant": true
    },
    {
      "inputs": [
        {
          "internalType": "address",
          "name": "patient",
          "type": "address"
        }
      ],
      "name": "checkEligibility",
      "outputs": [
        {
          "internalType": "bool",
          "name": "eligible",
          "type": "bool"
        },
        {
          "internalType": "string",
          "name": "policyName",
          "type": "string"
        },
        {
          "internalType": "uint256",
          "name": "coverageLimit",
          "type": "uint256"
        },
        {
          "internalType": "uint256",
          "name": "remainingCoverage",
          "type": "uint256"
        },
        {
          "internalType": "uint256",
          "name": "deductible",
          "type": "uint256"
        },
        {
          "internalType": "bool",
          "name": "deductibleMet",
          "type": "bool"
        },
        {
          "internalType": "uint256",
          "name": "copayPercentage",
          "type": "uint256"
        },
        {
          "internalType": "string",
          "name": "subscriptionStatus",
          "type": "string"
        },
        {
          "internalType": "string",
          "name": "paymentStatus",
          "type": "string"
        },
        {
          "internalType": "string",
          "name": "message",
          "type": "string"
        }
      ],
      "stateMutability": "view",
      "type": "function",
      "constant": true
    },
    {
      "inputs": [
        {
          "internalType": "address",
          "name": "patient",
          "type": "address"
        }
      ],
      "name": "isEligible",
      "outputs": [
        {
          "internalType": "bool",
          "name": "",
          "type": "bool"
        }
      ],
      "stateMutability": "view",
      "type": "function",
      "constant": true
    },
    {
      "inputs": [
        {
          "internalType": "address",
          "name": "patient",
          "type": "address"
        },
        {
          "internalType": "uint256",
          "name": "claimAmount",
          "type": "uint256"
        }
      ],
      "name": "calculateClaimPayout",
      "outputs": [
        {
          "internalType": "uint256",
          "name": "patientPays",
          "type": "uint256"
        },
        {
          "internalType": "uint256",
          "name": "insurerPays",
          "type": "uint256"
        }
      ],
      "stateMutability": "view",
      "type": "function",
      "constant": true
    }
  ],
  "bytecode": "0x6080806040523461002857600080546001600160a01b03191633179055612f58908161002e8239f35b600080fdfe608080604052600436101561001357600080fd5b60003560e01c9081630cbebc2414611dad57508063173b6d9014611d8f5780632b07fce314611b735780633c0ebb7714611b485780633d1e0c79146114b15780633fa25c9c1461120d578063457e55211461115757806366e305fd1461113457806374254738146109c25780637514e80e146107225780637723bafb146109255780637da2ba7c146107c557806387afb99b1461078e57806397ad7e0214610761578063ba97324614610722578063bee42c4e146106ff578063cc38b4771461066b578063d3e8948314610509578063dbc837c5146104e0578063de54d429146104c2578063e4502d68146102415763f046395a1461011157600080fd5b3461023c57602036600319011261023c576001600160a01b0380610133611fab565b166000526004602052604060002090815416600182015491604051908180600283019061015f91612190565b0361016a9083612076565b60038101546004820154906005830154600684015460078501549060088601549260405195868060098a019061019f91612190565b036101aa9088612076565b60405197886101bc81600a8401612190565b036101c7908a612076565b600b0154986040519b8c9b8c5260208c01526101808060408d01528b016101ed91611fe4565b9560608b015260808a015260a089015260c088015260e087015261010086015284810361012086015261021f91611fe4565b83810361014085015261023191611fe4565b906101608301520390f35b600080fd5b3461023c57604036600319011261023c5761025a611fab565b60243560018060a01b03809216806000526020906006825261028360ff60406000205416612472565b600052600481526040600020906040519361029d85612009565b82541684526001820154928185019384526040516102c9816102c28160028801612190565b0382612076565b60408601526003830154606086015260048301546080860152600583015460a0860152600683015460c0860152600783015460e086015260088301549261010093848701526040519461032a866103238160098601612190565b0387612076565b6101209586880152600b604051926103508461034981600a8501612190565b0385612076565b61014093848a015201546101608098015251600052600383526040600020956040519561037c87612009565b87548752604051610394816102c28160018d01612190565b8588015260086002890154966040890197885260038a015460608a015260048a015460808a015260056103d18b6102c26040518094819301612190565b60a08a01526040516103ea816102c28160068f01612190565b60c08a0152604051610403816102c28160078f01612190565b60e08a01526104238a61041c6040518095819301612190565b0383612076565b880152600988015490870152600b600a88015492870197838952015495019485528082116000146104b857610457916124da565b925b518084029084820414841517156104a25760409461047f60646104859304809251612329565b946124da565b915180831161049a575b508351928352820152f35b91508461048f565b634e487b7160e01b600052601160045260246000fd5b5050600092610459565b3461023c57600036600319011261023c576020600154604051908152f35b3461023c57600036600319011261023c576000546040516001600160a01b039091168152602090f35b3461023c57602036600319011261023c57600435600052600360205260406000208054604051918280600183019061054091612190565b0361054b9084612076565b6002810154906003810154906004810154926040518080600585019061057091612190565b0361057b9082612076565b6040518061058c8160068701612190565b036105979082612076565b60405191826105a98160078801612190565b036105b49084612076565b60405193846105c68160088901612190565b036105d19086612076565b600986015497600a87015496600b0154976040519b8c9b8c528b6101806020819201528c016105ff91611fe4565b9260408c015260608b015260808a015288810360a08a015261062091611fe4565b87810360c089015261063191611fe4565b86810360e088015261064291611fe4565b85810361010087015261065491611fe4565b926101208501526101408401526101608301520390f35b3461023c57604036600319011261023c57610684611fab565b6001600160a01b0316600090815260056020526040902080546024359081101561023c576106b19161213a565b5080546106fb60036001840154936106d860028201549161041c6040518095819301612190565b604051948594855260208501526040840152608060608401526080830190611fe4565b0390f35b3461023c57602036600319011261023c5761072061071b611fab565b6124e7565b005b3461023c57602036600319011261023c576001600160a01b03610743611fab565b166000526006602052602060ff604060002054166040519015158152f35b3461023c57602036600319011261023c57602061078461077f611fab565b6126c6565b6040519015158152f35b3461023c57602036600319011261023c5760043560075481101561023c576107b76020916120ed565b90546040519160031b1c8152f35b3461023c5760208060031936011261023c576001600160a01b036107e7611fab565b166000526005815260406000208054906001600160401b03821161090f5782906040519261081a838260051b0185612076565b8084528284018092600052836000206000915b8383106108ba5750505050604051918083019381845251809452604083019360408160051b85010192916000955b8287106108685785850386f35b9091929382806108aa600193603f198a820301865288518051825283810151848301526040810151604083015260608091015191608080928201520190611fe4565b960192019601959291909261085b565b6004866001926040999899516108cf81612025565b855481528486015483820152600286015460408201526040516108f9816102c28160038b01612190565b606082015281520192019201919095949561082d565b634e487b7160e01b600052604160045260246000fd5b3461023c57602036600319011261023c576109a46109b36106fb61094f61094a611fab565b6128f1565b989a979b9561097b604098969298959395519d8e809e151590528d610140908160208201520190611fe4565b9560408d015260608c015260808b0152151560a08a015260c089015287820360e0890152611fe4565b90858203610100870152611fe4565b90838203610120850152611fe4565b3461023c5760031960203682011261023c57600435906001600160401b03821161023c5761012090823603011261023c576040519061012082018281106001600160401b0382111761090f5760405280600401356001600160401b03811161023c57610a349060043691840101612097565b825260248101356020830152604481013560408301526064810135606083015260848101356001600160401b03811161023c57610a779060043691840101612097565b608083015260a48101356001600160401b03811161023c57610a9f9060043691840101612097565b60a083015260c4810135906001600160401b03821161023c57610acb6101049260043691840101612097565b60c084015260e481013560e084015201356101008201526000546001600160a01b031633036110f7576064610100820151116110bb57610b0c600154612226565b9081600155805191602082015160408301516060840151608085015160a08601519060c08701519260e088015194610100890151966040519a610b4e8c612009565b898c5260208c015260408b015260608a0152608089015260a088015260c087015260e0860152610b7c612235565b61010086015242610120860152610140850152610160840152600052600360205260406000208251815560208301519283516001600160401b03811161090f57610bd681610bcd6001860154612156565b60018601612298565b6020601f821160011461104c578192939495600092611041575b50508160011b916000199060031b1c19161760018301555b60408101516002830155606081015160038301556080810151600483015560a08101519283516001600160401b03811161090f57610c5681610c4d6005870154612156565b60058701612298565b6020601f8211600114610fd2578192939495600092610fc7575b50508160011b916000199060031b1c19161760058401555b60c08201519283516001600160401b03811161090f57610cb881610caf6006850154612156565b60068501612298565b6020601f8211600114610f58578192939495600092610f4d575b50508160011b916000199060031b1c19161760068201555b60e08301519283516001600160401b03811161090f57610d1a81610d116007860154612156565b60078601612298565b6020601f8211600114610ede578192939495600092610ed3575b50508160011b916000199060031b1c19161760078301555b6101008101518051906001600160401b03821161090f57610d7d82610d746008870154612156565b60088701612298565b602090601f8311600114610e5d579180600b949261016094600092610e52575b50508160011b916000199060031b1c19161760088501555b6101208101516009850155610140810151600a85015501519101556001549060075491600160401b83101561090f57610e158360017f80968e0cf0f9fbad1f441d6bcbc63de0fe2c2a21dcbd37b22b46e61c7695031f95016007556120ed565b819291549060031b91821b91600019901b1916179055600154905190610e4d6040519283928352604060208401526040830190611fe4565b0390a1005b015190508780610d9d565b906008850160005260206000209160005b601f1985168110610ebb575092600b94926001926101609583601f19811610610ea2575b505050811b016008850155610db5565b015160001960f88460031b161c19169055878080610e92565b91926020600181928685015181550194019201610e6e565b015190508580610d34565b6007840160005260206000209060005b601f1984168110610f35575060019394959683601f19811610610f1c575b505050811b016007830155610d4c565b015160001960f88460031b161c19169055858080610f0c565b9091602060018192858b015181550193019101610eee565b015190508580610cd2565b6006830160005260206000209060005b601f1984168110610faf575060019394959683601f19811610610f96575b505050811b016006820155610cea565b015160001960f88460031b161c19169055858080610f86565b9091602060018192858b015181550193019101610f68565b015190508580610c70565b6005850160005260206000209060005b601f1984168110611029575060019394959683601f19811610611010575b505050811b016005840155610c88565b015160001960f88460031b161c19169055858080611000565b9091602060018192858b015181550193019101610fe2565b015190508580610bf0565b6001840160005260206000209060005b601f19841681106110a3575060019394959683601f1981161061108a575b505050811b016001830155610c08565b015160001960f88460031b161c1916905585808061107a565b9091602060018192858b01518155019301910161105c565b60405162461bcd60e51b8152602060048201526014602482015273436f706179206d75737420626520302d3130302560601b6044820152606490fd5b60405162461bcd60e51b81526020600482015260156024820152744f6e6c7920696e737572657220616c6c6f7765642160581b6044820152606490fd5b3461023c57602036600319011261023c576020610784611152611fab565b612ddb565b3461023c57600036600319011261023c57604051806007548083526020809301809160076000527fa66cc928b5edb82af9bd49922954155ab7b0942694bea4ce44661d9a8736c6889060005b868282106111f95786866111b982880383612076565b604051928392818401908285525180915260408401929160005b8281106111e257505050500390f35b8351855286955093810193928101926001016111d3565b8354855290930192600192830192016111a3565b600036600319011261023c573360005260206006815261123460ff60406000205416612472565b336000526004815260406000209060098201604051611257816102c28185612190565b8281519101206112656124b7565b838151910120146114765761127f600384015434146122dd565b6007830180546203f47f1981019081116104a257421061143a576000805481908190819081906001600160a01b03163415611430575b3491f11561142457600484016112cc348254612329565b9055600884018054600181018091116104a257815581549262278d0084018094116104a2577fbdb688644eed2e2c7e113449ff1462490659a5767376cf6463769a1f385d5403957fca6a9c37d6ec21bf06f7e76da2608c0ba8c7ca86e2a3626cc570015e82e331239460609455600a81019061135161134b8354612156565b8361226e565b60086314185a5960e21b01825561137161136b8454612156565b8461226e565b6006600c6541637469766560d01b019182855501544210156113eb575b50505033600052600584526113cf6040600020825490604051916113b183612025565b348352428884015260408301526113c6612336565b85830152612356565b546040519033825234858301526040820152a1604051338152a1005b61134b6113f791612156565b600e66115e1c1a5c995960ca1b0180925561141b6114158254612156565b8261226e565b5585808061138e565b6040513d6000823e3d90fd5b6108fc91506112b5565b60405162461bcd60e51b81526004810184905260146024820152735061796d656e74206e6f7420647565207965742160601b6044820152606490fd5b60405162461bcd60e51b8152600481018390526013602482015272506f6c6963792068617320657870697265642160681b6044820152606490fd5b602036600319011261023c5733600052600660205260ff60406000205416611b0d57600435151580611aff575b15611ac857600435600052600360205260406000206040519061150082612009565b80548252604051611518816102c28160018601612190565b60208301526002810154604083015260038101546060830152600b60048201549160808401928352604051611554816102c28160058601612190565b60a085015260405161156d816102c28160068601612190565b60c0850152604051611586816102c28160078601612190565b60e085015260405161159f816102c28160088601612190565b6101008501526009810154610120850152600a81015461014085015201546101608301526115d2606083015134146122dd565b6000805481908190819081906001600160a01b03163415611abe575b3491f11561142457516301e13380908181029181830414901517156104a2576116179042612329565b62278d00420142116104a25760208201519060608301516040519261163b84612009565b3384526004356020850152604084015260608301523460808301524260a083015260c082015262278d00420160e0820152600161010082015261167c612235565b61012082015261168a612336565b6101408201524261016082015233600052600460205260406000209160018060a01b038251166bffffffffffffffffffffffff60a01b8454161783556020820151600184015560408201519283516001600160401b03811161090f57611700816116f76002850154612156565b60028501612298565b6020601f8211600114611a4f578192939495600092611a44575b50508160011b916000199060031b1c19161760028201555b606083015160038201556080830151600482015560a0830151600582015560c0830151600682015560e0830151600782015561010083015160088201556101208301519283516001600160401b03811161090f576117a0816117976009860154612156565b60098601612298565b6020601f82116001146119d55781929394956000926119ca575b50508160011b916000199060031b1c19161760098301555b600a82016101408201518051906001600160401b03821161090f57611801826117fb8554612156565b85612298565b602090601f8311600114611933576020947f959321a95c528dc7de1165bd02924bd0aa5ba9b46f0100c7fc80ab0ccc823ac99794846118ec9895600b9561016095600092611928575b50508160011b916000199060031b1c19161790555b015191015533600052600682526040600020600160ff19825416179055611887600254612226565b60025533600052600582526118c86040600020604051906118a782612025565b3482524285830152600160408301526118be612336565b6060830152612356565b01516040519182913383526004356020840152606060408401526060830190611fe4565b0390a17fca6a9c37d6ec21bf06f7e76da2608c0ba8c7ca86e2a3626cc570015e82e33123606060405133815234602082015260016040820152a1005b015190508b8061184a565b90601f198316918460005260206000209260005b8181106119b2575094600185600b956101609560209a956118ec9c997f959321a95c528dc7de1165bd02924bd0aa5ba9b46f0100c7fc80ab0ccc823ac99e9b10611999575b505050811b01905561185f565b015160001960f88460031b161c191690558b808061198c565b92936020600181928786015181550195019301611947565b0151905085806117ba565b6009840160005260206000209060005b601f1984168110611a2c575060019394959683601f19811610611a13575b505050811b0160098301556117d2565b015160001960f88460031b161c19169055858080611a03565b9091602060018192858b0151815501930191016119e5565b01519050858061171a565b6002830160005260206000209060005b601f1984168110611aa6575060019394959683601f19811610611a8d575b505050811b016002820155611732565b015160001960f88460031b161c19169055858080611a7d565b9091602060018192858b015181550193019101611a5f565b6108fc91506115ee565b60405162461bcd60e51b815260206004820152600f60248201526e496e76616c696420706f6c6963792160881b6044820152606490fd5b5060015460043511156114de565b60405162461bcd60e51b8152602060048201526013602482015272416c726561647920737562736372696265642160681b6044820152606490fd5b3461023c57602036600319011261023c576020611b6b611b66611fab565b6127cd565b604051908152f35b3461023c57602036600319011261023c576000610160604051611b9581612009565b82815260606020820152826040820152826060820152826080820152606060a0820152606060c0820152606060e082015260606101008201528261012082015282610140820152015260043560005260036020526040600020600b60405191611bfd83612009565b80548352604051611c15816102c28160018601612190565b6020840152600281015460408401526003810154606084015260048101546080840152604051611c4c816102c28160058601612190565b60a0840152604051611c65816102c28160068601612190565b60c0840152604051611c7e816102c28160078601612190565b60e0840152604051611c97816102c28160088601612190565b6101008401526009810154610120840152600a810154610140840152015461016082015260405180916020825280516020830152610160611d6c611cec602084015161018060408701526101a0860190611fe4565b6040840151606086015260608401516080860152608084015160a0860152611d55611d40611d2c60a087015193601f1994858a83030160c08b0152611fe4565b60c0870151848983030160e08a0152611fe4565b60e08601518388830301610100890152611fe4565b906101008501519086830301610120870152611fe4565b916101208101516101408501526101408101518285015201516101808301520390f35b3461023c57600036600319011261023c576020600254604051908152f35b3461023c57602036600319011261023c576000610160611dcb611fab565b92611dd581612009565b828152826020820152606060408201528260608201528260808201528260a08201528260c08201528260e08201528261010082015260606101208201526060610140820152015260018060a01b031660005260046020526040600020600b60405191611e4083612009565b80546001600160a01b0316835260018101546020840152604051611e6b816102c28160028601612190565b60408401526003810154606084015260048101546080840152600581015460a0840152600681015460c0840152600781015460e08401526008810154610100840152604051611ec1816102c28160098601612190565b610120840152604051611edb816102c281600a8601612190565b610140840152015461016082015260405180916020825260018060a01b03815116602083015260208101516040830152610160611f9e611f2c604084015161018060608701526101a0860190611fe4565b60608401516080860152608084015160a086015260a084015160c086015260c084015160e086015260e0840151610100860152610100840151610120860152611f8961012085015191601f19928388830301610140890152611fe4565b90610140850151908683030184870152611fe4565b9101516101808301520390f35b600435906001600160a01b038216820361023c57565b60005b838110611fd45750506000910152565b8181015183820152602001611fc4565b90602091611ffd81518092818552858086019101611fc1565b601f01601f1916010190565b61018081019081106001600160401b0382111761090f57604052565b608081019081106001600160401b0382111761090f57604052565b604081019081106001600160401b0382111761090f57604052565b606081019081106001600160401b0382111761090f57604052565b90601f801991011681019081106001600160401b0382111761090f57604052565b81601f8201121561023c578035906001600160401b03821161090f57604051926120cb601f8401601f191660200185612076565b8284526020838301011161023c57816000926020809301838601378301015290565b6007548110156121245760076000527fa66cc928b5edb82af9bd49922954155ab7b0942694bea4ce44661d9a8736c6880190600090565b634e487b7160e01b600052603260045260246000fd5b80548210156121245760005260206000209060021b0190600090565b90600182811c92168015612186575b602083101461217057565b634e487b7160e01b600052602260045260246000fd5b91607f1691612165565b90600092918054916121a183612156565b91828252600193848116908160001461220357506001146121c3575b50505050565b90919394506000526020928360002092846000945b8386106121ef5750505050010190388080806121bd565b8054858701830152940193859082016121d8565b9294505050602093945060ff191683830152151560051b010190388080806121bd565b60001981146104a25760010190565b6040519061224282612040565b600682526541637469766560d01b6020830152565b818110612262575050565b60008155600101612257565b90601f811161227b575050565b61229691600052601f6020600020910160051c810190612257565b565b9190601f81116122a757505050565b612296926000526020600020906020601f840160051c830193106122d3575b601f0160051c0190612257565b90915081906122c6565b156122e457565b60405162461bcd60e51b815260206004820152601960248201527f496e636f7272656374207072656d69756d20616d6f756e7421000000000000006044820152606490fd5b919082018092116104a257565b6040519061234382612040565b600482526314185a5960e21b6020830152565b8054600160401b81101561090f5761237590600192838201815561213a565b61245c57825181556060600360209283860151858201556040860151600282015501930151908151916001600160401b03831161090f576123c0836123ba8754612156565b87612298565b81601f84116001146123f957509282939183926000946123ee575b50501b916000199060031b1c1916179055565b0151925038806123db565b919083601f1981168760005284600020946000905b888383106124425750505010612429575b505050811b019055565b015160001960f88460031b161c1916905538808061241f565b85870151885590960195948501948793509081019061240e565b634e487b7160e01b600052600060045260246000fd5b1561247957565b60405162461bcd60e51b81526020600482015260166024820152754e6f20737562736372697074696f6e20666f756e642160501b6044820152606490fd5b604051906124c482612040565b6007825266115e1c1a5c995960ca1b6020830152565b919082039182116104a257565b6001600160a01b0316600081815260066020526040808220549193929160ff16156126c0576004602052808420916009830191805161252a816102c28187612190565b602081519101206125396124b7565b60208151910120146126b8576006840154421015612681576007840192835462093a80810180911161266d5742116125d657505050546203f47f1981019081116125c257600a9293504210156125a657016125976114158254612156565b60086314185a5960e21b019055565b016125b46114158254612156565b60066244756560e81b019055565b634e487b7160e01b84526011600452602484fd5b7fda3c39d6d2b202f5c4cadf39cd22e795acd64e2b4bbe61122b92a8b3690a9859959650601092935060809481612612611415600a9454612156565b60126814dd5cdc195b99195960ba1b019055016126326114158254612156565b600e664f76657264756560c81b0190558051928352602083018190528201526f5061796d656e74206f7665726475652160801b6060820152a1565b634e487b7160e01b88526011600452602488fd5b5050919250600a9061269661136b8454612156565b600e66115e1c1a5c995960ca1b01809355016126b56114158254612156565b55565b505050509050565b50509050565b60018060a01b0380600092168252600660205260409060ff8284205416156127c8576004602052610160600b83852084519361270185612009565b8154168452600181015460208501528451612723816102c28160028601612190565b858501526003810154606085015260048101546080850152600581015460a0850152600681015460c085015260078101549460e085019586526008820154610100860152805161277a816102c28160098701612190565b61012086015251612792816102c281600a8601612190565b6101408501520154910152516203f47f198101919082116127b4575042101590565b634e487b7160e01b81526011600452602490fd5b505090565b60018060a01b03809116600052600660205260409060ff826000205416156128c7576004602052610160600b8360002084519361280985612009565b815416845260018101546020850152845161282b816102c28160028601612190565b858501526003810154606085015260048101546080850152600581015460a0850152600681015460c085015260078101549460e0850195865260088201546101008601528051612882816102c28160098701612190565b6101208601525161289a816102c281600a8601612190565b610140850152015491015251804210156128c1576128bd620151809142906124da565b0490565b50600090565b5050600090565b604051906128db82612040565b60078252664f76657264756560c81b6020830152565b60018060a01b038091166000918183526020926006845260409260ff848320541615612d0b578152600484528281209280519261292d84612009565b845416835260018401548584019081528151968761294e8160028901612190565b036129599089612076565b8285019788526003860154606086015260048601546080860152600586015460a086015260068601549260c08601938452600787015460e0870152600887015498610100998a880152815194858060098b01906129b591612190565b036129c09087612076565b610120978881019687528351958680600a8d01906129dd91612190565b036129e89088612076565b6101409a8b8301978852600b01546101608093015251885260038b52838820845199612a138b612009565b81548b52855180612a278160018601612190565b03612a329082612076565b8d8c015260028201549d868c019e8f52600383015460608d0152600483015460808d0152865180806005860190612a6891612190565b03612a739082612076565b60a08d0152865180612a888160068701612190565b03612a939082612076565b60c08d0152865180612aa88160078701612190565b03612ab39082612076565b60e08d015286519081612ac98160088701612190565b03612ad49083612076565b8c01526009820154908b0152600a8101549a8a019a8b52600b0154980197885285518a8151910120612b04612235565b8b815191012003612c875784518a8151910120612b1f6128ce565b8b815191012014612c1557514211612ba357519851965195519351925191600199987f2e2054726561746d656e742063616e2070726f636565642e0000000000000000899897969594937f50617469656e7420697320656c696769626c6520666f7220636f766572616765815193612b968561205b565b6038855284015282015290565b519851965195519251949897899695879550929075103a379031b7b73a34b73ab29031b7bb32b930b3b29760511b612bd96124b7565b94937f506f6c6963792068617320657870697265642e20506c656173652072656e6577815193612c088561205b565b6036855284015282015290565b505198519651955193519251918599987f72656d69756d20746f20726573746f726520636f7665726167652e0000000000899897969594937f5061796d656e74206973206f7665726475652e20506c65617365207061792070815193612c7a8561205b565b603b855284015282015290565b506043612cfd919992939899519a5199519751955194519351836902837b634b1bc9034b9960b51b8295830152612cc787518092602a8501908a01611fc1565b81017f2e20506c6561736520636f6e7461637420696e73757265722e00000000000000602a820152036023810184520182612076565b849897968596959493929190565b5080939150939180518281018181106001600160401b03821117612dc75782528481529380938193829383928151612d4281612040565b600f81526e27379029bab139b1b934b83a34b7b760891b84820152926f696e737572616e636520706f6c69637960801b8351612d7d81612040565b60038152624e2f4160e81b83820152937f50617469656e7420646f6573206e6f74206861766520616e2061637469766520815193612dba8561205b565b6030855284015282015290565b634e487b7160e01b86526041600452602486fd5b60018060a01b038091166000526020906006825260409160ff83600020541615612f1a57600481528260002092805192612e1484612009565b84541683526001840154828401528051612e35816102c28160028901612190565b818401526003840154606084015260048401546080840152600584015460a084015260068401549260c08101938452600785015460e08201526008850154610100820152610160600b835193612e9985612e928160098c01612190565b0386612076565b61012084019485525196612ebb88612eb481600a8501612190565b0389612076565b6101408401978852015491015251818151910120612ed7612235565b828151910120149283612ef9575b505081612ef0575090565b90505142111590565b51805190820120919250612f0b6128ce565b80519101201415903880612ee5565b50505060009056fea2646970667358221220b7944f8891579296ec3d82398dda991f03a59523afc7b920f3ad9c0e7276cd1764736f6c63430008130033",
  "immutableReferences": {},
  "source": "// SPDX-License-Identifier: MIT\r\npragma solidity ^0.8.0;\r\n\r\ncontract PolicyContract {\r\n\r\n    address public insurer;\r\n\r\n    struct PolicyInput {\r\n        string  policyName;\r\n        uint256 coverageLimit;\r\n        uint256 premiumAmount;\r\n        uint256 validityPeriod;\r\n        string  ipfsCID;\r\n        string  covered;\r\n        string  excluded;\r\n        uint256 deductible;\r\n        uint256 copayPercentage;\r\n    }\r\n\r\n    struct Policy {\r\n        uint256 policyId;\r\n        string  policyName;\r\n        uint256 coverageLimit;\r\n        uint256 premiumAmount;\r\n        uint256 validityPeriod;\r\n        string  ipfsCID;\r\n        string  covered;\r\n        string  excluded;\r\n        string  status;\r\n        uint256 timestamp;\r\n        uint256 deductible;\r\n        uint256 copayPercentage;\r\n    }\r\n\r\n    struct Subscription {\r\n        address patientAddress;\r\n        uint256 policyId;\r\n        string  policyName;\r\n        uint256 premiumAmount;\r\n        uint256 totalPaid;\r\n        uint256 startDate;\r\n        uint256 endDate;\r\n        uint256 nextDueDate;\r\n        uint256 monthsPaid;\r\n        string  subscriptionStatus;\r\n        string  paymentStatus;\r\n        uint256 timestamp;\r\n    }\r\n\r\n    struct PaymentRecord {\r\n        uint256 amount;\r\n        uint256 paidOn;\r\n        uint256 monthNumber;\r\n        string  status;\r\n    }\r\n\r\n    uint256 public policyCount;\r\n    uint256 public subscriptionCount;\r\n\r\n    mapping(uint256 => Policy)          public policies;\r\n    mapping(address => Subscription)    public subscriptions;\r\n    mapping(address => PaymentRecord[]) public paymentHistory;\r\n    mapping(address => bool)            public hasSubscription;\r\n\r\n    uint256[] public allPolicyIds;\r\n\r\n    event PolicyCreated(uint256 policyId, string policyName);\r\n    event PolicySubscribed(address patient, uint256 policyId, string policyName);\r\n    event MonthlyPremiumPaid(address patient, uint256 amount, uint256 monthNumber);\r\n    event PolicySuspended(address patient, string reason);\r\n    event PolicyReactivated(address patient);\r\n\r\n    modifier onlyInsurer() {\r\n        require(msg.sender == insurer, \"Only insurer allowed!\");\r\n        _;\r\n    }\r\n\r\n    modifier hasActiveSub() {\r\n        require(hasSubscription[msg.sender], \"No subscription found!\");\r\n        _;\r\n    }\r\n\r\n    constructor() {\r\n        insurer = msg.sender;\r\n    }\r\n\r\n    function createPolicy(PolicyInput memory input) public onlyInsurer {\r\n        require(input.copayPercentage <= 100, \"Copay must be 0-100%\");\r\n        policyCount++;\r\n        policies[policyCount] = Policy({\r\n            policyId:        policyCount,\r\n            policyName:      input.policyName,\r\n            coverageLimit:   input.coverageLimit,\r\n            premiumAmount:   input.premiumAmount,\r\n            validityPeriod:  input.validityPeriod,\r\n            ipfsCID:         input.ipfsCID,\r\n            covered:         input.covered,\r\n            excluded:        input.excluded,\r\n            status:          \"Active\",\r\n            timestamp:       block.timestamp,\r\n            deductible:      input.deductible,\r\n            copayPercentage: input.copayPercentage\r\n        });\r\n        allPolicyIds.push(policyCount);\r\n        emit PolicyCreated(policyCount, input.policyName);\r\n    }\r\n\r\n    function subscribePolicy(uint256 policyId) public payable {\r\n        require(!hasSubscription[msg.sender], \"Already subscribed!\");\r\n        require(policyId > 0 && policyId <= policyCount, \"Invalid policy!\");\r\n        Policy memory p = policies[policyId];\r\n        require(msg.value == p.premiumAmount, \"Incorrect premium amount!\");\r\n        payable(insurer).transfer(msg.value);\r\n        uint256 start       = block.timestamp;\r\n        uint256 end         = block.timestamp + (p.validityPeriod * 365 days);\r\n        uint256 nextDueDate = block.timestamp + 30 days;\r\n        subscriptions[msg.sender] = Subscription({\r\n            patientAddress:     msg.sender,\r\n            policyId:           policyId,\r\n            policyName:         p.policyName,\r\n            premiumAmount:      p.premiumAmount,\r\n            totalPaid:          msg.value,\r\n            startDate:          start,\r\n            endDate:            end,\r\n            nextDueDate:        nextDueDate,\r\n            monthsPaid:         1,\r\n            subscriptionStatus: \"Active\",\r\n            paymentStatus:      \"Paid\",\r\n            timestamp:          block.timestamp\r\n        });\r\n        hasSubscription[msg.sender] = true;\r\n        subscriptionCount++;\r\n        paymentHistory[msg.sender].push(PaymentRecord({\r\n            amount:      msg.value,\r\n            paidOn:      block.timestamp,\r\n            monthNumber: 1,\r\n            status:      \"Paid\"\r\n        }));\r\n        emit PolicySubscribed(msg.sender, policyId, p.policyName);\r\n        emit MonthlyPremiumPaid(msg.sender, msg.value, 1);\r\n    }\r\n\r\n    function payMonthlyPremium() public payable hasActiveSub {\r\n        Subscription storage sub = subscriptions[msg.sender];\r\n        require(keccak256(bytes(sub.subscriptionStatus)) != keccak256(bytes(\"Expired\")), \"Policy has expired!\");\r\n        require(msg.value == sub.premiumAmount, \"Incorrect premium amount!\");\r\n        require(block.timestamp >= sub.nextDueDate - 3 days, \"Payment not due yet!\");\r\n        payable(insurer).transfer(msg.value);\r\n        sub.totalPaid          += msg.value;\r\n        sub.monthsPaid         += 1;\r\n        sub.nextDueDate        += 30 days;\r\n        sub.paymentStatus       = \"Paid\";\r\n        sub.subscriptionStatus  = \"Active\";\r\n        if (block.timestamp >= sub.endDate) {\r\n            sub.subscriptionStatus = \"Expired\";\r\n            sub.paymentStatus      = \"Expired\";\r\n        }\r\n        paymentHistory[msg.sender].push(PaymentRecord({\r\n            amount:      msg.value,\r\n            paidOn:      block.timestamp,\r\n            monthNumber: sub.monthsPaid,\r\n            status:      \"Paid\"\r\n        }));\r\n        emit MonthlyPremiumPaid(msg.sender, msg.value, sub.monthsPaid);\r\n        emit PolicyReactivated(msg.sender);\r\n    }\r\n\r\n    function checkPaymentStatus(address patient) public {\r\n        if (!hasSubscription[patient]) return;\r\n        Subscription storage sub = subscriptions[patient];\r\n        if (keccak256(bytes(sub.subscriptionStatus)) == keccak256(bytes(\"Expired\"))) return;\r\n        if (block.timestamp >= sub.endDate) {\r\n            sub.subscriptionStatus = \"Expired\";\r\n            sub.paymentStatus      = \"Expired\";\r\n            return;\r\n        }\r\n        if (block.timestamp > sub.nextDueDate + 7 days) {\r\n            sub.subscriptionStatus = \"Suspended\";\r\n            sub.paymentStatus      = \"Overdue\";\r\n            emit PolicySuspended(patient, \"Payment overdue!\");\r\n            return;\r\n        }\r\n        if (block.timestamp >= sub.nextDueDate - 3 days) {\r\n            sub.paymentStatus = \"Due\";\r\n            return;\r\n        }\r\n        sub.paymentStatus = \"Paid\";\r\n    }\r\n\r\n    function getAllPolicies() public view returns (uint256[] memory) {\r\n        return allPolicyIds;\r\n    }\r\n\r\n    function getPolicy(uint256 policyId) public view returns (Policy memory) {\r\n        return policies[policyId];\r\n    }\r\n\r\n    function getSubscription(address patient) public view returns (Subscription memory) {\r\n        return subscriptions[patient];\r\n    }\r\n\r\n    function getPaymentHistory(address patient) public view returns (PaymentRecord[] memory) {\r\n        return paymentHistory[patient];\r\n    }\r\n\r\n    function checkActivePolicy(address patient) public view returns (bool) {\r\n        return hasSubscription[patient];\r\n    }\r\n\r\n    function isPaymentDue(address patient) public view returns (bool) {\r\n        if (!hasSubscription[patient]) return false;\r\n        Subscription memory sub = subscriptions[patient];\r\n        return block.timestamp >= sub.nextDueDate - 3 days;\r\n    }\r\n\r\n    function getDaysUntilDue(address patient) public view returns (uint256) {\r\n        if (!hasSubscription[patient]) return 0;\r\n        Subscription memory sub = subscriptions[patient];\r\n        if (block.timestamp >= sub.nextDueDate) return 0;\r\n        return (sub.nextDueDate - block.timestamp) / 1 days;\r\n    }\r\n\r\n    // ================================\r\n    // ELIGIBILITY CHECK\r\n    // ================================\r\n\r\n    function checkEligibility(address patient) public view returns (\r\n        bool   eligible,\r\n        string memory policyName,\r\n        uint256 coverageLimit,\r\n        uint256 remainingCoverage,\r\n        uint256 deductible,\r\n        bool   deductibleMet,\r\n        uint256 copayPercentage,\r\n        string memory subscriptionStatus,\r\n        string memory paymentStatus,\r\n        string memory message\r\n    ) {\r\n        if (!hasSubscription[patient]) {\r\n            return (false, \"\", 0, 0, 0, false, 0, \"No Subscription\", \"N/A\",\r\n                \"Patient does not have an active insurance policy\");\r\n        }\r\n        Subscription memory sub = subscriptions[patient];\r\n        Policy memory policy    = policies[sub.policyId];\r\n\r\n        if (keccak256(bytes(sub.subscriptionStatus)) != keccak256(bytes(\"Active\"))) {\r\n            return (false, sub.policyName, policy.coverageLimit, 0, policy.deductible, false,\r\n                policy.copayPercentage, sub.subscriptionStatus, sub.paymentStatus,\r\n                string(abi.encodePacked(\"Policy is \", sub.subscriptionStatus, \". Please contact insurer.\")));\r\n        }\r\n        if (keccak256(bytes(sub.paymentStatus)) == keccak256(bytes(\"Overdue\"))) {\r\n            return (false, sub.policyName, policy.coverageLimit, policy.coverageLimit,\r\n                policy.deductible, false, policy.copayPercentage, sub.subscriptionStatus,\r\n                sub.paymentStatus, \"Payment is overdue. Please pay premium to restore coverage.\");\r\n        }\r\n        if (block.timestamp > sub.endDate) {\r\n            return (false, sub.policyName, policy.coverageLimit, 0, policy.deductible, false,\r\n                policy.copayPercentage, \"Expired\", sub.paymentStatus,\r\n                \"Policy has expired. Please renew to continue coverage.\");\r\n        }\r\n        return (true, sub.policyName, policy.coverageLimit, policy.coverageLimit,\r\n            policy.deductible, false, policy.copayPercentage, sub.subscriptionStatus,\r\n            sub.paymentStatus, \"Patient is eligible for coverage. Treatment can proceed.\");\r\n    }\r\n\r\n    function isEligible(address patient) public view returns (bool) {\r\n        if (!hasSubscription[patient]) return false;\r\n        Subscription memory sub = subscriptions[patient];\r\n        return (\r\n            keccak256(bytes(sub.subscriptionStatus)) == keccak256(bytes(\"Active\")) &&\r\n            keccak256(bytes(sub.paymentStatus))      != keccak256(bytes(\"Overdue\")) &&\r\n            block.timestamp <= sub.endDate\r\n        );\r\n    }\r\n\r\n    // ================================\r\n    // CLAIM PAYOUT CALCULATION\r\n    // ================================\r\n\r\n    function calculateClaimPayout(address patient, uint256 claimAmount) public view returns (\r\n        uint256 patientPays,\r\n        uint256 insurerPays\r\n    ) {\r\n        require(hasSubscription[patient], \"No subscription found!\");\r\n        Subscription memory sub = subscriptions[patient];\r\n        Policy memory policy    = policies[sub.policyId];\r\n\r\n        uint256 afterDeductible = claimAmount > policy.deductible\r\n            ? claimAmount - policy.deductible : 0;\r\n        uint256 copayAmount = (afterDeductible * policy.copayPercentage) / 100;\r\n        patientPays = policy.deductible + copayAmount;\r\n        insurerPays = afterDeductible - copayAmount;\r\n        if (insurerPays > policy.coverageLimit) {\r\n            insurerPays = policy.coverageLimit;\r\n        }\r\n    }\r\n}\r\n",
  "sourcePath": "D:\\MedInsure_mid\\contracts\\PolicyContract.sol",
  "compiler": {
    "name": "solc",
    "version": "0.8.19+commit.7dd6d404.Emscripten.clang"
  },
  "schemaVersion": "3.4.16",
  "updatedAt": "2026-04-03T11:29:57.040Z",
  "networkType": "ethereum",
  "devdoc": {
    "kind": "dev",
    "methods": {},
    "version": 1
  },
  "userdoc": {
    "kind": "user",
    "methods": {},
    "version": 1
  }
}