{
  "contractName": "UserRegistry",
  "abi": [
    {
      "inputs": [],
      "stateMutability": "nonpayable",
      "type": "constructor"
    },
    {
      "anonymous": false,
      "inputs": [
        {
          "indexed": false,
          "internalType": "address",
          "name": "walletAddress",
          "type": "address"
        },
        {
          "indexed": false,
          "internalType": "string",
          "name": "name",
          "type": "string"
        },
        {
          "indexed": false,
          "internalType": "uint256",
          "name": "timestamp",
          "type": "uint256"
        }
      ],
      "name": "PatientApproved",
      "type": "event"
    },
    {
      "anonymous": false,
      "inputs": [
        {
          "indexed": false,
          "internalType": "uint256",
          "name": "patientId",
          "type": "uint256"
        },
        {
          "indexed": false,
          "internalType": "string",
          "name": "name",
          "type": "string"
        },
        {
          "indexed": false,
          "internalType": "address",
          "name": "walletAddress",
          "type": "address"
        },
        {
          "indexed": false,
          "internalType": "uint256",
          "name": "timestamp",
          "type": "uint256"
        }
      ],
      "name": "PatientRegistered",
      "type": "event"
    },
    {
      "anonymous": false,
      "inputs": [
        {
          "indexed": false,
          "internalType": "address",
          "name": "walletAddress",
          "type": "address"
        },
        {
          "indexed": false,
          "internalType": "string",
          "name": "name",
          "type": "string"
        },
        {
          "indexed": false,
          "internalType": "uint256",
          "name": "timestamp",
          "type": "uint256"
        }
      ],
      "name": "PatientRejected",
      "type": "event"
    },
    {
      "inputs": [
        {
          "internalType": "string",
          "name": "",
          "type": "string"
        }
      ],
      "name": "aadharExists",
      "outputs": [
        {
          "internalType": "bool",
          "name": "",
          "type": "bool"
        }
      ],
      "stateMutability": "view",
      "type": "function",
      "constant": true
    },
    {
      "inputs": [
        {
          "internalType": "uint256",
          "name": "",
          "type": "uint256"
        }
      ],
      "name": "allPatients",
      "outputs": [
        {
          "internalType": "address",
          "name": "",
          "type": "address"
        }
      ],
      "stateMutability": "view",
      "type": "function",
      "constant": true
    },
    {
      "inputs": [],
      "name": "insurer",
      "outputs": [
        {
          "internalType": "address",
          "name": "",
          "type": "address"
        }
      ],
      "stateMutability": "view",
      "type": "function",
      "constant": true
    },
    {
      "inputs": [
        {
          "internalType": "address",
          "name": "",
          "type": "address"
        }
      ],
      "name": "isApproved",
      "outputs": [
        {
          "internalType": "bool",
          "name": "",
          "type": "bool"
        }
      ],
      "stateMutability": "view",
      "type": "function",
      "constant": true
    },
    {
      "inputs": [
        {
          "internalType": "address",
          "name": "",
          "type": "address"
        }
      ],
      "name": "isRegistered",
      "outputs": [
        {
          "internalType": "bool",
          "name": "",
          "type": "bool"
        }
      ],
      "stateMutability": "view",
      "type": "function",
      "constant": true
    },
    {
      "inputs": [],
      "name": "patientCount",
      "outputs": [
        {
          "internalType": "uint256",
          "name": "",
          "type": "uint256"
        }
      ],
      "stateMutability": "view",
      "type": "function",
      "constant": true
    },
    {
      "inputs": [
        {
          "internalType": "address",
          "name": "",
          "type": "address"
        }
      ],
      "name": "patients",
      "outputs": [
        {
          "internalType": "uint256",
          "name": "patientId",
          "type": "uint256"
        },
        {
          "internalType": "string",
          "name": "name",
          "type": "string"
        },
        {
          "internalType": "string",
          "name": "dob",
          "type": "string"
        },
        {
          "internalType": "string",
          "name": "gender",
          "type": "string"
        },
        {
          "internalType": "string",
          "name": "mobile",
          "type": "string"
        },
        {
          "internalType": "string",
          "name": "email",
          "type": "string"
        },
        {
          "internalType": "string",
          "name": "location",
          "type": "string"
        },
        {
          "internalType": "bool",
          "name": "otpVerified",
          "type": "bool"
        },
        {
          "internalType": "string",
          "name": "aadharHash",
          "type": "string"
        },
        {
          "internalType": "string",
          "name": "photoHash",
          "type": "string"
        },
        {
          "internalType": "address",
          "name": "walletAddress",
          "type": "address"
        },
        {
          "internalType": "string",
          "name": "status",
          "type": "string"
        },
        {
          "internalType": "uint256",
          "name": "timestamp",
          "type": "uint256"
        }
      ],
      "stateMutability": "view",
      "type": "function",
      "constant": true
    },
    {
      "inputs": [
        {
          "internalType": "uint256",
          "name": "",
          "type": "uint256"
        }
      ],
      "name": "pendingPatients",
      "outputs": [
        {
          "internalType": "address",
          "name": "",
          "type": "address"
        }
      ],
      "stateMutability": "view",
      "type": "function",
      "constant": true
    },
    {
      "inputs": [
        {
          "components": [
            {
              "internalType": "string",
              "name": "name",
              "type": "string"
            },
            {
              "internalType": "string",
              "name": "dob",
              "type": "string"
            },
            {
              "internalType": "string",
              "name": "gender",
              "type": "string"
            },
            {
              "internalType": "string",
              "name": "mobile",
              "type": "string"
            },
            {
              "internalType": "string",
              "name": "email",
              "type": "string"
            },
            {
              "internalType": "string",
              "name": "location",
              "type": "string"
            },
            {
              "internalType": "bool",
              "name": "otpVerified",
              "type": "bool"
            },
            {
              "internalType": "string",
              "name": "aadharHash",
              "type": "string"
            },
            {
              "internalType": "string",
              "name": "photoHash",
              "type": "string"
            }
          ],
          "internalType": "struct UserRegistry.PatientInput",
          "name": "input",
          "type": "tuple"
        }
      ],
      "name": "registerPatient",
      "outputs": [],
      "stateMutability": "nonpayable",
      "type": "function"
    },
    {
      "inputs": [
        {
          "internalType": "address",
          "name": "_walletAddress",
          "type": "address"
        }
      ],
      "name": "approvePatient",
      "outputs": [],
      "stateMutability": "nonpayable",
      "type": "function"
    },
    {
      "inputs": [
        {
          "internalType": "address",
          "name": "_walletAddress",
          "type": "address"
        }
      ],
      "name": "rejectPatient",
      "outputs": [],
      "stateMutability": "nonpayable",
      "type": "function"
    },
    {
      "inputs": [
        {
          "internalType": "address",
          "name": "_walletAddress",
          "type": "address"
        }
      ],
      "name": "getPatient",
      "outputs": [
        {
          "components": [
            {
              "internalType": "uint256",
              "name": "patientId",
              "type": "uint256"
            },
            {
              "internalType": "string",
              "name": "name",
              "type": "string"
            },
            {
              "internalType": "string",
              "name": "dob",
              "type": "string"
            },
            {
              "internalType": "string",
              "name": "gender",
              "type": "string"
            },
            {
              "internalType": "string",
              "name": "mobile",
              "type": "string"
            },
            {
              "internalType": "string",
              "name": "email",
              "type": "string"
            },
            {
              "internalType": "string",
              "name": "location",
              "type": "string"
            },
            {
              "internalType": "bool",
              "name": "otpVerified",
              "type": "bool"
            },
            {
              "internalType": "string",
              "name": "aadharHash",
              "type": "string"
            },
            {
              "internalType": "string",
              "name": "photoHash",
              "type": "string"
            },
            {
              "internalType": "address",
              "name": "walletAddress",
              "type": "address"
            },
            {
              "internalType": "string",
              "name": "status",
              "type": "string"
            },
            {
              "internalType": "uint256",
              "name": "timestamp",
              "type": "uint256"
            }
          ],
          "internalType": "struct UserRegistry.Patient",
          "name": "",
          "type": "tuple"
        }
      ],
      "stateMutability": "view",
      "type": "function",
      "constant": true
    },
    {
      "inputs": [],
      "name": "getPendingPatients",
      "outputs": [
        {
          "internalType": "address[]",
          "name": "",
          "type": "address[]"
        }
      ],
      "stateMutability": "view",
      "type": "function",
      "constant": true
    },
    {
      "inputs": [],
      "name": "getAllPatients",
      "outputs": [
        {
          "internalType": "address[]",
          "name": "",
          "type": "address[]"
        }
      ],
      "stateMutability": "view",
      "type": "function",
      "constant": true
    },
    {
      "inputs": [
        {
          "internalType": "address",
          "name": "_walletAddress",
          "type": "address"
        }
      ],
      "name": "checkPatientApproved",
      "outputs": [
        {
          "internalType": "bool",
          "name": "",
          "type": "bool"
        }
      ],
      "stateMutability": "view",
      "type": "function",
      "constant": true
    },
    {
      "inputs": [
        {
          "internalType": "address",
          "name": "_walletAddress",
          "type": "address"
        }
      ],
      "name": "checkPatientRegistered",
      "outputs": [
        {
          "internalType": "bool",
          "name": "",
          "type": "bool"
        }
      ],
      "stateMutability": "view",
      "type": "function",
      "constant": true
    },
    {
      "inputs": [
        {
          "internalType": "address",
          "name": "_walletAddress",
          "type": "address"
        }
      ],
      "name": "getPatientName",
      "outputs": [
        {
          "internalType": "string",
          "name": "",
          "type": "string"
        }
      ],
      "stateMutability": "view",
      "type": "function",
      "constant": true
    }
  ],
  "bytecode": "0x6080806040523461002d576000600181905580546001600160a01b03191633179055611c4f90816100338239f35b600080fdfe6080604052600436101561001257600080fd5b60003560e01c80630869cfbc146116ac5780630b171c0b1461162857806318a231a914611598578063200c85f7146107ea5780632c9365fa1461072a578063673448dd146100d75780637509807d146105f2578063823448e814610591578063867d56d514610536578063a0303c4114610518578063b5368e2014610259578063bd7be490146101e6578063c3c5a5471461011f578063d8f608df1461018b578063dbc837c514610162578063f159b3781461011f5763f3996d8a146100d757600080fd5b3461011a57602036600319011261011a576004356001600160a01b0381169081900361011a576000526004602052602060ff604060002054166040519015158152f35b600080fd5b3461011a57602036600319011261011a576004356001600160a01b0381169081900361011a576000526003602052602060ff604060002054166040519015158152f35b3461011a57600036600319011261011a576000546040516001600160a01b039091168152602090f35b3461011a57602036600319011261011a5760043560075481101561011a5760076000527fa66cc928b5edb82af9bd49922954155ab7b0942694bea4ce44661d9a8736c68801546040516001600160a01b039091168152602090f35b3461011a57602036600319011261011a576004356001600160a01b0381169081900361011a5780600052600360205261022660ff60406000205416611b24565b600052600260205261025561024160016040600020016118a6565b60405191829160208352602083019061196f565b0390f35b3461011a57602036600319011261011a576004356001600160a01b038116810361011a57600061018060405161028e81611869565b828152606060208201526060604082015260608082015260606080820152606060a0820152606060c08201528260e082015260606101008201526060610120820152826101408201526060610160820152015260018060a01b038116600052600360205261030360ff60406000205416611b24565b60018060a01b031660005260026020526040602081600020600c83519161032983611869565b80548352610339600182016118a6565b84840152610349600282016118a6565b85840152610359600382016118a6565b606084015261036a600482016118a6565b608084015261037b600582016118a6565b60a084015261038c600682016118a6565b60c084015260ff600782015416151560e08401526103ac600882016118a6565b6101008401526103be600982016118a6565b610120840152600a8101546001600160a01b03166101408401526103e4600b82016118a6565b610160840152015461018082015261018061050b6104df6104c76104a261048c61047661046061044a6104348a6101a08e519e8f9e8f9381855280518286015201519201526101c08d019061196f565b60408b01518c8203601f190160608e015261196f565b60608a01518b8203601f190160808d015261196f565b60808901518a8203601f190160a08c015261196f565b60a0880151898203601f190160c08b015261196f565b60c0870151888203601f190160e08a015261196f565b60e08601511515610100880152610100860151601f198883030161012089015261196f565b610120850151868203601f190161014088015261196f565b6101408401516001600160a01b031661016086810191909152840151858203601f19018487015261196f565b9101516101a08301520390f35b3461011a57600036600319011261011a576020600154604051908152f35b3461011a57602036600319011261011a5760043560065481101561011a5760066000527ff652222313e28459528d920b65115c16c04f3efc82aaedc97be59f3f377c0d3f01546040516001600160a01b039091168152602090f35b3461011a57602036600319011261011a576004356001600160401b03811161011a5760ff6105dc60206105c9819436906004016119d8565b816040519382858094519384920161194c565b8101600581520301902054166040519015158152f35b3461011a5760208060031936011261011a576004356001600160a01b038082169081830361011a5761062990600054163314611ad8565b806000526003835261064260ff60406000205416611b24565b806000526004835260ff604060002054166106e5577fc8d9adbe8fe339f7c7a95a0a30e9b3a0f384445e2b8ab2a1fce025a4b8907e9a9281600292600052828252600b60406000200161069e610698825461182f565b82611a6b565b601067105c1c1c9bdd995960c21b019055600052600481526040600020600160ff198254161790555260016040600020016106e0604051928392429184611b69565b0390a1005b60405162461bcd60e51b815260048101849052601860248201527f50617469656e7420616c726561647920617070726f76656400000000000000006044820152606490fd5b3461011a57602036600319011261011a576001600160a01b0360043581811680820361011a576107807fb182a37310fdec5a7eb41b626afe678858d2869fbc782028ebba74739556275993600054163314611ad8565b80600052600360205261079a60ff60406000205416611b24565b806000526002602052600b6040600020016107b8610698825461182f565b60106714995a9958dd195960c21b019055600052600260205260016040600020016106e0604051928392429184611b69565b3461011a5760031960203682011261011a576001600160401b036004351161011a57610120906004353603011261011a5760405161012081018181106001600160401b03821117610fe457604052600435600401356001600160401b03811161011a5761085e9060043691813501016119d8565b8152602460043501356001600160401b03811161011a576108869060043691813501016119d8565b6020820152604460043501356001600160401b03811161011a576108b19060043691813501016119d8565b6040820152606460043501356001600160401b03811161011a576108dc9060043691813501016119d8565b6060820152608460043501356001600160401b03811161011a576109079060043691813501016119d8565b608082015260a460043501356001600160401b03811161011a576109329060043691813501016119d8565b60a082015260c46004350135801515810361011a5760c082015260e460043501356001600160401b03811161011a576109729060043691813501016119d8565b60e08201526001600160401b0361010460043501351161011a576109a1366004803561010481013501016119d8565b61010082015233600052600360205260ff604060002054166115535760ff6109cc60e0830151611a2e565b541661150e57600160c08201511515036114d657610100810151511561149c5760e0810151511561146157600154600019811461144b57600181016001558151602083015160408401516060850151608086015160a08701519160c088015115159360e0890151956101008a01519760016040519a610a4a8c611869565b018a5260208a015260408901526060880152608087015260a086015260c085015260e0840152610100830152610120820152336101408201526040518060408101106001600160401b03604083011117610fe45760408101604052600781526650656e64696e6760c81b6020820152610160820152426101808201523360005260026020526040600020918151835560208201519283516001600160401b038111610fe457610b0981610b00600185015461182f565b60018501611a93565b6020601f82116001146113dc5781929394956000926113d1575b50508160011b916000199060031b1c19161760018201555b60408301519283516001600160401b038111610fe457610b6b81610b62600286015461182f565b60028601611a93565b6020601f8211600114611362578192939495600092611357575b50508160011b916000199060031b1c19161760028301555b60608101519283516001600160401b038111610fe457610bcd81610bc4600387015461182f565b60038701611a93565b6020601f82116001146112e85781929394956000926112dd575b50508160011b916000199060031b1c19161760038401555b60808201519283516001600160401b038111610fe457610c2f81610c26600485015461182f565b60048501611a93565b6020601f821160011461126e578192939495600092611263575b50508160011b916000199060031b1c19161760048201555b60a08301519283516001600160401b038111610fe457610c9181610c88600586015461182f565b60058601611a93565b6020601f82116001146111f45781929394956000926111e9575b50508160011b916000199060031b1c19161760058301555b60c08101519283516001600160401b038111610fe457610cf381610cea600687015461182f565b60068701611a93565b6020601f821160011461117a57819293949560009261116f575b50508160011b916000199060031b1c19161760068401555b6007830160e0830151151560ff801983541691161790556101008201519283516001600160401b038111610fe457610d6d81610d64600885015461182f565b60088501611a93565b6020601f82116001146111005781929394956000926110f5575b50508160011b916000199060031b1c19161760088201555b6101208301519283516001600160401b038111610fe457610dd081610dc7600986015461182f565b60098601611a93565b6020601f821160011461108657819293949560009261107b575b50508160011b916000199060031b1c19161760098301555b600a820160018060a01b03610140830151166bffffffffffffffffffffffff60a01b8254161790556101608101518051906001600160401b038211610fe457610e5b82610e52600b87015461182f565b600b8701611a93565b602090601f8311600114611005579180600c949261018094600092610ffa575b50508160011b916000199060031b1c191617600b8501555b01519101553360005260036020526040600020600160ff19825416179055610ebe60e0820151611a2e565b805460ff1916600117905560065468010000000000000000919082811015610fe4576001810180600655811015610fce577ff652222313e28459528d920b65115c16c04f3efc82aaedc97be59f3f377c0d3f0180546001600160a01b0319163317905560075491821015610fe4576001820180600755821015610fce577fd3b9b911aaeaa2d98ccff4ec7e4bf22ec4b6a5b59d53b1eac84017b91fafa8399160076000527fa66cc928b5edb82af9bd49922954155ab7b0942694bea4ce44661d9a8736c68801336bffffffffffffffffffffffff60a01b825416179055600154905190610fbd604051928392835260806020840152608083019061196f565b3360408301524260608301520390a1005b634e487b7160e01b600052603260045260246000fd5b634e487b7160e01b600052604160045260246000fd5b015190508780610e7b565b90600b850160005260206000209160005b601f1985168110611063575092600c94926001926101809583601f1981161061104a575b505050811b01600b850155610e93565b015160001960f88460031b161c1916905587808061103a565b91926020600181928685015181550194019201611016565b015190508580610dea565b6009840160005260206000209060005b601f19841681106110dd575060019394959683601f198116106110c4575b505050811b016009830155610e02565b015160001960f88460031b161c191690558580806110b4565b9091602060018192858b015181550193019101611096565b015190508580610d87565b6008830160005260206000209060005b601f1984168110611157575060019394959683601f1981161061113e575b505050811b016008820155610d9f565b015160001960f88460031b161c1916905585808061112e565b9091602060018192858b015181550193019101611110565b015190508580610d0d565b6006850160005260206000209060005b601f19841681106111d1575060019394959683601f198116106111b8575b505050811b016006840155610d25565b015160001960f88460031b161c191690558580806111a8565b9091602060018192858b01518155019301910161118a565b015190508580610cab565b6005840160005260206000209060005b601f198416811061124b575060019394959683601f19811610611232575b505050811b016005830155610cc3565b015160001960f88460031b161c19169055858080611222565b9091602060018192858b015181550193019101611204565b015190508580610c49565b6004830160005260206000209060005b601f19841681106112c5575060019394959683601f198116106112ac575b505050811b016004820155610c61565b015160001960f88460031b161c1916905585808061129c565b9091602060018192858b01518155019301910161127e565b015190508580610be7565b6003850160005260206000209060005b601f198416811061133f575060019394959683601f19811610611326575b505050811b016003840155610bff565b015160001960f88460031b161c19169055858080611316565b9091602060018192858b0151815501930191016112f8565b015190508580610b85565b6002840160005260206000209060005b601f19841681106113b9575060019394959683601f198116106113a0575b505050811b016002830155610b9d565b015160001960f88460031b161c19169055858080611390565b9091602060018192858b015181550193019101611372565b015190508580610b23565b6001830160005260206000209060005b601f1984168110611433575060019394959683601f1981161061141a575b505050811b016001820155610b3b565b015160001960f88460031b161c1916905585808061140a565b9091602060018192858b0151815501930191016113ec565b634e487b7160e01b600052601160045260246000fd5b60405162461bcd60e51b81526020600482015260136024820152721058591a185c881b9bdd081c1c9bdd9a591959606a1b6044820152606490fd5b60405162461bcd60e51b8152602060048201526012602482015271141a1bdd1bc81b9bdd081d5c1b1bd859195960721b6044820152606490fd5b60405162461bcd60e51b815260206004820152601060248201526f13d514081b9bdd081d995c9a599a595960821b6044820152606490fd5b60405162461bcd60e51b815260206004820152601960248201527f41616468617220616c72656164792072656769737465726564000000000000006044820152606490fd5b60405162461bcd60e51b815260206004820152601a60248201527f50617469656e7420616c726561647920726567697374657265640000000000006044820152606490fd5b3461011a57600036600319011261011a57604051806007549182815260208091019260076000527fa66cc928b5edb82af9bd49922954155ab7b0942694bea4ce44661d9a8736c688916000905b82821061160857610255856115fc81890382611885565b60405191829182611994565b83546001600160a01b0316865294850194600193840193909101906115e5565b3461011a57600036600319011261011a57604051806006549182815260208091019260066000527ff652222313e28459528d920b65115c16c04f3efc82aaedc97be59f3f377c0d3f916000905b82821061168c57610255856115fc81890382611885565b83546001600160a01b031686529485019460019384019390910190611675565b3461011a57602036600319011261011a576001600160a01b036004358181169081900361011a576000526002602052604060002090815490600183016116f1906118a6565b926116fe600282016118a6565b9161170b600383016118a6565b90611718600484016118a6565b611724600585016118a6565b611730600686016118a6565b600786015460ff1691611745600888016118a6565b93611752600989016118a6565b95600a8901541696600b8901611767906118a6565b98600c0154996040519c8d9c8d528c6101a06020819201528d0161178a9161196f565b8c810360408e015261179b9161196f565b8b810360608d01526117ac9161196f565b8a810360808c01526117bd9161196f565b89810360a08b01526117ce9161196f565b88810360c08a01526117df9161196f565b90151560e08801528681036101008801526117f99161196f565b85810361012087015261180b9161196f565b906101408501528381036101608501526118249161196f565b906101808301520390f35b90600182811c9216801561185f575b602083101461184957565b634e487b7160e01b600052602260045260246000fd5b91607f169161183e565b6101a081019081106001600160401b03821117610fe457604052565b90601f801991011681019081106001600160401b03821117610fe457604052565b90604051918260008254926118ba8461182f565b90818452600194858116908160001461192957506001146118e6575b50506118e492500383611885565b565b9093915060005260209081600020936000915b8183106119115750506118e4935082010138806118d6565b855488840185015294850194879450918301916118f9565b9150506118e494506020925060ff191682840152151560051b82010138806118d6565b60005b83811061195f5750506000910152565b818101518382015260200161194f565b906020916119888151809281855285808601910161194c565b601f01601f1916010190565b6020908160408183019282815285518094520193019160005b8281106119bb575050505090565b83516001600160a01b0316855293810193928101926001016119ad565b81601f8201121561011a578035906001600160401b038211610fe45760405192611a0c601f8401601f191660200185611885565b8284526020838301011161011a57816000926020809301838601378301015290565b6020611a4791816040519382858094519384920161194c565b8101600581520301902090565b818110611a5f575050565b60008155600101611a54565b90601f8111611a78575050565b6118e491600052601f6020600020910160051c810190611a54565b9190601f8111611aa257505050565b6118e4926000526020600020906020601f840160051c83019310611ace575b601f0160051c0190611a54565b9091508190611ac1565b15611adf57565b60405162461bcd60e51b815260206004820152601860248201527f4f6e6c7920696e73757265722063616e20646f207468697300000000000000006044820152606490fd5b15611b2b57565b60405162461bcd60e51b815260206004820152601660248201527514185d1a595b9d081b9bdd081c9959da5cdd195c995960521b6044820152606490fd5b9392919060018060a01b0316845260206060818601526000908254611b8d8161182f565b938460608901526001918281169081600014611bf45750600114611bb8575b50505060409150930152565b6000908152828120909493505b838510611be057505050506080604091850101388080611bac565b805488860160800152938201938101611bc5565b9250505060809250604093915060ff191682870152151560051b850101388080611bac56fea26469706673582212203d6fb878dfd976c2d9038fe71937975c8448234a536047eeb52aa392c099440764736f6c63430008130033",
  "immutableReferences": {},
  "source": "// SPDX-License-Identifier: MIT\r\npragma solidity ^0.8.19;\r\n\r\ncontract UserRegistry {\r\n\r\n    address public insurer;\r\n\r\n    struct Patient {\r\n        uint patientId;\r\n        string name;\r\n        string dob;\r\n        string gender;\r\n        string mobile;\r\n        string email;\r\n        string location;\r\n        bool otpVerified;\r\n        string aadharHash;\r\n        string photoHash;\r\n        address walletAddress;\r\n        string status;\r\n        uint timestamp;\r\n    }\r\n\r\n    struct PatientInput {\r\n        string name;\r\n        string dob;\r\n        string gender;\r\n        string mobile;\r\n        string email;\r\n        string location;\r\n        bool otpVerified;\r\n        string aadharHash;\r\n        string photoHash;\r\n    }\r\n\r\n    uint public patientCount = 0;\r\n\r\n    mapping(address => Patient) public patients;\r\n    mapping(address => bool) public isRegistered;\r\n    mapping(address => bool) public isApproved;\r\n    mapping(string => bool) public aadharExists;\r\n\r\n    address[] public pendingPatients;\r\n    address[] public allPatients;\r\n\r\n    event PatientRegistered(uint patientId, string name, address walletAddress, uint timestamp);\r\n    event PatientApproved(address walletAddress, string name, uint timestamp);\r\n    event PatientRejected(address walletAddress, string name, uint timestamp);\r\n\r\n    modifier onlyInsurer() {\r\n        require(msg.sender == insurer, \"Only insurer can do this\");\r\n        _;\r\n    }\r\n\r\n    constructor() {\r\n        insurer = msg.sender;\r\n    }\r\n\r\n    function registerPatient(PatientInput memory input) public {\r\n        require(!isRegistered[msg.sender],          \"Patient already registered\");\r\n        require(!aadharExists[input.aadharHash],    \"Aadhar already registered\");\r\n        require(input.otpVerified == true,          \"OTP not verified\");\r\n        require(bytes(input.photoHash).length > 0,  \"Photo not uploaded\");\r\n        require(bytes(input.aadharHash).length > 0, \"Aadhar not provided\");\r\n\r\n        patientCount++;\r\n\r\n        patients[msg.sender] = Patient(\r\n            patientCount,\r\n            input.name,\r\n            input.dob,\r\n            input.gender,\r\n            input.mobile,\r\n            input.email,\r\n            input.location,\r\n            input.otpVerified,\r\n            input.aadharHash,\r\n            input.photoHash,\r\n            msg.sender,\r\n            \"Pending\",\r\n            block.timestamp\r\n        );\r\n\r\n        isRegistered[msg.sender]          = true;\r\n        aadharExists[input.aadharHash]    = true;\r\n        pendingPatients.push(msg.sender);\r\n        allPatients.push(msg.sender);\r\n\r\n        emit PatientRegistered(patientCount, input.name, msg.sender, block.timestamp);\r\n    }\r\n\r\n    function approvePatient(address _walletAddress) public onlyInsurer {\r\n        require(isRegistered[_walletAddress], \"Patient not registered\");\r\n        require(!isApproved[_walletAddress],  \"Patient already approved\");\r\n\r\n        patients[_walletAddress].status = \"Approved\";\r\n        isApproved[_walletAddress]      = true;\r\n\r\n        emit PatientApproved(_walletAddress, patients[_walletAddress].name, block.timestamp);\r\n    }\r\n\r\n    function rejectPatient(address _walletAddress) public onlyInsurer {\r\n        require(isRegistered[_walletAddress], \"Patient not registered\");\r\n\r\n        patients[_walletAddress].status = \"Rejected\";\r\n\r\n        emit PatientRejected(_walletAddress, patients[_walletAddress].name, block.timestamp);\r\n    }\r\n\r\n    function getPatient(address _walletAddress) public view returns (Patient memory) {\r\n        require(isRegistered[_walletAddress], \"Patient not registered\");\r\n        return patients[_walletAddress];\r\n    }\r\n\r\n    function getPendingPatients() public view returns (address[] memory) {\r\n        return pendingPatients;\r\n    }\r\n\r\n    function getAllPatients() public view returns (address[] memory) {\r\n        return allPatients;\r\n    }\r\n\r\n    function checkPatientApproved(address _walletAddress) public view returns (bool) {\r\n        return isApproved[_walletAddress];\r\n    }\r\n\r\n    function checkPatientRegistered(address _walletAddress) public view returns (bool) {\r\n        return isRegistered[_walletAddress];\r\n    }\r\n\r\n    // ================================\r\n    // ADDED FOR CLAIM CONTRACT\r\n    // ================================\r\n    function getPatientName(address _walletAddress) public view returns (string memory) {\r\n        require(isRegistered[_walletAddress], \"Patient not registered\");\r\n        return patients[_walletAddress].name;\r\n    }\r\n}\r\n",
  "sourcePath": "E:\\medinsure\\contracts\\UserRegistry.sol",
  "compiler": {
    "name": "solc",
    "version": "0.8.19+commit.7dd6d404.Emscripten.clang"
  },
  "schemaVersion": "3.4.16",
  "updatedAt": "2026-03-06T14:23:17.777Z",
  "networkType": "ethereum",
  "devdoc": {
    "kind": "dev",
    "methods": {},
    "version": 1
  },
  "userdoc": {
    "kind": "user",
    "methods": {},
    "version": 1
  }
}