{
  "contractName": "UserRegistry",
  "abi": [
    {
      "inputs": [],
      "stateMutability": "nonpayable",
      "type": "constructor"
    },
    {
      "anonymous": false,
      "inputs": [
        {
          "indexed": true,
          "internalType": "bytes32",
          "name": "idHash",
          "type": "bytes32"
        }
      ],
      "name": "MemberIdAdded",
      "type": "event"
    },
    {
      "anonymous": false,
      "inputs": [
        {
          "indexed": false,
          "internalType": "address",
          "name": "walletAddress",
          "type": "address"
        },
        {
          "indexed": false,
          "internalType": "string",
          "name": "name",
          "type": "string"
        },
        {
          "indexed": false,
          "internalType": "uint256",
          "name": "timestamp",
          "type": "uint256"
        }
      ],
      "name": "PatientApproved",
      "type": "event"
    },
    {
      "anonymous": false,
      "inputs": [
        {
          "indexed": false,
          "internalType": "uint256",
          "name": "patientId",
          "type": "uint256"
        },
        {
          "indexed": false,
          "internalType": "string",
          "name": "name",
          "type": "string"
        },
        {
          "indexed": false,
          "internalType": "address",
          "name": "walletAddress",
          "type": "address"
        },
        {
          "indexed": false,
          "internalType": "uint256",
          "name": "timestamp",
          "type": "uint256"
        }
      ],
      "name": "PatientRegistered",
      "type": "event"
    },
    {
      "anonymous": false,
      "inputs": [
        {
          "indexed": false,
          "internalType": "address",
          "name": "walletAddress",
          "type": "address"
        },
        {
          "indexed": false,
          "internalType": "string",
          "name": "name",
          "type": "string"
        },
        {
          "indexed": false,
          "internalType": "uint256",
          "name": "timestamp",
          "type": "uint256"
        }
      ],
      "name": "PatientRejected",
      "type": "event"
    },
    {
      "inputs": [
        {
          "internalType": "uint256",
          "name": "",
          "type": "uint256"
        }
      ],
      "name": "allPatients",
      "outputs": [
        {
          "internalType": "address",
          "name": "",
          "type": "address"
        }
      ],
      "stateMutability": "view",
      "type": "function",
      "constant": true
    },
    {
      "inputs": [],
      "name": "insurer",
      "outputs": [
        {
          "internalType": "address",
          "name": "",
          "type": "address"
        }
      ],
      "stateMutability": "view",
      "type": "function",
      "constant": true
    },
    {
      "inputs": [
        {
          "internalType": "address",
          "name": "",
          "type": "address"
        }
      ],
      "name": "isApproved",
      "outputs": [
        {
          "internalType": "bool",
          "name": "",
          "type": "bool"
        }
      ],
      "stateMutability": "view",
      "type": "function",
      "constant": true
    },
    {
      "inputs": [
        {
          "internalType": "address",
          "name": "",
          "type": "address"
        }
      ],
      "name": "isRegistered",
      "outputs": [
        {
          "internalType": "bool",
          "name": "",
          "type": "bool"
        }
      ],
      "stateMutability": "view",
      "type": "function",
      "constant": true
    },
    {
      "inputs": [
        {
          "internalType": "bytes32",
          "name": "",
          "type": "bytes32"
        }
      ],
      "name": "memberIdAadhaarCID",
      "outputs": [
        {
          "internalType": "string",
          "name": "",
          "type": "string"
        }
      ],
      "stateMutability": "view",
      "type": "function",
      "constant": true
    },
    {
      "inputs": [
        {
          "internalType": "bytes32",
          "name": "",
          "type": "bytes32"
        }
      ],
      "name": "memberIdUsed",
      "outputs": [
        {
          "internalType": "bool",
          "name": "",
          "type": "bool"
        }
      ],
      "stateMutability": "view",
      "type": "function",
      "constant": true
    },
    {
      "inputs": [],
      "name": "patientCount",
      "outputs": [
        {
          "internalType": "uint256",
          "name": "",
          "type": "uint256"
        }
      ],
      "stateMutability": "view",
      "type": "function",
      "constant": true
    },
    {
      "inputs": [
        {
          "internalType": "address",
          "name": "",
          "type": "address"
        }
      ],
      "name": "patients",
      "outputs": [
        {
          "internalType": "uint256",
          "name": "patientId",
          "type": "uint256"
        },
        {
          "internalType": "string",
          "name": "name",
          "type": "string"
        },
        {
          "internalType": "string",
          "name": "dob",
          "type": "string"
        },
        {
          "internalType": "string",
          "name": "gender",
          "type": "string"
        },
        {
          "internalType": "string",
          "name": "mobile",
          "type": "string"
        },
        {
          "internalType": "string",
          "name": "email",
          "type": "string"
        },
        {
          "internalType": "string",
          "name": "location",
          "type": "string"
        },
        {
          "internalType": "bool",
          "name": "otpVerified",
          "type": "bool"
        },
        {
          "internalType": "bytes32",
          "name": "memberIdHash",
          "type": "bytes32"
        },
        {
          "internalType": "string",
          "name": "photoHash",
          "type": "string"
        },
        {
          "internalType": "address",
          "name": "walletAddress",
          "type": "address"
        },
        {
          "internalType": "string",
          "name": "status",
          "type": "string"
        },
        {
          "internalType": "uint256",
          "name": "timestamp",
          "type": "uint256"
        }
      ],
      "stateMutability": "view",
      "type": "function",
      "constant": true
    },
    {
      "inputs": [
        {
          "internalType": "uint256",
          "name": "",
          "type": "uint256"
        }
      ],
      "name": "pendingPatients",
      "outputs": [
        {
          "internalType": "address",
          "name": "",
          "type": "address"
        }
      ],
      "stateMutability": "view",
      "type": "function",
      "constant": true
    },
    {
      "inputs": [
        {
          "internalType": "bytes32",
          "name": "",
          "type": "bytes32"
        }
      ],
      "name": "validMemberIds",
      "outputs": [
        {
          "internalType": "bool",
          "name": "",
          "type": "bool"
        }
      ],
      "stateMutability": "view",
      "type": "function",
      "constant": true
    },
    {
      "inputs": [
        {
          "internalType": "bytes32",
          "name": "idHash",
          "type": "bytes32"
        }
      ],
      "name": "addMemberId",
      "outputs": [],
      "stateMutability": "nonpayable",
      "type": "function"
    },
    {
      "inputs": [
        {
          "internalType": "bytes32",
          "name": "idHash",
          "type": "bytes32"
        },
        {
          "internalType": "string",
          "name": "aadhaarCID",
          "type": "string"
        }
      ],
      "name": "addMemberIdWithAadhaar",
      "outputs": [],
      "stateMutability": "nonpayable",
      "type": "function"
    },
    {
      "inputs": [
        {
          "internalType": "bytes32",
          "name": "idHash",
          "type": "bytes32"
        }
      ],
      "name": "getAadhaarCID",
      "outputs": [
        {
          "internalType": "string",
          "name": "",
          "type": "string"
        }
      ],
      "stateMutability": "view",
      "type": "function",
      "constant": true
    },
    {
      "inputs": [
        {
          "internalType": "bytes32[]",
          "name": "idHashes",
          "type": "bytes32[]"
        }
      ],
      "name": "addMemberIds",
      "outputs": [],
      "stateMutability": "nonpayable",
      "type": "function"
    },
    {
      "inputs": [
        {
          "internalType": "bytes32",
          "name": "idHash",
          "type": "bytes32"
        }
      ],
      "name": "checkMemberId",
      "outputs": [
        {
          "internalType": "bool",
          "name": "",
          "type": "bool"
        }
      ],
      "stateMutability": "view",
      "type": "function",
      "constant": true
    },
    {
      "inputs": [
        {
          "components": [
            {
              "internalType": "string",
              "name": "name",
              "type": "string"
            },
            {
              "internalType": "string",
              "name": "dob",
              "type": "string"
            },
            {
              "internalType": "string",
              "name": "gender",
              "type": "string"
            },
            {
              "internalType": "string",
              "name": "mobile",
              "type": "string"
            },
            {
              "internalType": "string",
              "name": "email",
              "type": "string"
            },
            {
              "internalType": "string",
              "name": "location",
              "type": "string"
            },
            {
              "internalType": "bool",
              "name": "otpVerified",
              "type": "bool"
            },
            {
              "internalType": "bytes32",
              "name": "memberIdHash",
              "type": "bytes32"
            },
            {
              "internalType": "string",
              "name": "photoHash",
              "type": "string"
            }
          ],
          "internalType": "struct UserRegistry.PatientInput",
          "name": "input",
          "type": "tuple"
        }
      ],
      "name": "registerPatient",
      "outputs": [],
      "stateMutability": "nonpayable",
      "type": "function"
    },
    {
      "inputs": [
        {
          "internalType": "address",
          "name": "_walletAddress",
          "type": "address"
        }
      ],
      "name": "approvePatient",
      "outputs": [],
      "stateMutability": "nonpayable",
      "type": "function"
    },
    {
      "inputs": [
        {
          "internalType": "address",
          "name": "_walletAddress",
          "type": "address"
        }
      ],
      "name": "rejectPatient",
      "outputs": [],
      "stateMutability": "nonpayable",
      "type": "function"
    },
    {
      "inputs": [
        {
          "internalType": "address",
          "name": "_walletAddress",
          "type": "address"
        }
      ],
      "name": "getPatient",
      "outputs": [
        {
          "components": [
            {
              "internalType": "uint256",
              "name": "patientId",
              "type": "uint256"
            },
            {
              "internalType": "string",
              "name": "name",
              "type": "string"
            },
            {
              "internalType": "string",
              "name": "dob",
              "type": "string"
            },
            {
              "internalType": "string",
              "name": "gender",
              "type": "string"
            },
            {
              "internalType": "string",
              "name": "mobile",
              "type": "string"
            },
            {
              "internalType": "string",
              "name": "email",
              "type": "string"
            },
            {
              "internalType": "string",
              "name": "location",
              "type": "string"
            },
            {
              "internalType": "bool",
              "name": "otpVerified",
              "type": "bool"
            },
            {
              "internalType": "bytes32",
              "name": "memberIdHash",
              "type": "bytes32"
            },
            {
              "internalType": "string",
              "name": "photoHash",
              "type": "string"
            },
            {
              "internalType": "address",
              "name": "walletAddress",
              "type": "address"
            },
            {
              "internalType": "string",
              "name": "status",
              "type": "string"
            },
            {
              "internalType": "uint256",
              "name": "timestamp",
              "type": "uint256"
            }
          ],
          "internalType": "struct UserRegistry.Patient",
          "name": "",
          "type": "tuple"
        }
      ],
      "stateMutability": "view",
      "type": "function",
      "constant": true
    },
    {
      "inputs": [],
      "name": "getPendingPatients",
      "outputs": [
        {
          "internalType": "address[]",
          "name": "",
          "type": "address[]"
        }
      ],
      "stateMutability": "view",
      "type": "function",
      "constant": true
    },
    {
      "inputs": [],
      "name": "getAllPatients",
      "outputs": [
        {
          "internalType": "address[]",
          "name": "",
          "type": "address[]"
        }
      ],
      "stateMutability": "view",
      "type": "function",
      "constant": true
    },
    {
      "inputs": [
        {
          "internalType": "address",
          "name": "_walletAddress",
          "type": "address"
        }
      ],
      "name": "checkPatientApproved",
      "outputs": [
        {
          "internalType": "bool",
          "name": "",
          "type": "bool"
        }
      ],
      "stateMutability": "view",
      "type": "function",
      "constant": true
    },
    {
      "inputs": [
        {
          "internalType": "address",
          "name": "_walletAddress",
          "type": "address"
        }
      ],
      "name": "checkPatientRegistered",
      "outputs": [
        {
          "internalType": "bool",
          "name": "",
          "type": "bool"
        }
      ],
      "stateMutability": "view",
      "type": "function",
      "constant": true
    },
    {
      "inputs": [
        {
          "internalType": "address",
          "name": "_walletAddress",
          "type": "address"
        }
      ],
      "name": "getPatientName",
      "outputs": [
        {
          "internalType": "string",
          "name": "",
          "type": "string"
        }
      ],
      "stateMutability": "view",
      "type": "function",
      "constant": true
    }
  ],
  "bytecode": "0x6080806040523461002d576000600181905580546001600160a01b03191633179055611eec90816100338239f35b600080fdfe6080604052600436101561001257600080fd5b60003560e01c806306f86143146119595780630869cfbc146117e75780630b171c0b1461176357806318a231a9146116d35780631d1e785b146105d25780632c9365fa146116135780633e1ed7fa146115aa5780635840fa5f146108b15780635d26dbcd14610864578063673448dd14610124578063704f1adc146107915780637509807d14610659578063867d56d5146105fe5780639607cc45146105d2578063a0303c41146105b4578063b4742ba314610583578063b5368e20146102d7578063bd7be49014610264578063c3c5a5471461016c578063d05aee8f14610233578063d8f608df146101d8578063dbc837c5146101af578063f159b3781461016c5763f3996d8a1461012457600080fd5b34610167576020366003190112610167576004356001600160a01b03811690819003610167576000526004602052602060ff604060002054166040519015158152f35b600080fd5b34610167576020366003190112610167576004356001600160a01b03811690819003610167576000526003602052602060ff604060002054166040519015158152f35b34610167576000366003190112610167576000546040516001600160a01b039091168152602090f35b34610167576020366003190112610167576004356009548110156101675760096000527f6e1540171b6c0c960b71a7020d9f60077f6af931a8bbf590da0223dacf75c7af01546040516001600160a01b039091168152602090f35b34610167576020366003190112610167576004356000526006602052602060ff604060002054166040519015158152f35b34610167576020366003190112610167576004356001600160a01b03811690819003610167578060005260036020526102a460ff60406000205416611dc1565b60005260026020526102d36102bf6001604060002001611b3c565b604051918291602083526020830190611be2565b0390f35b34610167576020366003190112610167576004356001600160a01b038116810361016757600061018060405161030c81611aff565b828152606060208201526060604082015260608082015260606080820152606060a0820152606060c08201528260e0820152826101008201526060610120820152826101408201526060610160820152015260018060a01b038116600052600360205261038060ff60406000205416611dc1565b60018060a01b031660005260026020526040600020600c604051916103a483611aff565b805483526103b460018201611b3c565b60208401526103c560028201611b3c565b60408401526103d660038201611b3c565b60608401526103e760048201611b3c565b60808401526103f860058201611b3c565b60a084015261040960068201611b3c565b60c084015260ff600782015416151560e0840152600881015461010084015261043460098201611b3c565b610120840152600a8101546001600160a01b031661014084015261045a600b8201611b3c565b61016084015201546101808201526040518091602082528051602083015261018061057661054a6105196105036104ed6104d76104c16104ab60208a01516101a060408d01526101c08c0190611be2565b60408a01518b8203601f190160608d0152611be2565b60608901518a8203601f190160808c0152611be2565b6080880151898203601f190160a08b0152611be2565b60a0870151888203601f190160c08a0152611be2565b60c0860151878203601f190160e0890152611be2565b60e08501511515610100870152610100850151610120870152610120850151601f1987830301610140880152611be2565b6101408401516001600160a01b031661016086810191909152840151858203601f190184870152611be2565b9101516101a08301520390f35b34610167576020366003190112610167576004356000526005602052602060ff604060002054166040519015158152f35b34610167576000366003190112610167576020600154604051908152f35b346101675760203660031901126101675760043560005260076020526102d36102bf6040600020611b3c565b34610167576020366003190112610167576004356008548110156101675760086000527ff3f7a9fe364faab93b216da50a3214154f22a0a2b415b23a84c8169e8b636ee301546040516001600160a01b039091168152602090f35b3461016757602080600319360112610167576004356001600160a01b03808216908183036101675761069090600054163314611cbc565b80600052600383526106a960ff60406000205416611dc1565b806000526004835260ff6040600020541661074c577fc8d9adbe8fe339f7c7a95a0a30e9b3a0f384445e2b8ab2a1fce025a4b8907e9a9281600292600052828252600b6040600020016107056106ff8254611ac5565b82611d1f565b601067105c1c1c9bdd995960c21b019055600052600481526040600020600160ff19825416179055526001604060002001610747604051928392429184611e06565b0390a1005b60405162461bcd60e51b815260048101849052601860248201527f50617469656e7420616c726561647920617070726f76656400000000000000006044820152606490fd5b3461016757602080600319360112610167576001600160401b0360043581811161016757366023820112156101675780600401359182116101675760248101926005916024369185851b010111610167576107f760018060a01b03600054163314611cbc565b60005b83811061080357005b8061081261085f928688611db1565b356000528383526040600020600160ff19825416179055610834818688611db1565b357f8e16523199e6bb37a282ffbeb25788ec44caf82b0bba56914b317eecca62b667600080a2611d8c565b6107fa565b3461016757602036600319011261016757600435600052600560205260ff604060002054168061089c575b6020906040519015158152f35b50600660205260406000205460ff161561088f565b3461016757600319602036820112610167576001600160401b03600435116101675761012090600435360301126101675760405161012081018181106001600160401b0382111761105157604052600435600401356001600160401b03811161016757610925906004369181350101611c66565b8152602460043501356001600160401b0381116101675761094d906004369181350101611c66565b6020820152604460043501356001600160401b03811161016757610978906004369181350101611c66565b6040820152606460043501356001600160401b038111610167576109a3906004369181350101611c66565b6060820152608460043501356001600160401b038111610167576109ce906004369181350101611c66565b608082015260a460043501356001600160401b038111610167576109f9906004369181350101611c66565b60a082015260c4600435013580151581036101675760c082015260e4600435013560e08201526001600160401b0361010460043501351161016757610a4936600480356101048101350101611c66565b61010082015233600052600360205260ff6040600020541661156557600160c082015115150361152d5761010081015151156114f35760e0810151156114b55760e0810151600052600560205260ff604060002054161561147c5760e0810151600052600660205260ff6040600020541661143e57610ac9600154611d8c565b90816001558051602082015160408301516060840151608085015160a08601519160c087015115159360e088015195610100890151976040519a610b0c8c611aff565b8b5260208b015260408a01526060890152608088015260a087015260c086015260e0850152610100840152610120830152336101408301526040518060408101106001600160401b036040830111176110515760408101604052600781526650656e64696e6760c81b60208201526101608301524261018083015233600052600260205260406000208251815560208301519283516001600160401b03811161105157610bc981610bc06001860154611ac5565b60018601611d47565b6020601f82116001146113cf5781929394956000926113c4575b50508160011b916000199060031b1c19161760018301555b60408101519283516001600160401b03811161105157610c2b81610c226002870154611ac5565b60028701611d47565b6020601f821160011461135557819293949560009261134a575b50508160011b916000199060031b1c19161760028401555b60608201519283516001600160401b03811161105157610c8d81610c846003850154611ac5565b60038501611d47565b6020601f82116001146112db5781929394956000926112d0575b50508160011b916000199060031b1c19161760038201555b60808301519283516001600160401b03811161105157610cef81610ce66004860154611ac5565b60048601611d47565b6020601f8211600114611261578192939495600092611256575b50508160011b916000199060031b1c19161760048301555b60a08101519283516001600160401b03811161105157610d5181610d486005870154611ac5565b60058701611d47565b6020601f82116001146111e75781929394956000926111dc575b50508160011b916000199060031b1c19161760058401555b60c08201519283516001600160401b03811161105157610db381610daa6006850154611ac5565b60068501611d47565b6020601f821160011461116d578192939495600092611162575b50508160011b916000199060031b1c19161760068201555b6007810160e0840151151560ff8019835416911617905561010083015160088201556101208301519283516001600160401b03811161105157610e3881610e2f6009860154611ac5565b60098601611d47565b6020601f82116001146110f35781929394956000926110e8575b50508160011b916000199060031b1c19161760098301555b600a820160018060a01b03610140830151166bffffffffffffffffffffffff60a01b8254161790556101608101518051906001600160401b03821161105157610ec382610eba600b870154611ac5565b600b8701611d47565b602090601f8311600114611072579180600c949261018094600092611067575b50508160011b916000199060031b1c191617600b8501555b01519101553360005260036020526040600020600160ff1982541617905560e081015160005260066020526040600020600160ff198254161790556008549068010000000000000000918281101561105157600181018060085581101561103b577ff3f7a9fe364faab93b216da50a3214154f22a0a2b415b23a84c8169e8b636ee30180546001600160a01b031916331790556009549182101561105157600182018060095582101561103b577fd3b9b911aaeaa2d98ccff4ec7e4bf22ec4b6a5b59d53b1eac84017b91fafa8399160096000527f6e1540171b6c0c960b71a7020d9f60077f6af931a8bbf590da0223dacf75c7af01336bffffffffffffffffffffffff60a01b82541617905560015490519061102a6040519283928352608060208401526080830190611be2565b3360408301524260608301520390a1005b634e487b7160e01b600052603260045260246000fd5b634e487b7160e01b600052604160045260246000fd5b015190508780610ee3565b90600b850160005260206000209160005b601f19851681106110d0575092600c94926001926101809583601f198116106110b7575b505050811b01600b850155610efb565b015160001960f88460031b161c191690558780806110a7565b91926020600181928685015181550194019201611083565b015190508580610e52565b6009840160005260206000209060005b601f198416811061114a575060019394959683601f19811610611131575b505050811b016009830155610e6a565b015160001960f88460031b161c19169055858080611121565b9091602060018192858b015181550193019101611103565b015190508580610dcd565b6006830160005260206000209060005b601f19841681106111c4575060019394959683601f198116106111ab575b505050811b016006820155610de5565b015160001960f88460031b161c1916905585808061119b565b9091602060018192858b01518155019301910161117d565b015190508580610d6b565b6005850160005260206000209060005b601f198416811061123e575060019394959683601f19811610611225575b505050811b016005840155610d83565b015160001960f88460031b161c19169055858080611215565b9091602060018192858b0151815501930191016111f7565b015190508580610d09565b6004840160005260206000209060005b601f19841681106112b8575060019394959683601f1981161061129f575b505050811b016004830155610d21565b015160001960f88460031b161c1916905585808061128f565b9091602060018192858b015181550193019101611271565b015190508580610ca7565b6003830160005260206000209060005b601f1984168110611332575060019394959683601f19811610611319575b505050811b016003820155610cbf565b015160001960f88460031b161c19169055858080611309565b9091602060018192858b0151815501930191016112eb565b015190508580610c45565b6002850160005260206000209060005b601f19841681106113ac575060019394959683601f19811610611393575b505050811b016002840155610c5d565b015160001960f88460031b161c19169055858080611383565b9091602060018192858b015181550193019101611365565b015190508580610be3565b6001840160005260206000209060005b601f1984168110611426575060019394959683601f1981161061140d575b505050811b016001830155610bfb565b015160001960f88460031b161c191690558580806113fd565b9091602060018192858b0151815501930191016113df565b60405162461bcd60e51b815260206004820152601660248201527513595b58995c88125108185b1c9958591e481d5cd95960521b6044820152606490fd5b60405162461bcd60e51b8152602060048201526011602482015270125b9d985b1a590813595b58995c881251607a1b6044820152606490fd5b60405162461bcd60e51b815260206004820152601660248201527513595b58995c881251081b9bdd081c1c9bdd9a59195960521b6044820152606490fd5b60405162461bcd60e51b8152602060048201526012602482015271141a1bdd1bc81b9bdd081d5c1b1bd859195960721b6044820152606490fd5b60405162461bcd60e51b815260206004820152601060248201526f13d514081b9bdd081d995c9a599a595960821b6044820152606490fd5b60405162461bcd60e51b815260206004820152601a60248201527f50617469656e7420616c726561647920726567697374657265640000000000006044820152606490fd5b34610167576020366003190112610167576004356115d360018060a01b03600054163314611cbc565b8060005260056020526040600020600160ff198254161790557f8e16523199e6bb37a282ffbeb25788ec44caf82b0bba56914b317eecca62b667600080a2005b34610167576020366003190112610167576001600160a01b03600435818116808203610167576116697fb182a37310fdec5a7eb41b626afe678858d2869fbc782028ebba74739556275993600054163314611cbc565b80600052600360205261168360ff60406000205416611dc1565b806000526002602052600b6040600020016116a16106ff8254611ac5565b60106714995a9958dd195960c21b01905560005260026020526001604060002001610747604051928392429184611e06565b3461016757600036600319011261016757604051806009549182815260208091019260096000527f6e1540171b6c0c960b71a7020d9f60077f6af931a8bbf590da0223dacf75c7af916000905b828210611743576102d38561173781890382611b1b565b60405191829182611c22565b83546001600160a01b031686529485019460019384019390910190611720565b3461016757600036600319011261016757604051806008549182815260208091019260086000527ff3f7a9fe364faab93b216da50a3214154f22a0a2b415b23a84c8169e8b636ee3916000905b8282106117c7576102d38561173781890382611b1b565b83546001600160a01b0316865294850194600193840193909101906117b0565b34610167576020366003190112610167576001600160a01b03600435818116908190036101675760005260026020526040600020908154906001830161182c90611b3c565b9261183960028201611b3c565b9161184660038301611b3c565b9061185360048401611b3c565b61185f60058501611b3c565b9061186c60068601611b3c565b600786015460ff16926008870154926009880161188890611b3c565b95600a8901541696600b890161189d90611b3c565b98600c0154996040519c8d9c8d528c6101a06020819201528d016118c091611be2565b8c810360408e01526118d191611be2565b8b810360608d01526118e291611be2565b8a810360808c01526118f391611be2565b89810360a08b015261190491611be2565b88810360c08a015261191591611be2565b91151560e088015261010087015285810361012087015261193591611be2565b9061014085015283810361016085015261194e91611be2565b906101808301520390f35b346101675760403660031901126101675760043560248035906001600160401b0380831161016757366023840112156101675782600401359081116101675736828285010111610167576119b860018060a01b03600054163314611cbc565b83600052602091600583526040600020926001938460ff19825416179055600781526040600020946119f4846119ee8854611ac5565b88611d47565b600091601f8511600114611a585750918394918493600095611a4b575b5050501b916000199060031b1c19161790555b7f8e16523199e6bb37a282ffbeb25788ec44caf82b0bba56914b317eecca62b667600080a2005b0101359250868080611a11565b92909184601f1981168860005285600020956000905b89838310611aa95750505010611a8d575b50505050811b019055611a24565b60001960f88660031b161c199201013516905584808080611a7f565b8786018701358955909701969384019388935090810190611a6e565b90600182811c92168015611af5575b6020831014611adf57565b634e487b7160e01b600052602260045260246000fd5b91607f1691611ad4565b6101a081019081106001600160401b0382111761105157604052565b90601f801991011681019081106001600160401b0382111761105157604052565b9060405191826000825492611b5084611ac5565b908184526001948581169081600014611bbf5750600114611b7c575b5050611b7a92500383611b1b565b565b9093915060005260209081600020936000915b818310611ba7575050611b7a93508201013880611b6c565b85548884018501529485019487945091830191611b8f565b915050611b7a94506020925060ff191682840152151560051b8201013880611b6c565b919082519283825260005b848110611c0e575050826000602080949584010152601f8019910116010190565b602081830181015184830182015201611bed565b6020908160408183019282815285518094520193019160005b828110611c49575050505090565b83516001600160a01b031685529381019392810192600101611c3b565b81601f82011215610167578035906001600160401b0382116110515760405192611c9a601f8401601f191660200185611b1b565b8284526020838301011161016757816000926020809301838601378301015290565b15611cc357565b60405162461bcd60e51b815260206004820152601860248201527f4f6e6c7920696e73757265722063616e20646f207468697300000000000000006044820152606490fd5b818110611d13575050565b60008155600101611d08565b90601f8111611d2c575050565b611b7a91600052601f6020600020910160051c810190611d08565b9190601f8111611d5657505050565b611b7a926000526020600020906020601f840160051c83019310611d82575b601f0160051c0190611d08565b9091508190611d75565b6000198114611d9b5760010190565b634e487b7160e01b600052601160045260246000fd5b919081101561103b5760051b0190565b15611dc857565b60405162461bcd60e51b815260206004820152601660248201527514185d1a595b9d081b9bdd081c9959da5cdd195c995960521b6044820152606490fd5b9392919060018060a01b0316845260206060818601526000908254611e2a81611ac5565b938460608901526001918281169081600014611e915750600114611e55575b50505060409150930152565b6000908152828120909493505b838510611e7d57505050506080604091850101388080611e49565b805488860160800152938201938101611e62565b9250505060809250604093915060ff191682870152151560051b850101388080611e4956fea2646970667358221220153b895c8e669424f4ca9dd39100c85e0127bed1780e2efdc73176c607e5645864736f6c63430008130033",
  "immutableReferences": {},
  "source": "// SPDX-License-Identifier: MIT\r\npragma solidity ^0.8.19;\r\n\r\ncontract UserRegistry {\r\n\r\n    address public insurer;\r\n\r\n    struct Patient {\r\n        uint patientId;\r\n        string name;\r\n        string dob;\r\n        string gender;\r\n        string mobile;\r\n        string email;\r\n        string location;\r\n        bool otpVerified;\r\n        bytes32 memberIdHash;\r\n        string photoHash;\r\n        address walletAddress;\r\n        string status;\r\n        uint timestamp;\r\n    }\r\n\r\n    struct PatientInput {\r\n        string name;\r\n        string dob;\r\n        string gender;\r\n        string mobile;\r\n        string email;\r\n        string location;\r\n        bool otpVerified;\r\n        bytes32 memberIdHash;\r\n        string photoHash;\r\n    }\r\n\r\n    uint public patientCount = 0;\r\n\r\n    mapping(address => Patient) public patients;\r\n    mapping(address => bool) public isRegistered;\r\n    mapping(address => bool) public isApproved;\r\n    mapping(bytes32 => bool) public validMemberIds;\r\n    mapping(bytes32 => bool) public memberIdUsed;\r\n    mapping(bytes32 => string) public memberIdAadhaarCID;  // stores aadhaar IPFS CID per member ID\r\n\r\n    address[] public pendingPatients;\r\n    address[] public allPatients;\r\n\r\n    event MemberIdAdded(bytes32 indexed idHash);\r\n    event PatientRegistered(uint patientId, string name, address walletAddress, uint timestamp);\r\n    event PatientApproved(address walletAddress, string name, uint timestamp);\r\n    event PatientRejected(address walletAddress, string name, uint timestamp);\r\n\r\n    modifier onlyInsurer() {\r\n        require(msg.sender == insurer, \"Only insurer can do this\");\r\n        _;\r\n    }\r\n\r\n    constructor() {\r\n        insurer = msg.sender;\r\n    }\r\n\r\n    function addMemberId(bytes32 idHash) public onlyInsurer {\r\n        validMemberIds[idHash] = true;\r\n        emit MemberIdAdded(idHash);\r\n    }\r\n\r\n    // Add member ID with Aadhaar CID\r\n    function addMemberIdWithAadhaar(bytes32 idHash, string calldata aadhaarCID) public onlyInsurer {\r\n        validMemberIds[idHash] = true;\r\n        memberIdAadhaarCID[idHash] = aadhaarCID;\r\n        emit MemberIdAdded(idHash);\r\n    }\r\n\r\n    // Get Aadhaar CID for a member ID\r\n    function getAadhaarCID(bytes32 idHash) public view returns (string memory) {\r\n        return memberIdAadhaarCID[idHash];\r\n    }\r\n\r\n    function addMemberIds(bytes32[] calldata idHashes) public onlyInsurer {\r\n        for (uint i = 0; i < idHashes.length; i++) {\r\n            validMemberIds[idHashes[i]] = true;\r\n            emit MemberIdAdded(idHashes[i]);\r\n        }\r\n    }\r\n\r\n    function checkMemberId(bytes32 idHash) public view returns (bool) {\r\n        return validMemberIds[idHash] && !memberIdUsed[idHash];\r\n    }\r\n\r\n    function registerPatient(PatientInput memory input) public {\r\n        require(!isRegistered[msg.sender],           \"Patient already registered\");\r\n        require(input.otpVerified == true,           \"OTP not verified\");\r\n        require(bytes(input.photoHash).length > 0,   \"Photo not uploaded\");\r\n        require(input.memberIdHash != bytes32(0),    \"Member ID not provided\");\r\n        require(validMemberIds[input.memberIdHash],  \"Invalid Member ID\");\r\n        require(!memberIdUsed[input.memberIdHash],   \"Member ID already used\");\r\n\r\n        patientCount++;\r\n\r\n        patients[msg.sender] = Patient(\r\n            patientCount,\r\n            input.name, input.dob, input.gender,\r\n            input.mobile, input.email, input.location,\r\n            input.otpVerified,\r\n            input.memberIdHash,\r\n            input.photoHash,\r\n            msg.sender,\r\n            \"Pending\",\r\n            block.timestamp\r\n        );\r\n\r\n        isRegistered[msg.sender]         = true;\r\n        memberIdUsed[input.memberIdHash] = true;\r\n        pendingPatients.push(msg.sender);\r\n        allPatients.push(msg.sender);\r\n\r\n        emit PatientRegistered(patientCount, input.name, msg.sender, block.timestamp);\r\n    }\r\n\r\n    function approvePatient(address _walletAddress) public onlyInsurer {\r\n        require(isRegistered[_walletAddress], \"Patient not registered\");\r\n        require(!isApproved[_walletAddress],  \"Patient already approved\");\r\n        patients[_walletAddress].status = \"Approved\";\r\n        isApproved[_walletAddress]      = true;\r\n        emit PatientApproved(_walletAddress, patients[_walletAddress].name, block.timestamp);\r\n    }\r\n\r\n    function rejectPatient(address _walletAddress) public onlyInsurer {\r\n        require(isRegistered[_walletAddress], \"Patient not registered\");\r\n        patients[_walletAddress].status = \"Rejected\";\r\n        emit PatientRejected(_walletAddress, patients[_walletAddress].name, block.timestamp);\r\n    }\r\n\r\n    function getPatient(address _walletAddress) public view returns (Patient memory) {\r\n        require(isRegistered[_walletAddress], \"Patient not registered\");\r\n        return patients[_walletAddress];\r\n    }\r\n\r\n    function getPendingPatients() public view returns (address[] memory) {\r\n        return pendingPatients;\r\n    }\r\n\r\n    function getAllPatients() public view returns (address[] memory) {\r\n        return allPatients;\r\n    }\r\n\r\n    function checkPatientApproved(address _walletAddress) public view returns (bool) {\r\n        return isApproved[_walletAddress];\r\n    }\r\n\r\n    function checkPatientRegistered(address _walletAddress) public view returns (bool) {\r\n        return isRegistered[_walletAddress];\r\n    }\r\n\r\n    function getPatientName(address _walletAddress) public view returns (string memory) {\r\n        require(isRegistered[_walletAddress], \"Patient not registered\");\r\n        return patients[_walletAddress].name;\r\n    }\r\n}\r\n",
  "sourcePath": "D:\\MedInsure_mid\\contracts\\UserRegistry.sol",
  "compiler": {
    "name": "solc",
    "version": "0.8.19+commit.7dd6d404.Emscripten.clang"
  },
  "schemaVersion": "3.4.16",
  "updatedAt": "2026-04-03T11:29:57.059Z",
  "networkType": "ethereum",
  "devdoc": {
    "kind": "dev",
    "methods": {},
    "version": 1
  },
  "userdoc": {
    "kind": "user",
    "methods": {},
    "version": 1
  }
}